:020000040000FA
:060800003AEF1BF01200AC
:0608080009EF05F01200EB
:06081800F6EF04F01200EF
:06082A000200B6360000DA
:100830007200000002000000AC3600006000000002
:040840000A000000AA
:0C084400D9CFE6FFE1CFD9FFE652ACC1EE
:10085000E6FFADC1E6FFAEC1E6FFBF0E2A6E300E69
:100860002B6E2C6A2AC0E6FF2BC0E6FF2CC0E6FFE9
:1008700091EC19F02D6E060EE15E2D50DF6ADFCF90
:100880002AF0080EE76E2A18E8AE02D0E73402D04C
:10089000E7502A5C01E395D0010EDF5206E0DFCF7E
:1008A000F3FFE846FE0BF306FCE10101A91501E1A7
:1008B00088D00001635140E060C02DF061C02EF08F
:1008C0002F6AACC11DF0ADC11EF0AEC11FF02DC02E
:1008D00022F02EC023F02FC024F0F3EC1AF01DC03C
:1008E0002AF01EC02BF01FC02CF02AC0E6FF2BC040
:1008F000E6FF2CC0E6FFACC1E6FFADC1E6FFAEC12E
:10090000E6FFDFCF30F0316A30BE316830C0E6FF3D
:1009100031C0E6FFA50E326E300E336E346A32C03F
:10092000E6FF33C0E6FF34C0E6FF91EC19F0356E08
:100930000B0EE15E355043D0DFCFE9FFEA6AE9BE36
:10094000EA68D890E936EA36C70EE926010EEA22AF
:10095000EECFE6FFEFCFE6FFDFCFE9FFEA6AE9BEC1
:10096000EA68030EEA02F3CFEAFF030EE902F3CFCF
:10097000E9FFF450EA26AF0EE926010EEA22EECF97
:10098000E6FFEECFE6FFEFCFE6FFDFCF2AF02B6AE0
:100990002ABE2B682AC0E6FF2BC0E6FFA50E2C6EF0
:1009A000300E2D6E2E6A2CC0E6FF2DC0E6FF2EC045
:1009B000E6FF91EC19F02F6E0A0EE15E2F50DF2A50
:1009C0005ED79F0E2A6E300E2B6E2C6A2AC0E6FF71
:1009D0002BC0E6FF2CC0E6FF91EC19F0E552E55282
:1009E000E552E552E552E7CFD9FF1200D8CFE4FF38
:1009F000E0CFE4FFE46EDACFE4FFE2CFDAFFE652C5
:100A0000E552E5CFDAFFE550E5CFE0FFE5CFD8FFCF
:100A10001000DACFE4FFE2CFDAFFE9CFE4FFEACF5C
:100A2000E4FFF3CFE4FFF4CFE4FFE652D9CFE6FFD3
:100A3000E1CFD9FF020EE1269EA25FD09E92000177
:100A400062515BE00101AC2B000EAD23000EAE2322
:100A5000ABC1AAF181CFABF1DF6ADFCF38F0080E6E
:100A6000E76E3818E8AE02D0E73402D0E750385CC1
:100A700044E2010EDF5206E0DFCFF3FFE846FE0B53
:100A8000F306FCE1E76E010EE7CFDBFF0101AB519E
:100A90000101AA19386E010EDB500101A9153814A5
:100AA0000101AB1528E0DFCFE9FFEA6AE9BEEA6899
:100AB000D890E936EA36C70EE926010EEA22EE2A78
:100AC000000EEF22DFCFE9FFEA6AE9BEEA68030E13
:100AD000EA02F3CFEAFF030EE902F3CFE9FFF45095
:100AE000EA26AF0EE926010EEA22ACC1EEFFADC147
:100AF000EEFFAEC1EEFFDF2AB0D7020EE15C02E2EC
:100B0000E16AE552E16EE552E7CFD9FFE552E5CF64
:100B1000F4FFE5CFF3FFE5CFEAFFE5CFE9FFE5CF4F
:100B2000DAFF1100D9CFE6FFE1CFD9FF020EE126AF
:100B3000896A92680F0EC16EC2900C6A070EB46E7D
:100B40008A6A93688B6A9468FC0E8B16FC0E941666
:100B500094840101010EA66F0001726973690A6A2B
:100B6000096A0B6A056A046A066A026A036A076A06
:100B7000086A116A126A136A146A156ACA82CA80FC
:100B8000CA9CCA9ACA88CA96FA0ECB6E0101A06B9B
:100B90000101A16B01019E6B01019F6B0101A26B21
:100BA0000101A36B0101A46B0101A56B0E6A0F6A21
:100BB000106ADF6ADFCF2AF0180EE76E2A18E8AE57
:100BC00002D0E73402D0E7502A5C1BE2DFCFE9FF16
:100BD000EA6AE9BEEA68D890E936EA36690EE9269B
:100BE000010EEA22EE6AED6ADFCFE9FFEA6AE9BEAA
:100BF000EA68510EE926010EEA22010EEF6EDF2AA5
:100C0000D9D7D586D59AD59CF294F29AF194D08E04
:100C1000CA949D829F92F28EF28C020EE15C02E2F7
:100C2000E16AE552E16EE552E7CFD9FF1200D9CF74
:100C3000E6FFE1CFD9FF020EE126010EDB6A0101DA
:100C4000D86B65EC0BF060C02DF061C02EF02F6A00
:100C5000ACC11DF0ADC11EF0AEC11FF02DC022F021
:100C60002EC023F02FC024F0F3EC1AF019C02AF0A4
:100C70001AC02BF01BC02CF02A502B102C1001E1B5
:100C8000E1DD060E0101FA5D03E36D50020B01E0A8
:100C900001D10650000807E2052A030E055C01E1B8
:100CA000056A0606F6D70B50000807E20A2A030E6B
:100CB0000A5C01E10A6A0B06F6D7040118BF65D089
:100CC0000101D86B040119510101D85D53E2010102
:100CD000D851EA6A080FE96E050EEA22EFCFDFFF6E
:100CE000000166511CE10D0E2A6EDF502A5C05E002
:100CF0000A0E2B6EDF502B5C12E10001010E666FB5
:100D00000101A051EA6A400FE96E020EEA220D0EBF
:100D1000EF6E0101A02BDE52010EDD6E15D00D0E1F
:100D2000DF5C11E00A0EDF5C0EE00101A051EA6A0F
:100D3000400FE96E020EEA22DFCFEFFF0001666B83
:100D40000101A02B01D013D0400E0101A05D02E1F2
:100D50000101A06B0101A1510101A05D02E10D861D
:100D600009D0010EDB5003E015D9010EDB6A010149
:100D7000D82BA8D70401400E196F400E0401181794
:100D80000401187D880E040118130D5001E181D073
:100D90000DA010D0990E2A6E300E2B6E2C6A2AC030
:100DA000E6FF2BC0E6FF2CC0E6FF91EC19F0E55200
:100DB000E552E5520DA210D0930E2A6E300E2B6E26
:100DC0002C6A2AC0E6FF2BC0E6FF2CC0E6FF91ECA0
:100DD00019F0E552E552E5520DA410D0770E2A6EB7
:100DE000300E2B6E2C6A2AC0E6FF2BC0E6FF2CC00B
:100DF000E6FF91EC19F0E552E552E5520DA610D050
:100E00005B0E2A6E300E2B6E2C6A2AC0E6FF2BC0BA
:100E1000E6FF2CC0E6FF91EC19F0E552E552E552F1
:100E20000DA810D03C0E2A6E300E2B6E2C6A2AC0F4
:100E3000E6FF2BC0E6FF2CC0E6FF91EC19F0E5526F
:100E4000E552E5520DAA00D00DAC10D01B0E2A6E53
:100E5000300E2B6E2C6A2AC0E6FF2BC0E6FF2CC09A
:100E6000E6FF91EC19F0E552E552E5520DAE10D0D7
:100E7000020E2A6E300E2B6E2C6A2AC0E6FF2BC0A3
:100E8000E6FF2CC0E6FF91EC19F0E552E552E55281
:100E90000D6A35D8020EE15C02E2E16AE552E16ECC
:100EA000E552E7CFD9FF1200D9CFE6FFE1CFD9FF56
:100EB00001019E51EA6A000FE96E020EEA22FE0E5F
:100EC000DBCFEFFF01019E2B400E01019E5D02E191
:100ED00001019E6B01019F5101019E5D01E10D84A5
:100EE000FE0EDBCF2AF02B6A2ABE2B682AC0F3FF46
:100EF0002BC0F4FF00D0E552E7CFD9FF1200D9CFC5
:100F0000E6FFE1CFD9FFE6520101D9513EE10101EF
:100F10009E5101019F5D39E001019F510101D8807F
:100F20009E551AE201019F5101019E5DDF6E010194
:100F30009F510101DA6FDB6B000E0101DA27020E0F
:100F40000101DB23DFCFDEF10101DF6B0101010EC7
:100F5000D96F9EC19FF119D0400E0101D8809F55D5
:100F6000DF6E01019F510101DA6FDB6B000E0101A1
:100F7000DA27020E0101DB23DFCFDEF10101DF6B97
:100F80000101010ED96F01019F6BE552E552E7CFD8
:100F9000D9FF1200D9CFE6FFE1CFD9FF040EE12639
:100FA000DE6ADD6A020EDB6A030EDB6A0101A15113
:100FB000EA6A400FE96E020EEA22EF50E66EE66A38
:100FC0008AEC1AF0E552E552020EF3CFDBFF010185
:100FD000A12B400E0101A15D02E10101A16B020EF6
:100FE000DB50DE6EDD6A0101A151EA6A400FE96E55
:100FF000020EEA22EF502C0835E00101A151EA6A05
:10100000400FE96E020EEA22EF500D082BE00101BD
:10101000A151EA6A400FE96E020EEA22EF50E66E35
:10102000E66A8AEC1AF0E552E552030EF3CFDBFFD5
:101030000101A12B400E0101A15D02E10101A16BA3
:10104000020EDBCF2CF02CC02DF02C6A030EDB50EF
:1010500000012C242A6E000E2D202B6E2AC0DEFFEC
:101060002BC0DDFF000EDBCF1EF0010EDBCF1FF02B
:10107000570E1E1802E1480E1F1818E0540E1E18D5
:1010800002E1530E1F1810E04F0E1E1802E1470E2A
:101090001F1808E0560E1E1801E11F5001E008D08D
:1010A0007DD845D099D843D0ABD841D0AFD83FD028
:1010B000030EDB501AE1020EDBCFE6FFE66A020EFA
:1010C000DBCFE6FFE66ADF0E2A6E2F0E2B6E2C6A50
:1010D0002AC0E6FF2BC0E6FF2CC0E6FF91EC19F01A
:1010E0002D6E070EE15E2D5021D0030EDBCFE6FF03
:1010F000E66A020EDBCFE6FFE66A030EDBCFE6FF11
:10110000E66A020EDBCFE6FFE66AB70E2A6E2F0E06
:101110002B6E2C6A2AC0E6FF2BC0E6FF2CC0E6FF30
:1011200091EC19F02D6E0B0EE15E2D5000D00101F7
:10113000A151EA6A400FE96E020EEA22EF500D0853
:101140000DE00D500BE1520E2A6E2B6ADF502A186B
:1011500003E1DE52DD502B1801E00D8EA0C1A1F19C
:10116000040EE15C02E2E16AE552E16EE552E7CF8E
:10117000D9FF12000101A65110E0A80E2A6E350E0B
:101180002B6E2C6A2AC0E6FF2BC0E6FF2CC0E6FFC0
:1011900091EC19F0E552E552E5521200B00E2A6EBC
:1011A000350E2B6E2C6A2AC0E6FF2BC0E6FF2CC042
:1011B000E6FF91EC19F0E552E552E5521200936812
:1011C0000001010E626F0101AC6BAD6BAE6BCA84A6
:1011D000010E026E036A1200CDDFF1DF010EE66E32
:1011E0002CD8E5521DC0A9F1010EE66E26D8E552B5
:1011F0001DC060F01EC061F00D5001E000D0120073
:10120000B9DF0001626B0001636B1200B3DF000104
:10121000010E636FD4DF010EE66E0FD8E5521DC0DC
:10122000A9F1010EE66E09D8E5521DC060F01EC09E
:1012300061F00D5001E000D01200D9CFE6FFE1CF00
:10124000D9FF040EE126030EDB6A0D0E2A6E0101A2
:10125000A151EA6A400FE96E020EEA22EF502A5CC1
:1012600005E10D881D6A1E6A1F6A93D10101A15113
:10127000EA6A400FE96E020EEA22EF502C0820E0E5
:101280000101A151EA6A400FE96E020EEA22EF5015
:10129000E66EE66A900E2A6E2F0E2B6E2C6A2AC01E
:1012A000E6FF2BC0E6FF2CC0E6FF91EC19F02D6E97
:1012B000050EE15E2D500D8A1D6A1E6A1F6A69D1F6
:1012C0000101A12B400E0101A15D02E10101A16B11
:1012D0002D0E2A6E0101A151EA6A400FE96E020E3D
:1012E000EA22EF502A5C28E1040E2B6EFE0EDB5042
:1012F0002B5C22E0050E2C6EFE0EDB502C5C1CE0FD
:10130000FE0EDB0406E0030E2A6EFE0EDB502A5CA6
:1013100006E10D8C1D6A1E6A1F6A3BD10DD0010EBD
:10132000F36E030EF3CFDBFF0101A12B400E010191
:10133000A15D02E10101A16B040E2A6EFE0EDB50DD
:101340002A5C11E0050E2B6EFE0EDB502B5C0BE0D1
:10135000050EE66ED9CFE6FFDACFE6FF24D9E552D7
:10136000E552E5523AD00101A151EA6A400FE96E17
:10137000020EEA22EFCF2AF02B6A2C6A2AC0DFFF86
:10138000010E2BC0DBFF020E2CC0DBFF050E2A6E08
:10139000FE0EDB502A5C19E1000EDBCFE6FF010EEA
:1013A000DBCFE6FF8AEC1AF0E552E552F3CF2AF0E4
:1013B000F4CF2BF02C6A2BBE2C682AC0DFFF010E65
:1013C0002BC0DBFF020E2CC0DBFF0101A12B400E66
:1013D0000101A15D02E10101A16B030EDB5021E0DF
:1013E000DFCF2AF0010EDBCF2BF0020EDBCF2CF08B
:1013F0002268236824682AC01DF02BC01EF02CC070
:101400001FF065EC18F01AC02AF01BC02BF01CC0AE
:101410002CF02AC0DFFF010E2BC0DBFF020E2CC018
:10142000DBFFFE0EDB5026E1DFCF2AF0010EDBCF23
:101430002BF0020EDBCF2CF02C34000E2C1807E61C
:10144000D8807F0E2A54000E2B54000E2C5401E23B
:101450008CD0D9CFE9FFDACFEAFF020ED880EB506B
:10146000FF0A06E6800EEE5CFF0EEE58FF0EEF5808
:1014700001E27BD0FE0EDB0424E1DFCF2DF0010E74
:10148000DBCF2EF0020EDBCF2FF02F34000E2F1803
:1014900007E6D880FF0E2D54000E2E54000E2F5458
:1014A00064E3D9CFE9FFDACFEAFF020ED890EB5020
:1014B000000A06E6000EEE5C000EEE58000EEF5835
:1014C00054E3020E306EFE0EDB50305C24E1DFCFC1
:1014D00031F0010EDBCF32F0020EDBCF33F03334CC
:1014E000000E331807E6D880FF0E31547F0E3254B9
:1014F000000E33543AE3D9CFE9FFDACFEAFF020E08
:10150000D880EB50FF0A06E6000EEE5C800EEE5827
:10151000FF0EEF582AE3030E346EFE0EDB50345CF0
:1015200029E1DFCF35F0010EDBCF36F0020EDBCF45
:1015300037F03734000E371807E6D880FF0E3554E1
:10154000FF0E3654000E375410E3D9CFE9FFDACF3F
:10155000EAFF020ED890EB50000A06E6000EEE5CA1
:10156000000EEE58000EEF5805E20D8C1D6A1E6A43
:101570001F6A0FD0DFCF2AF0010EDBCF2BF0020E57
:10158000DBCF2CF02AC01DF02BC01EF02CC01FF0AA
:1015900000D0040EE15C02E2E16AE552E16EE55240
:1015A000E7CFD9FF1200D9CFE6FFE1CFD9FF020E76
:1015B000E126FD0EDBCFE9FFFE0EDBCFEAFFEE6A90
:1015C000EE6AEE6A010EDB6AFC0EDB50F36E010E72
:1015D000DBCFF4FFF350F45C55E20101A151EA6A5C
:1015E000400FE96E020EEA22EFCFDFFF300EDF5C24
:1015F00044E3DF50390841E3FD0EDBCFE9FFFE0E87
:10160000DBCFEAFFEECF2DF0EECF2EF0EFCF2FF0B5
:101610000A0E226E236A246A2DC01DF02EC01EF011
:101620002FC01FF065EC18F01AC02DF01BC02EF073
:101630001CC02FF0300EDF5C306E316A326A2D50E4
:1016400030242A6E2E5031202B6E2F5032202C6EDB
:10165000FD0EDBCFE9FFFE0EDBCFEAFF2AC0EEFF77
:101660002BC0EEFF2CC0EEFF0101A12B400E0101AB
:10167000A15D02E10101A16B02D0000E05D0010EB7
:10168000DB2AA2D7010E00D02A6E020EE15C02E234
:10169000E16AE552E16E2A50E552E7CFD9FF120028
:1016A0000650E66EE66A840E2A6E2F0E2B6E2C6AAA
:1016B0002AC0E6FF2BC0E6FF2CC0E6FF91EC19F034
:1016C0002D6E050EE15E2D5012000101FA5108E069
:1016D000010E2A6E6D50020B01E0010E2A5C02E140
:1016E0008B905DD00101FA050CE0020E0101FA5D5C
:1016F00008E0030E0101FA5D04E0050E0101FA5D48
:1017000002E18B804CD0060E0101FA5D48E1000138
:101710006707000E685B000169510EE10001675127
:10172000681109E18B800001100E676F270E686F4A
:101730000001010E696F33D0000169050EE100015F
:101740006751681109E18B900001100E676F270E39
:10175000686F0001020E696F22D0020E0001695D00
:101760000EE100016751681109E18B800001A00EB4
:10177000676F860E686F0001030E696F10D0030E4D
:101780000001695D0CE300016751681108E18B906D
:101790000001100E676F270E686F0001696B120061
:1017A00082B403D0010E03D002D0000E00D012008C
:1017B00014EC11F0FB0EDBCFF3FFDB06F350000956
:1017C0000AE062EC11F0FA0ECDEC11F0F3E12B1C03
:1017D000F1E1010E01D0000E43EF11F014EC11F015
:1017E0003B0EE12402E3E168E652E16E010EDB6AA2
:1017F000020EDB6AF90EDBCFF6FFFA0EDBCFF7FF46
:10180000FB0EDBCFF8FF0800F550DF6EDF5002E182
:1018100067EF10F0250EDF5C02E05AEF10F0030EC8
:10182000DB6A040EDB6A050EDB6A060EDB6A070E56
:10183000DB6A7CEC10F02D0EDF5C0CE02B0EDF5C25
:1018400009E0200EDF5C06E0230EDF5C03E0300ED3
:10185000DF5C1AE1DF50300A14E0130A0FE0030ADC
:101860000AE00B0A05E0060AE4E1030EDB80E1D79B
:10187000030EDB82DED7030EDB84DBD7030EDB86B1
:10188000D8D7030EDB88D5D72A0EDF5C1BE178ECB6
:1018900010F0C6EC10F010E0030EDB801E681F682D
:1018A000130EDBCF23F0140EDBCF24F0AEEC18F0D8
:1018B000040E1CC0DBFF03D0130EAFEC10F07CEC69
:1018C00010F00BD0090EDB6A1DEC11F003E091EC77
:1018D00011F0FAD7090EAFEC10F0030EDBB0DB9875
:1018E0002E0EDF5C1BE17CEC10F02A0EDF5C0BE1BE
:1018F00078EC10F0C6EC10F003E1130E01EC11F0DF
:101900007CEC10F00BD0090EDB6A1DEC11F003E04B
:1019100091EC11F0FAD7090E01EC11F0680EDF5CC2
:1019200007E17CEC10F0680EDF5C1DE1030E18D0BF
:10193000740EDF5C17E07A0EDF5C14E0480EDF5CAB
:1019400006E0540EDF5C03E05A0EDF5C02E1020E9B
:1019500007D06C0EDF5C03E06A0EDF5C04E1010E71
:1019600054EC11F0C9DBDF506E0A01E17FD31E0A8F
:1019700001E192D1200A01E18FD13F0A01E149D171
:101980001A0A01E146D10D0A01E143D1200A01E121
:1019900040D13A0A01E13DD1200A01E13AD1260ABB
:1019A00001E135D10D0A01E132D11A0A01E1D9D0A4
:1019B000200A4AE0300A1FE0460A0EE0250A01E04C
:1019C00083D3D950F90FE96EFF0EDA20EA6E010ECB
:1019D000EE5E000EEE5AEE5A62EC11F0250EE66E47
:1019E00095DB03E12B1C01E169D35EEC11F001E210
:1019F0006BD3DB2A69D3080EDB6A040EDB500108C7
:101A000006E2040EDB0426EC11F0DB508BDB080E43
:101A1000DB5009E0030EDB50010B05E172DB01E056
:101A20004DD3080EDB6A64DBEFCFDFFFD6EC11F09D
:101A300003E12B1C01E142D35EEC11F001E3DB2A50
:101A400060DB01E141D33AD3070EDB5002080FE11E
:101A5000A2EC11F0030E69EC11F00E0EEECFDBFFDD
:101A60000F0EEECFDBFF100EEECFDBFF20D0F70E18
:101A7000DBCF2DF0F80EDBCF2EF0020E2D5E000E28
:101A80002E5AF70E2DC0DBFFF80E2EC0DBFF2DC047
:101A9000E9FF2EC0EAFF59EC11F02C6A0E0E2AC0A5
:101AA000DBFF0F0E2BC0DBFF100E2CC0DBFF0E0E7A
:101AB000DBCFE6FF0F0EDBCFE6FF100EDBCFE6FF3E
:101AC00065EC1AF0E552E552E552130E1DC0DBFF3E
:101AD000140E1EC0DBFF060EDB5005E0130E9DEC5E
:101AE00011F001E26ADBC1EC11F002E2130E37DB08
:101AF00084EC11F006E0040E9DEC11F002E2050EFC
:101B00002EDB030EDBB005D0FCDA01E0D7D2080EE5
:101B1000DB6A090EDB6A0E0EDBCFF6FF0F0EDBCFA2
:101B2000F7FF100EDBCFF8FF0800F550DF6EDF5037
:101B300014E0C7EC11F011E2D6EC11F003E12B1C1C
:101B400001E1BCD2BBDB01E3DB2A090EDB2AD95061
:101B50000E0FE96E000ECBDBE7D7D3DA01E1B4D28A
:101B6000ADD2C6DA110EEECFDBFF120EEDCFDBFFEA
:101B7000110EDBCFE6FF120EDBCFE6FF57EC1AF0BB
:101B8000E552E552130EF3CFDBFF140EF4CFDBFF6B
:101B9000060EDB5004E0130ED0DB01E20EDBC1ECDD
:101BA00011F002E2130EDBDAAFDB05E0040EC5DB59
:101BB00002E2050ED4DA030EDBB005D0A2DA01E0B2
:101BC0007DD2080EDB6A090EDB6A110EDBCFE9FF5E
:101BD000120EDBCFEAFFEFCFDFFFDF5014E0D7DBE1
:101BE00012E2E4DB03E12B1C01E168D267DB01E3D5
:101BF000DB2A090EDB2A110EDB2ADBCFE9FF120EEE
:101C0000E8E3DB2AE6D77DDA01E15ED257D2030EA4
:101C1000DB8E070EDB0410E195DB040E5ADB0A0EA7
:101C2000EECFDBFF0B0EEECFDBFF0C0EEECFDBFFBC
:101C30000D0EEECFDBFF6CD0070EDB5003082CE15E
:101C4000030EDBAE0DD0B2DA020E76DAEFCF2AF059
:101C50002B6A2C6A2D6A2AAE39D02B682C6835D0B5
:101C6000F70EDBCF2BF0F80EDBCF2CF0020E2B5E45
:101C7000000E2C5AF70E2BC0DBFFF80E2CC0DBFF3A
:101C80002BC0E9FF2CC0EAFFEFCF2AF00A0E2AC0D2
:101C9000DBFF0B0EDB6A38D0070EDB50020809E1D0
:101CA000030EDBAE04D059DB2CAE10D00ED055DBCA
:101CB0000DD0030EDBAE12D079DA020E3DDAF9DA7E
:101CC0002C6A2D6A2BAE02D02C682D68E2DA0C0E3D
:101CD0002CC0DBFF0D0E2DC0DBFF1AD0F70EDBCFC3
:101CE0002CF0F80EDBCF2DF0020E2C5E000E2D5ADC
:101CF000F70E2CC0DBFFF80E2DC0DBFF2CC0E9FF78
:101D00002DC0EAFFD6DAC5DA0C0EDB6A0D0EDB6AEF
:101D1000060EDB5005E1010EF36E050EF3CFDBFF7F
:101D2000150EDB6A160EDB6AD950370F2A6E000ECD
:101D3000DA202B6E390E2AC0DBFF3A0E2BC0DBFFF8
:101D4000380EDB6A080EDB6A0A0EAEDADF50780A5C
:101D500012E0200A10E0280A0CE0200A0AE03F0AFC
:101D600006E00D0A02E0200A08E1020E05D0080E86
:101D700003D0080EDF26100E97DA030EDBBE02D06A
:101D8000DB92DB94DB50800B24E08ADAD890030EE0
:101D9000EB50000A08E6000EEE5C000EEE58000E56
:101DA000EE58000EEE5815E213DA21682268236817
:101DB00024681FEC1AF00A0E18C0DBFF0B0E19C0C6
:101DC000DBFF0C0E1AC0DBFF0D0E1BC0DBFF2D0E60
:101DD00008D0030EDBA202D02B0E03D0DBA408D068
:101DE000200EF36E170EF3CFDBFF150EDB2A02D0A9
:101DF000170EDB6A050EDB5003E1B7D901E189D08C
:101E00008C0E2A6E360E2B6E000E2C6E070EDBCF5C
:101E10002DF02E6A2F6A306A2DC021F02EC022F0DC
:101E20002FC023F030C024F0D3D9B0EC1AF02A50E0
:101E30001824F36E2B501920F46E2C501A20F86ED3
:101E4000F4CFF7FFF3CFF6FF0800090EF5CFDBFF65
:101E5000580EDF5C0FE1610EF36E090E7BD90AE3C9
:101E6000200E2A6E090EDBCFE7FF2A50E75E090E2F
:101E7000E7CFDBFF070EDBCF2AF02B6A2C6A2D6A37
:101E80000FDA2AC021F02BC022F02CC023F02DC085
:101E900024F0EECF1CF0EECF1DF0EECF1EF0EFCF12
:101EA0001FF0B0EC1AF01FC0EDFF1EC0EDFF1DC00B
:101EB000EDFF1CC0EFFF390EDBCFE9FFDB063A0E6A
:101EC000DBCFEAFF01E2DB06090EDBCFEFFF150EE9
:101ED000DB2A4BD995E1030EDBA61DD06F0EDF5C2C
:101EE00006E1C1D918E3150EDB285BDA14D0780EB1
:101EF000DF5C09E0580EDF5C06E0620EDF5C03E0A9
:101F0000420EDF5C08E1020EF36E160EF3CFDBFF2C
:101F100002D0150EDB6A030EDB50100B0EE0040E30
:101F2000DBCF2AF0050EDB50D8802A5406E2060EDD
:101F3000DB5003E1040EDB5034DA95D90AE2050EDA
:101F4000DBCFE7FF150EDB50E75E050EE7CFDBFFCB
:101F500002D0050EDB6A040EDBCF2AF0160E45D93F
:101F6000D8802A5414E2160EDBCFE6FF150EDBCF25
:101F7000E6FF040EDBCFE6FF050EDB50E552E75C23
:101F8000E552D880E754E552D880E7545FD9030E74
:101F9000DB50010B0BE1080EDB5008E0B2D801E08A
:101FA0008DD0080EDB50BED8080EDB6A170EDB5052
:101FB00007E088D9170EF1D903E12B1C01E17ED08F
:101FC000160EDB5016E07ED9300EE66E9FD802E189
:101FD0002B1C74E077D9DFCFE6FFDDEC19F0E5527A
:101FE000E552E552F4CF2BF00001F31C02E12B1C6B
:101FF00065E0050EDBCF2AF0160EDB50D8802A54A0
:1020000009E2050EDBCFE7FF160EDB50E75E050E9B
:10201000E7CFDBFF300EE66E050ECBD94FE1390E70
:10202000DB2ADBCFE9FF3A0E01E3DB2ADBCFEAFF55
:10203000090EEFCFDBFFDB500EE044D9090EADD91E
:1020400002E12B1C3BE0390EDB2ADBCFE9FF3A0E25
:10205000EDE3DB2AEBD755D831E1160EDBCFE6FFF7
:10206000080EC3D8E552E7245DD82ED0070EDB500A
:10207000030A1CE0010A14E0030A07E07BD9DBCF66
:10208000EEFF020EDBCFEDFF1FD0F5D82F6A2DAE8D
:1020900002D02E682F682CD8BCD82FC0EEFF14D0E9
:1020A000EAD82DBE2E6824D8B4D80ED063D9DBCFA1
:1020B000EFFF0AD07BD905E12B1C03E1F368F4683C
:1020C00010D0FCD801E3DB2A79D903EF0CF0010E24
:1020D000DBCF2AF0020EDBCF2BF02AC0F3FF2BC0A0
:1020E000F4FF3B0EE15C02E2E16AE552E16ECBD027
:1020F00029D9020E69EF11F061D90800F550DF6EA1
:102100001200200EE66E080ED9EF11F0DDEC19F08A
:10211000E552E552E552F3CF2AF0F4CF2BF000015F
:10212000F31C12002A6E2B6AD950010F4DD92A5088
:10213000EE262B50ED2212002E5E000E2F5AF70EC7
:102140002EC0DBFFF80E2FC0DBFF2EC0E9FF2FC033
:10215000EAFF1200DBCFF4FFF350F45C1200DB5017
:10216000E76E040EE7CFDBFF12000A0EDBCF2AF08A
:102170000B0EDBCF2BF00C0EDBCF2CF00D0EDBCFDC
:102180002DF02A502B102C102D101200130EEECF14
:10219000DBFF140EEDCFDBFF130EDBCF2AF0140EA6
:1021A000DBCF2BF00001800E2B141200F70EDBCFDB
:1021B0002EF0F80EDBCF2FF01200050EDB50E66E8E
:1021C000D950130F01D9E552E750EE6EED6A1200B7
:1021D0000A0EDBCF1CF00B0EDBCF1DF00C0EDBCF9D
:1021E0001EF00D0EDBCF1FF01200DBCFE6FF150E49
:1021F000DBCFE6FF050EDB50E552E724E552E7248E
:102200001200DB50CED8010EF36E060EF3CFDBFFCB
:102210001200EE50EFCFEAFFE96E2CC0EEFF2DC0AA
:10222000EEFF2EC0EEFF1200D9CFE6FFDACFE6FFB9
:10223000E1CFD9FFE2CFDAFF1200DFCFE6FFE66A97
:102240009EEC1AF0E552E552F3501200E76E080ECC
:10225000E7CFDBFF1200EECF2AF0EECF2BF0EFCF6F
:102260002CF02D6A1200050EDBCF2AF0150EDB5084
:10227000D8802A541200010EDBCF2CF0020EDBCFE7
:102280002DF02E6A1200E552E5CFDAFFE7CFD9FF35
:1022900012000A0E2AC0DBFF0B0E2BC0DBFF120060
:1022A000D9500A0FE4EF11F0F36E070EF3CFDBFF06
:1022B0001200EECF2AF0EFCF2BF01200010EDB2A36
:1022C000020E1200FC0EDBCFE6FFFD0EDBCFE6FFB9
:1022D00012002A5E000E2B5AF70E2AC0DBFFF80E02
:1022E0002BC0DBFF2AC0E9FF2BC0EAFF1200DA2077
:1022F000EA6EEF2AEECFF6FF000EEF22EECFF7FFE9
:10230000EF22EECFF8FF1200040EDBCFE6FF130E34
:10231000DB50E552E75C9ADFDB5004DF060EDB5052
:102320001200090EDB500A0DF350DF24D00FE76EC8
:10233000090EE7CFDBFF7CEF10F0DB50F36E050EEC
:10234000AAEF10F0F70EDBCF2AF0F80EDBCF2BF060
:102350001200DFCFE6FF86EF10F028DF030EECDE81
:102360002BEF11F0D8EC0BF0E552E552E552E552B7
:1023700000091200BDDEEE50EFCFEAFFE96E010E5C
:102380001200130EDB50F36E040EAAEF10F0040ED1
:10239000DB50F36E090EAAEF10F0DBCFE6FF86EFFD
:1023A00010F0E76E050EE7CFDBFF12008BDFA9EF21
:1023B00011F0DBCFE6FF86DFB2EF11F0D950F90F55
:1023C000E96EFF0E77EF11F0E96E000EDA20EA6E8B
:0223D0001200F9
:0E23D200040120511F0B010801E060D004013E
:1023E0002051600BE842E842E842E842E842010836
:1023F00001E055D00401245104E00401240501E06A
:102400004ED004012151230A48E0010A40E0030AAA
:1024100030E0010A25E0240A22E0070A1FE0010A51
:102420001CE0030A11E0010A01E038D00001030EAC
:102430006B6F0001E80E6C6F010E6D6F0101FB9375
:102440000001080E706F2BD00001030E6B6F0001AE
:10245000E80E6E6F010E6F6F22D021D020D01FD0FA
:102460000001030E6B6F0001E00E6E6F010E6F6FC7
:1024700016D00001030E6B6F0001E00E6C6F010EB1
:102480006D6F0101FB930001070E706F08D0000112
:10249000030E6B6F22C4E7F102D001D000D012000E
:1024A0000101E06BC20EE16F010EE26FE36B01010F
:1024B000E46B0101E56B0101080EE66F0101D96BC8
:1024C0000101D86B1A0E726E1E0E736E0401000E9F
:1024D000166F050E176F0401400E146F0401400EB5
:1024E000196F0401080E1A6F050E1B6F0401880E88
:1024F000186F0401480E1E6F050E1F6F0401400E79
:102500001C6F1200D9CFE6FFE1CFD9FF0101D86BD4
:10251000040118BF39D0FC0EDBCF2AF00401195199
:10252000D8802A5403E2FC0E19C4DBFF0101D86BEA
:10253000FC0EDB500101D85D1CE20101D851EA6AB2
:10254000080FE96E050EEA22EF50E66E0101D85140
:10255000E76EFD0EDBCFE9FFFE0EDBCFEAFFE750B3
:10256000E926000EEA22E552E750EF6E0101D82B72
:10257000DFD70401400E196F400E04011817040143
:10258000187D880E040118130101D85100D0E552BE
:10259000E7CFD9FF1200D9CFE6FFE1CFD9FFE6524E
:1025A0000101D95101E031D0DF6ADF2ADF502A6E04
:1025B0002B6A2A5002E1010E2B1801E10BD0FD0E0F
:1025C000DBCFE9FFDB2AFE0EDBCFEAFF01E3DB2AEC
:1025D000EF50EBE1DF502A6E2B6AD950FD0FE96E08
:1025E000FF0EDA20EA6E2A50EE5E2B50ED5ADF061F
:1025F000FD0EDBCFDAF1FE0EDBCFDBF1DFCFDEF15C
:102600000101DF6B0101010ED96FE552E552E7CF01
:10261000D9FF1200D9CFE6FFE1CFD9FFE652010181
:10262000D95101E033D0DF6ADF2ADF502A6E2B6AEE
:10263000FF0E2A1801E12B5001E10CD0FD0EDBCF7B
:10264000F6FFDB2AFE0EDBCFF7FF01E3DB2A0800F3
:10265000F550EAE1DF502A6E2B6AD950FD0FE96E82
:10266000FF0EDA20EA6E2A50EE5E2B50ED5ADF069E
:10267000FD0EDBCFDAF1FE0EDBCFDBF1DFCFDEF1DB
:102680000101010EDF6F0101010ED96FE552E55224
:10269000E7CFD9FF1200D9CFE6FFE1CFD9FFE6524D
:1026A00004011CBF7DD0030E0101D95D02E10101CF
:1026B000D96B0101D95101E173D0020E0101D95D3D
:1026C00006E104011D6B0101030ED96F61D0010108
:1026D000D9055EE1400E2A6E2B6A0101DE512A5CAB
:1026E000000E2B5803E2400EDF6E02D0DEC1DFFF8A
:1026F000DFCF1DF4DF500101DE5D0101DE6F01015E
:10270000480EDC6F050EDD6F0101DF0518E1DF50BB
:1027100015E0DAC1F6FFDBC1F7FF0800F550DCC1B8
:10272000E9FFDDC1EAFFEF6E0101DC2B000EDD23C6
:102730000101DA2B000EDB23DF06E9D716D0DF50CC
:1027400014E0DAC1E9FFDBC1EAFFEF50DCC1E9FFC9
:10275000DDC1EAFFEF6E0101DC2B000EDD2301017C
:10276000DA2B000EDB23DF06EAD70101DE5110E190
:1027700004011D512A6E2B6A400E2A1801E12B50CC
:1027800004E10101020ED96F03D00101030ED96FDC
:10279000400E04011C1704011C7D880E04011C134B
:0A27A000E552E552E7CFD9FF120021
:0627AA006C5002E0000E7D
:1027B00001D0010E00090BE0040100513C0BE8427E
:1027C000E8420D0802E10CD801D042D808D06C5084
:1027D00002E0000E01D0010E040901E04BD8120006
:1027E000D9CFE6FFE1CFD9FFE65200016A6B0001C5
:1027F0006B6B0001706B716B72EC15F0DF6ADF5070
:102800002A6E2B6A010E2A5C000E2B581BE2000177
:102810006B5101E017D0F76ADF34FE0BF736F66E26
:10282000810EF626320EF7220900F5CF2AF00800B5
:10283000F5CF2BF004D02BC0FAFF2A50F96EFBDF46
:10284000DF2ADDD7F0D8E552E552E7CFD9FF1200F5
:10285000020E00016A5D0CE1A4D8040100BD04D0A1
:102860000401C80E006F03D00401880E006F01D070
:1028700029D91200040E0101FA5D0CE122C46EFF99
:102880006E50000804E20101050EFA6F03D0010149
:10289000030EFA6F00016A050CE10DD8040104BDB6
:1028A00004D00401C80E046F03D00401880E046F25
:1028B00001D008D91200D9CFE6FFE1CFD9FF020E2F
:1028C000E1260001080E705D000E715905E270C02E
:1028D000DEFF71C0DDFF03D0080EDE6EDD6A04018D
:1028E000049304010491010EDB5004010413DFCFB3
:1028F00005F4000EDB500001705F010EDB5000019B
:10290000715B0001280E6E6F040E6F6F0101FBA357
:1029100020D0D9CFE9FFDACFEAFFEE50ED1018E072
:102920006CC0F6FF6DC0F7FF0800F5506EC0E9FF00
:102930006FC0EAFFEF6E00016E2B000E6F230001E7
:102940006C2B000E6D23DF06010E01E2DB06E1D7E2
:102950001ED0D9CFE9FFDACFEAFFEE50ED1017E035
:102960006CC0E9FF6DC0EAFFEF506EC0E9FF6FC0B9
:10297000EAFFEF6E00016E2B000E6F2300016C2B3F
:10298000000E6D23DF06010E01E2DB06E2D7020E28
:10299000E15C02E2E16AE552E16EE552E7CFD9FF80
:1029A0001200D9CFE6FFE1CFD9FF020EE126030ED8
:1029B00004010015E76E010EE7CFDBFF01C4DFFF66
:1029C000DE5000017027DD50000171230001280E48
:1029D0006C6F040E6D6FD9CFE9FFDACFEAFFEE50CE
:1029E000ED1017E06CC0E9FF6DC0EAFFEF506EC05C
:1029F000E9FF6FC0EAFFEF6E00016E2B000E6F2340
:102A000000016C2B000E6D23DF06010E01E2DB06D8
:102A1000E2D7020EE15C02E2E16AE552E16EE552C4
:102A2000E7CFD9FF12006D9800016B510FE104014F
:102A3000080E016F0401200E026F040E036F0401E3
:102A4000840E006F0401840E046F3BD0040120AF9C
:102A500025D0000170510401265D0001715104016F
:102A6000275904E226C470F027C471F024DF000166
:102A7000010E6A6F0401080E016F0401200E026F3F
:102A8000040E036F0401800E006F0401280E066F10
:102A9000040E076F0401C80E046F13D00001020E6C
:102AA0006A6F0401056B0401C80E046F0401080E6F
:102AB000016F0401280E026F040E036F0401C80E9B
:102AC000006F120000016A6B0401080E016F04011F
:102AD000200E026F040E036F0401880E006F0401C4
:042AE000046B120071
:0C2AE40004012051600BE842E842E84287
:102AF000E842E842000901E058D004012151070AE8
:102B000053E00B0A51E0070A42E0010A2CE00B0AED
:102B100028E0020A26E0030A22E0080A12E0010A7D
:102B20000EE00F0A0AE0030A01E03ED00001010EA8
:102B30006B6F0101040EFA6F38D038D836D093D8B5
:102B400034D00001010E6B6F0001FC0E6C6F010EA2
:102B50006D6F0101FB930001010E706F26D0ABD8A1
:102B600024D0F9D822D00001010E6B6F040124514A
:102B700000016C6F6D6BFD0E00016C27010E0001F2
:102B80006D230101FB930001010E706F0ED0000157
:102B9000010E6B6F04012451EA6AFD0FE96E010E0C
:102BA000EA2222C4EFFF01D000D01200800E0401FF
:102BB000205D58E104012351030A34E0010A10E0CA
:102BC000030A01E04DD00001010E6B6F0001B60E4B
:102BD0006C6F310E6D6F120E0001706F716B40D013
:102BE0000001010E6B6F04012251F66EF76AD89056
:102BF000F636F736770EF626320EF7220900F5CFB5
:102C00006CF00A00F5CF6DF0020E0001F76A6C253A
:102C1000F66E6D51F7220900F5CF70F00A00F5CF7E
:102C200071F01ED00001010E6B6F04012251F66E8F
:102C3000F76AD890F636F7367B0EF626320EF72274
:102C40000900F5CF6CF00A00F5CF6DF06CC0F6FF0F
:102C50006DC0F7FF0800F5500001706F716B00D078
:102C60000101FB8312000001010E6B6F0F0EE66E77
:102C7000710EE66E0F0EE66EADEC17F0E552E55202
:102C8000E552010EE66EFD0EE66E010EE66EADEC4F
:102C900017F0E552E552E55222C4FCF1040122513D
:102CA00004E10101050EFA6F05D00101060EFA6F6D
:102CB00050EC12F012000401286B0401296B04018E
:102CC00020511F0B020A14E0030A0EE0010A01E082
:102CD00034D00001010E6B6F040128810101FBA1BA
:102CE00002D00401288329D00001010E6B6F25D08A
:102CF0000001010E6B6F040124510F0B080DF350FE
:102D00002B6A000F2A6E040E2B2204012451800B23
:102D100001E0010E040DF35000012A246E6F000E35
:102D20002B206F6F6EC0E9FF6FC0EAFFEF50040BFE
:102D300003E00401010E286F00D000016B050AE1D9
:102D40000001280E6C6F040E6D6F0101FB930001F2
:102D5000020E706F12000401220511E104012051DE
:102D60001F0B00090CE10001010E6B6F030E040143
:102D7000215D03E10101FB8102D00101FB9104010E
:102D800022513EE1040120511F0B020839E10401E8
:102D900024510F0B000934E00001010E6B6F040198
:102DA00024510F0B080DF3502B6A000F2A6E040EEE
:102DB0002B2204012451800B01E0010E040DF3507D
:102DC00000012A246E6F000E2B206F6F030E04018A
:102DD000215D07E1840E6EC0E9FF6FC0EAFFEF6E70
:102DE0000FD0040124AF06D06EC0E9FF6FC0EAFF28
:102DF000EF6A06D0880E6EC0E9FF6FC0EAFFEF6E83
:022E00001200BE
:0E2E02006DA610D802D06DB614D80101FA05E5
:102E100009E16DBA07D0686A696A69806988010149
:102E2000020EFA6F12006D6A696A6D860101010E69
:102E3000FA6F12006D6A696A0101FA6B1200FADF1B
:102E400012000101FA5101E13AD06850040B04E08C
:102E50006950040B01E03CD86DB231D06850010BD1
:102E600004E06950010B01E056D86850100B04E0F3
:102E70006950100B01E024D86850400B04E0695001
:102E8000400B01E03DD86850200B04E06950200B56
:102E900001E038D86850020B04E06950020B01E0F1
:102EA00038D8030E0101FA5D01E209D06850080B21
:102EB00006E06950080B03E0D5EC13F068961200A9
:102EC000698468986D82A19AA08A0300A09A120072
:102ED0006D926994689412000101FBA110D0F8DF93
:102EE0006D840101080EFE6F070EFF6F0101FE07E2
:102EF000000EFF5B0101FE51FF11F8E16D9412001D
:102F0000689C120070A003D062EC15F07090689A73
:102F10001200689212006A6A686A9F0E6B6E7B0EDE
:102F2000696E6E6A0F0EE66E710EE66E0F0EE66E3D
:102F300014D8E552E552E552160E706E68A602D01E
:102F40006896FCD76D9862EC15F00101FB910101C8
:102F5000FC6B0101030EFA6F1200D9CFE6FFE1CF3F
:102F6000D9FFFD0EDBCFE9FFFE0EDBCFEAFFFC0E43
:102F7000DB5004E0EE6AFC0EDB06F9D7E552E7CF42
:042F8000D9FF120063
:0C2F84005374617475733D25690D0A00DB
:102F90002135204572723A204E65656420636F6D5D
:102FA0006D61206E6578742C20666F756E643A20B2
:102FB000272563270D0A002138204572723A2055D3
:102FC0006E6B6E6F776E20636F6D6D616E64202720
:102FD000256325633A253258253258270D0A0021EA
:102FE00038204572723A20556E6B6E6F776E206393
:102FF0006F6D6D616E64202725633A253258270D69
:103000000A002137204572723A2045787472612097
:103010007061726D617465720D0A0021362045720F
:10302000723A20496E76616C696420706172616DDC
:103030007465722076616C75650D0A002134204537
:1030400072723A204D697373696E672070617261A4
:103050006D657465722873290D0A0021332045724D
:10306000723A20525820427566666572206F766506
:103070007272756E0D0A002132204572723A205428
:103080005820427566666572206F76657272756E3D
:103090000D0A002131200D0A002130200D0A0065A3
:1030A0006F6D2E0A0025693A0A20206C6173745FE7
:1030B0007469636B5F74696D653A2025690A0074F1
:0930C000696D653A2025690A00DA
:0630CA001FC029F01EC02A
:1030D00028F01DC027F01D502202F4CF1BF0F3CFC3
:1030E0001AF01E502302F4CF1DF0F3CF1CF0220281
:1030F000F3501B26F4501C22E86A1D22275023029D
:10310000F3501B26F4501C22E86A1D221F50220295
:10311000F3501C26F4501D221F5023021E6AE86A39
:103120001E22F3501D26F4501E2227502402F35075
:103130001C26F4501D221F6AE86A1E221F222850F6
:103140002402F3501D26F4501E22E86A1F22295043
:103150002402F3501E26F4501F22000C1FC029F039
:103160001EC028F01E502302F4CF1DF0F3CF1CF038
:103170001F502402F4CF1FF0F3CF1EF02302F350B0
:103180001D26F4501E22E86A1F2228502402F35004
:103190001D26F4501E22E86A1F2224AED4EF18F038
:1031A00028501E5E29501F5A29AE000C23501E5E67
:0631B00024501F5A000C20
:0A31B6001201000202000008D80414
:1031C0000A00000001020001090243000201008020
:1031D000320904000001020201000524001001046C
:1031E00024020205240600010524010001070582CE
:1031F0000308000209040100020A00000007050399
:103200000240000007058302400000040309043463
:10321000034D006900630072006F0063006800697D
:10322000007000200054006500630068006E006FAD
:10323000006C006F0067007900200049006E006399
:10324000002E00340343004400430020005200538A
:10325000002D00320033003200200045006D007563
:10326000006C006100740069006F006E0020004473
:103270000065006D006F00C831C8310B320F32435A
:0332800032D22324
:0C3284002A0EF66E080EF76E000EF86EB3
:1032900001010900F550F56F0900F550F66F03E1E3
:1032A000F56701D03DD00900F550F06F0900F550E9
:1032B000F16F0900F550F26F09000900F550E96E51
:1032C0000900F550EA6E090009000900F550F36F96
:1032D0000900F550F46F09000900F6CFF7F1F7CFB8
:1032E000F8F1F8CFF9F1F0C1F6FFF1C1F7FFF2C143
:1032F000F8FF0101F35302E1F45307E00900F55030
:10330000EE6EF307F8E2F407F9D7F7C1F6FFF8C15C
:10331000F7FFF9C1F8FF0101F507000EF65BBFD713
:02332000120099
:0E332200D9CFE6FFDACFE6FFE1CFD9FFE2CF49
:10333000DAFFE652E652E652E652D950FB0F2A6E09
:10334000FF0EDA202B6E2AC0DEFFDD6EDECFE6FF39
:10335000DDCFE6FFFB0EDBCFE6FFFC0EDBCFE6FFAB
:10336000FD0EDBCFE6FF72C0E6FF73C0E6FFEEECBA
:103370000BF02A6E070EE15C02E2E16AE552E16EB3
:103380002A50020EF3CFDBFF030EF4CFDBFF020E59
:10339000DBCF2AF0030EDBCF2BF02AC0F3FF2BC0CC
:1033A000F4FF040EE15C02E2E16AE552E16EE552EF
:0A33B000E5CFDAFFE7CFD9FF1200E6
:0633BA00D9CFE6FFDACFD7
:1033C000E6FFE1CFD9FFE2CFDAFFFB0EDBCF2AF039
:1033D000FC0EDBCF2BF00001800E2B141AE1FB0E4C
:1033E000DBCFE9FFFC0EDBCFEAFFEECFF3FFEDCF43
:1033F000F4FFEE2A000EEF22F3CFE9FFF4CFEAFF4D
:10340000FD0EDBCFEFFFEF502B6AF36E2BC0F4FF06
:1034100010D0FB0EDB50FE0806E1FD0EDBCFE6FF11
:103420002CEC1BF005D0FD0EDBCFE6FF54EC07F0D3
:0E343000E552E552E5CFDAFFE7CFD9FF1200F3
:02343E001C5020
:103440002102F3CF18F0F4CF19F02202F35019261D
:10345000000EF4201A6E1C502302F3501A26000EA0
:10346000F4201B6E1C502402F3501B261D50210219
:10347000F3501926F4501A22000E1B221D5022026E
:10348000F3501A26F4501B221D502302F3501B2622
:103490001E502102F3501A26F4501B221E50220205
:0E34A000F3501B261F502102F3501B26120072
:0234AE00FE0E10
:1034B000E3CFE9FFFF0EE3CFEAFFF36AF46AEE52CF
:1034C00003E0F34AF42AFBD71200FF0EE3CFF8FF24
:1034D000E552FF0EE3CFF7FFE552FF0EE3CFF6FF15
:1034E000E552E66AE66AE66A0900F55209E0FD0E71
:1034F000E32A05E1FE0EE32A02E1FF0EE32AF4D7F8
:10350000FD0EE3CF1DF0FE0EE3CF1EF0FF0EE3CF66
:043510001FF0120096
:0C351400FF0EE124E96EFF0EE220EA6EDB
:10352000EDCFF4FFEFCFF3FFF46607D0600EF36446
:1035300004D07B0EF36001D0F39A1200F36AF46AB0
:10354000FF0EE124E96EFF0EE220EA6EED6607D081
:103550002F0EEF6404D03A0EEF6001D0F32A120070
:103560001B6A1A6A196A186A200EE76ED8901C3610
:103570001D361E361F36183619361A361B362150A0
:10358000185C2250195823501A5824501B5809E32C
:103590002150185E2250195A23501A5A24501B5A8F
:0835A0001C2AE72EE4D71200FB
:0835A8004F4B0D0A000D0A0053
:1035B0006F70656E737072696E7473204657203039
:1035C0002E3333206261736564206F6E205542573D
:1035D00020465720442056657273696F6E20312E45
:0635E000342E320D0A003A
:0A35E6001B6A1A6A196A180EE76ED4
:1035F000D8901D361E361F3619361A361B36225005
:10360000195C23501A5824501B5807E32250195EA6
:1036100023501A5A24501B5A1D2AE72EEAD71200AB
:1036200005D811D817EC06F0FCD712000F0EC11206
:10363000140E6F6E0101FA6B0101FB6B0101FC6B53
:1036400092EC05F0120001EC17F06FBE02D021ECF5
:0836500017F04BEC13F012001F
:08365800FF0EE350ACBA04D0F0
:10366000AF6AAB8EAC8A949CACA2FED7AD6EF36E03
:04367000F46A1200E6
:0C36740013EE00F023EE00F0F86A179C43
:0C36800042EC19F010EC1BF0FDD712001A
:04368C003031323374
:0D3690003435363738396162636465660091
:02369E0000EE3C
:0C36A00000F00F0EEE6AEA62FDD7120087
:0436AC0042000000D8
:0636B00000010000000013
:0236B600FEFF15
:00000001FF
