:020000040000FA
:06080000FBEF27F01200DF
:06080800CCEF05F0120028
:0608180022EF04F01200C3
:06082A0002005150000025
:10083000A90100000200000044500000EB0000008D
:040840000D000000A7
:0C084400D8CFE4FFE0CFE4FFE46EDACF91
:10085000E4FFE2CFDAFFE9CFE4FFEACFE4FFF3CF32
:10086000E4FFF4CFE4FFE6529EA212D19E92030E63
:10087000386E0E50EA6A510FE96E010EEA22EF500F
:10088000385C30E10E50E96EEA6AD890E936EA3613
:10089000690EE926010EEA22EECF38F0EFCF39F0EB
:1008A00039C038F0396A3850D76E0E50E96EEA6AAE
:1008B000D890E936EA36690EE926010EEA22EECF33
:1008C00038F0EFCF39F03850D66EF28AF294D58EE8
:1008D0000E50EA6A510FE96E010EEA22040EEF6E25
:1008E0000E50106E020E386E0F50EA6A510FE96E0C
:1008F000010EEA22EF50385C49E10F50E96EEA6AD6
:10090000D890E936EA36690EE926010EEA22EE5061
:10091000ED1009E10F50EA6A510FE96E010EEA226B
:10092000010EEF6E33D0080E0F5C0CE2070E0F14B1
:10093000386E010E385204E0E846FE0B3806FCE142
:1009400089121AD0100E0F5C0CE2070E0F14386ECD
:10095000010E385204E0E846FE0B3806FCE18A122C
:100960000BD0070E0F14386E010E385204E0E84623
:10097000FE0B3806FCE18B120F50EA6A510FE96E4C
:10098000010EEA22030EEF6E0F500E6E0F2A060EB6
:100990000F5C03E1080E0F6E0AD0130E0F5C03E12B
:1009A000160E0F6E04D0180E0F5C01E10F6A000ED8
:1009B000D8800254000E03543FE2112A000E122286
:1009C0000250115C0350125837E30001702B000EE7
:1009D00071230001700E705D170E715907E300015D
:1009E000706B716B00016E2B000E6F23116A126A1F
:1009F000030E065C1FE20450EA6A480FE96E010E1E
:100A0000EA2280CFEFFF0450EA6A4B0FE96E010E35
:100A1000EA2281CFEFFF0450EA6A4E0FE96E010E21
:100A2000EA2282CFEFFF042A030E045C01E3046A8A
:100A3000062A02D0026A036A000ED8800754000E0C
:100A4000085419E20C50000816E2132A000E142272
:100A50000750135C085014580EE3136A146A030E0F
:100A60000B5C07E2092A030E095C01E3096A0B2A01
:100A700002D0076A086A0C5000080AE2156A15508D
:100A8000040DF328C26E9E9C9F9C9D8CC280C282E6
:100A90009EAC2DD09E9CC4503C6E3CC03DF03C6A48
:100AA000C35000013C103A6E3DC03BF01550060D9E
:100AB000F3CF38F0F4CF39F0000E3826010E39228A
:100AC0000950020D3850F324E96E3950F420EA6ED3
:100AD0003AC0EEFF3BC0EDFF152A0C50155C02E357
:100AE0009D9C05D01550040DF328C26EC282F2A45D
:100AF00042D0D59EF294F29A040E386E1050EA6AF3
:100B0000510FE96E010EEA22EF50385C34E1080E15
:100B1000105C0DE2070E1014386E010E385204E01E
:100B2000E846FE0B3806FCE1E81C89161CD0100EC6
:100B3000105C0DE2070E1014386E010E385204E0FE
:100B4000E846FE0B3806FCE1E81C8A160CD0070EBE
:100B50001014386E010E385204E0E846FE0B3806D9
:100B6000FCE1E81C8B161050EA6A510FE96E010E89
:100B7000EA22020EEF6EE552E5CFF4FFE5CFF3FF78
:100B8000E5CFEAFFE5CFE9FFE5CFDAFFE550E5CFB6
:100B9000E0FFE5CFD8FF1000DACFE4FFE2CFDAFFC5
:100BA000E652E552E5CFDAFF1100D9CFE6FFE1CFFB
:100BB000D9FF020EE126896A92680F0EC16EC290BB
:100BC0000C6A070EB46E8A6A93688B6A9468FC0E8E
:100BD0008B16FC0E941694840001010E6D6F0101BA
:100BE000A969AA690A6A096A0B6A056A046A066A37
:100BF000026A036A076A086A116A126A136A146A47
:100C0000156ACA82CA80CA9CCA9ACA88CA96FA0E4B
:100C1000CB6EDF6ADFCF2AF00C0EE76E2A18E8AE43
:100C200002D0E73402D0E7502A5C38E2010EDB6ADA
:100C3000010EDBCF2AF0030EE76E2A18E8AE02D0D1
:100C4000E73402D0E7502A5C27E2DFCF2AF02B6A94
:100C50002ABE2B68060E2B02F3CF2BF0060E2A02BB
:100C6000F3CF2AF0F4502B26000E2A26010E2B2259
:100C7000010EDBCF2CF02D6A2CBE2D68D8902C36BF
:100C80002D362A502C24E96E2B502D20EA6EEE6A68
:100C9000ED6A010EDB2ACCD7DF2ABCD70001676BD7
:100CA0000001686B0001656B0001666B0001696BF8
:100CB00000016A6B00016B6B00016C6B0E6A0F6ABE
:100CC000106ADF6ADFCF2AF0180EE76E2A18E8AE46
:100CD00002D0E73402D0E7502A5C1BE2DFCFE9FF05
:100CE000EA6AE9BEEA68D890E936EA36690EE9268A
:100CF000010EEA22EE6AED6ADFCFE9FFEA6AE9BE99
:100D0000EA68510EE926010EEA22010EEF6EDF2A93
:100D1000D9D7D586D59AD59CF294F29AF194D08EF3
:100D2000CA949D829F92F28EF28CCA84020EE15C7C
:100D300002E2E16AE552E16EE552E7CFD9FF120027
:100D4000D9CFE6FFE1CFD9FF020EE126010EDB6A23
:100D50000001D36B57EC13F097EC14F0E3EC15F0B3
:100D6000BFEC17F00001ED5102E044EC14F0060E68
:100D70000101A35D03E36D50020B01E001D10650B8
:100D8000000807E2052A030E055C01E1056A060674
:100D9000F6D70B50000807E20A2A030E0A5C01E1AD
:100DA0000A6A0B06F6D7040118BF65D00001D36BA1
:100DB000040119510001D35D53E20001D351EA6AE5
:100DC000080FE96E050EEA22EFCFDFFF0001F051B8
:100DD0001CE10D0E2A6EDF502A5C05E00A0E2B6E18
:100DE000DF502B5C12E10001010EF06F0001675132
:100DF000EA6A400FE96E020EEA220D0EEF6E000164
:100E0000672BDE52010EDD6E15D00D0EDF5C11E09A
:100E10000A0EDF5C0EE000016751EA6A400FE96EDE
:100E2000020EEA22DFCFEFFF0001F06B0001672B1B
:100E300001D013D0400E0001675D02E10001676B35
:100E4000000168510001675D02E10D8609D0010EC5
:100E5000DB5003E015D9010EDB6A0001D32BA8D7C4
:100E60000401400E196F400E040118170401187D8B
:100E7000880E040118130D5001E181D00DA010D08F
:100E8000610E2A6E4A0E2B6E2C6A2AC0E6FF2BC01A
:100E9000E6FF2CC0E6FF60EC26F0E552E552E55295
:100EA0000DA210D05B0E2A6E4A0E2B6E2C6A2AC041
:100EB000E6FF2BC0E6FF2CC0E6FF60EC26F0E55213
:100EC000E552E5520DA410D03F0E2A6E4A0E2B6E4D
:100ED0002C6A2AC0E6FF2BC0E6FF2CC0E6FF60ECC0
:100EE00026F0E552E552E5520DA610D0230E2A6EEB
:100EF0004A0E2B6E2C6A2AC0E6FF2BC0E6FF2CC0E0
:100F0000E6FF60EC26F0E552E552E5520DA810D060
:100F1000040E2A6E4A0E2B6E2C6A2AC0E6FF2BC0E6
:100F2000E6FF2CC0E6FF60EC26F0E552E552E55204
:100F30000DAA00D00DAC10D0E30E2A6E490E2B6E18
:100F40002C6A2AC0E6FF2BC0E6FF2CC0E6FF60EC4F
:100F500026F0E552E552E5520DAE10D0CA0E2A6ECB
:100F6000490E2B6E2C6A2AC0E6FF2BC0E6FF2CC070
:100F7000E6FF60EC26F0E552E552E5520D6A35D801
:100F8000020EE15C02E2E16AE552E16EE552E7CF72
:100F9000D9FF1200D9CFE6FFE1CFD9FF000165519B
:100FA000EA6A000FE96E020EEA22FE0EDBCFEFFFC7
:100FB0000001652B400E0001655D02E10001656BDB
:100FC000000166510001655D01E10D84FE0EDBCF7D
:100FD0002AF02B6A2ABE2B682AC0F3FF2BC0F4FF2D
:100FE00000D0E552E7CFD9FF1200D9CFE6FFE1CF1D
:100FF000D9FFE6520001D4513EE1000165510001E4
:10100000665D39E0000166510001D88065551AE23D
:10101000000166510001655DDF6E0001665100014F
:10102000D56FD66B000E0001D527020E0001D62326
:10103000DFCFD9F00001DA6B0001010ED46F65C07B
:1010400066F019D0400E0001D8806655DF6E0001B1
:1010500066510001D56FD66B000E0001D527020E38
:101060000001D623DFCFD9F00001DA6B0001010EB9
:10107000D46F0001666BE552E552E7CFD9FF12004D
:10108000D9CFE6FFE1CFD9FF040EE126DE6ADD6AA3
:10109000020EDB6A030EDB6A00016851EA6A400F48
:1010A000E96E020EEA22EF50E66EE66A59EC27F08E
:1010B000E552E552020EF3CFDBFF0001682B400E34
:1010C0000001685D02E10001686B020EDB50DE6E1C
:1010D000DD6A00016851EA6A400FE96E020EEA22F9
:1010E000EF502C0835E000016851EA6A400FE96EC4
:1010F000020EEA22EF500D082BE000016851EA6A67
:10110000400FE96E020EEA22EF50E66EE66A59ECF5
:1011100027F0E552E552030EF3CFDBFF0001682B09
:10112000400E0001685D02E10001686B020EDBCF3A
:101130002CF02CC02DF02C6A030EDB5000012C2467
:101140002A6E000E2D202B6E2AC0DEFF2BC0DDFF85
:10115000000EDBCF1EF0010EDBCF1FF0570E1E1866
:1011600002E1480E1F1801E1F5D0540E1E1802E1ED
:10117000530E1F1801E1EBD04F0E1E1802E1470E6F
:101180001F1801E1E1D0490E1E1802E1430E1F189D
:1011900001E1D7D0490E1E1802E1520E1F1801E1DD
:1011A000CDD0490E1E1802E1530E1F1801E1C3D025
:1011B000530E1E1802E1430E1F1801E1B9D0530E61
:1011C0001E1802E1520E1F1801E1AFD0530E1E1877
:1011D00002E1530E1F1801E1A5D0530E1E1802E1C3
:1011E000420E1F1801E19BD0430E1E1802E1420E71
:1011F0001F1801E191D0430E1E1802E1520E1F1874
:1012000001E187D04F0E1E1802E1420E1F1801E1C6
:101210007DD0570E1E1802E14D0E1F1875E0520EBC
:101220001E1802E14D0E1F186DE0440E1E1802E15B
:10123000500E1F1865E04F0E1E1802E1500E1F18C9
:101240005DE0490E1E1802E1500E1F1855E0580EC1
:101250001E1802E1540E1F184CE0540E1E1801E136
:101260001F5045E0410E1E1801E11F503EE0560E92
:101270001E1801E11F5037E0490E1E1801E11F50F2
:1012800030E04F0E1E1801E11F5029E0550E1E18C8
:1012900002E1430E1F1821E0580E1E1802E1430E12
:1012A0001F1818E0430E1E1801E11F5011E0520EE6
:1012B0001E1801E11F500AE0580E1E1802E1520EDE
:1012C0001F1801E04AD0F2EC0DF086D0BCD884D0D3
:1012D0003FD982D0F4EC0DF07FD0B9D87DD095D92C
:1012E0007BD0C6D979D0DFD977D0EED975D0EFD8F9
:1012F00073D0F0EC0DF070D05ADB6ED0D8DB6CD030
:10130000BADA6AD077DA68D040DA66D0E2EC0EF06A
:1013100063D0F6EC0DF060D09BEC0EF05DD029ECC4
:1013200010F05AD0E5EC10F057D0E8EC10F054D0A3
:10133000EBEC10F051D0EEEC10F04ED0F1EC10F0E0
:101340004BD0F4EC10F048D0F7EC10F045D005ECA1
:1013500011F042D00AEC11F03FD0030EDB501AE13D
:10136000020EDBCFE6FFE66A020EDBCFE6FFE66A9F
:10137000A70E2A6E490E2B6E2C6A2AC0E6FF2BC0E0
:10138000E6FF2CC0E6FF60EC26F02D6E070EE15E56
:101390002D5021D0030EDBCFE6FFE66A020EDBCF35
:1013A000E6FFE66A030EDBCFE6FFE66A020EDBCF5E
:1013B000E6FFE66A7F0E2A6E490E2B6E2C6A2AC063
:1013C000E6FF2BC0E6FF2CC0E6FF60EC26F02D6E9A
:1013D0000B0EE15E2D5000D000016851EA6A400F0B
:1013E000E96E020EEA22EF500D080DE00D500BE100
:1013F000520E2A6E2B6ADF502A1803E1DE52DD50AE
:101400002B1801E00D8E67C068F0040EE15C02E26B
:10141000E16AE552E16EE552E7CFD9FF1200000123
:101420006D5110E0460E2A6E4F0E2B6E2C6A2AC0AC
:10143000E6FF2BC0E6FF2CC0E6FF60EC26F0E5528D
:10144000E552E5521200D5EC05F0E9DF1200D9CFE4
:10145000E6FFE1CFD9FF030EE126010EE66E0FECA9
:1014600011F0E5521D50DF6E020EE66E0FEC11F02A
:10147000E552DE521DC0DEFF1EC0DDFFDD520D5005
:1014800001E01BD0DF0418E1D950010FE96EDACF7B
:10149000EAFFEE50ED100BE0010E2A6E2B6A010EF2
:1014A000DB502A1803E1020EDB502B1804E1010E79
:1014B000DBCF6DF001D00D8CB2DF030EE15C02E2F8
:1014C000E16AE552E16EE552E7CFD9FF1200D9CFCC
:1014D000E6FFE1CFD9FF030EE126020EDB6A030E21
:1014E000E66E0FEC11F0E5521DC000F01EC001F0D9
:1014F000010EE66E0FEC11F0E552020E1DC0DBFF8F
:101500000D5001E01BD0020EDB500CE10050011029
:1015100003E1026A036A05D0CA8400C002F001C078
:1015200003F00BD00050011003E1076A086A05D0F0
:10153000CA8400C007F001C008F071DF030EE15C4F
:1015400002E2E16AE552E16EE552E7CFD9FF12000F
:10155000D9CFE6FFE1CFD9FF040EE126010EE66EFA
:101560000FEC11F0E5521D50DF6E010EE66E0FEC30
:1015700011F0E552010E1DC0DBFF010EE66E0FEC0F
:1015800011F0E552020E1DC0DBFF010EE66E0FECFE
:1015900011F0E552030E1DC0DBFF0D5001E02BD012
:1015A000DF50926E010EDB50936E020EDB50946E94
:1015B000030EDB500C0805E20C0EF36E030EF3CFA6
:1015C000DBFF030EDB5005E10F0EC16EC2900C6A0B
:1015D00011D00C6AC26A030EDBCFE6FF0F0EE55294
:1015E000D880E754C16EBE0EC06EC280030EDB50C1
:1015F0000C6ECA8414DF040EE15C02E2E16AE5527B
:10160000E16EE552E7CFD9FF1200D9CFE6FFE1CF77
:10161000D9FF030EE126010EE66E0FEC11F0E55244
:101620001D50DF6E010EE66E0FEC11F0E552010E5B
:101630001DC0DBFF010EE66E0FEC11F0E552020E4D
:101640001DC0DBFF0D5001E009D0DF50896E010E97
:10165000DB508A6E020EDB508B6EE1DE030EE15C26
:1016600002E2E16AE552E16EE552E7CFD9FF1200EE
:101670008250E66EE66A8150E66EE66A8050E66E5B
:10168000E66A6C0E2A6E490E2B6E2C6A2AC0E6FFA3
:101690002BC0E6FF2CC0E6FF60EC26F02D6E090E95
:1016A000E15E2D5012004E0E2A6E4F0E2B6E2C6AEC
:1016B0002AC0E6FF2BC0E6FF2CC0E6FF60EC26F058
:1016C000E552E552E5521200D9CFE6FFE1CFD9FF4E
:1016D000E652DF6A6A0E2A6E490E2B6E2C6A2AC009
:1016E000E6FF2BC0E6FF2CC0E6FF60EC26F0E552DB
:1016F000E552E552DF6A0C50DF5C32E2DFCF2AF0C0
:101700002B6A2ABE2B68060E2B02F3CF2BF0060E97
:101710002A02F3CF2AF0F4502B26000E2A26010EBF
:101720002B220A50020D2A50F324E96E2B50F4208C
:10173000EA6EEECFE6FFEFCFE6FF640E2C6E490EA9
:101740002D6E2E6A2CC0E6FF2DC0E6FF2EC0E6FFF0
:1017500060EC26F02F6E050EE15E2F50DF2ACBD70E
:101760004B0E2A6E4F0E2B6E2C6A2AC0E6FF2BC042
:10177000E6FF2CC0E6FF60EC26F0E552E552E552AC
:10178000E552E552E7CFD9FF1200D9CFE6FFE1CF0E
:10179000D9FF030EE126030EE66E0FEC11F0E552C1
:1017A0001DC0DEFF1EC0DDFF010EE66E0FEC11F066
:1017B000E552020E1DC0DBFF0D5001E011D0DECF5F
:1017C0002AF0DDCF2BF0000E2A5C100E2B5807E21A
:1017D000DECFE9FFDDCFEAFF020EDBCFEFFF1FDE3A
:1017E000030EE15C02E2E16AE552E16EE552E7CF09
:1017F000D9FF1200D9CFE6FFE1CFD9FF030EE126D2
:10180000030EE66E0FEC11F0E5521DC0DEFF1EC0A8
:10181000DDFF0D5001E025D0DECF2AF0DDCF2BF02B
:10182000000E2A5C100E2B5807E2DECFE9FFDDCF59
:10183000EAFF020EEFCFDBFF020EDBCFE6FFE66A28
:101840005A0E2A6E490E2B6E2C6A2AC0E6FF2BC058
:10185000E6FF2CC0E6FF60EC26F02D6E050EE15E83
:101860002D50030EE15C02E2E16AE552E16EE552C1
:10187000E7CFD9FF1200D9CFE6FFE1CFD9FF030EA2
:10188000E126050EE66E0FEC11F0E5521D50DF6EFD
:10189000010EE66E0FEC11F0E552010E1DC0DBFFEC
:1018A000010EE66E0FEC11F0E552020E1DC0DBFFDB
:1018B0000D5001E072D0020EDB50010802E20D8CE7
:1018C0006CD0010EDB50070802E20D8C66D0410E91
:1018D0002A6EDF502A5C1CE1020EDB500DE1010E86
:1018E000F36E010EDB5004E0D890F336E806FCE11D
:1018F000F350E81C92160BD0010EF36E010EDB5074
:1019000004E0D890F336E806FCE1F350921244D09C
:10191000420E2A6EDF502A5C1CE1020EDB500DE104
:10192000010EF36E010EDB5004E0D890F336E806AA
:10193000FCE1F350E81C93160BD0010EF36E010E80
:10194000DB5004E0D890F336E806FCE1F350931244
:1019500023D0430E2A6EDF502A5C1CE1020EDB50BE
:101960000DE1010EF36E010EDB5004E0D890F3366A
:10197000E806FCE1F350E81C94160BD0010EF36E60
:10198000010EDB5004E0D890F336E806FCE1F3509A
:10199000941202D00D8C01D042DD030EE15C02E214
:1019A000E16AE552E16EE552E7CFD9FF1200D9CFE7
:1019B000E6FFE1CFD9FF030EE126020EDB6A050E3A
:1019C000E66E0FEC11F0E5521D50DF6E010EE66E73
:1019D0000FEC11F0E552010E1DC0DBFF0D5001E0D0
:1019E0005CD0010EDB50070802E20D8C56D0410E90
:1019F0002A6EDF502A5C10E1010EF36E010EDB50FF
:101A000004E0D890F336E806FCE1F3508014E76E6A
:101A1000020EE7CFDBFF2CD0420E2A6EDF502A5C8D
:101A200010E1010EF36E010EDB5004E0D890F336A6
:101A3000E806FCE1F3508114E76E020EE7CFDBFF0E
:101A400017D0430E2A6EDF502A5C10E1010EF36EB0
:101A5000010EDB5004E0D890F336E806FCE1F350C9
:101A60008214E76E020EE7CFDBFF02D00D8C15D09B
:101A7000020EDBCFE6FFE66A510E2A6E490E2B6E90
:101A80002C6A2AC0E6FF2BC0E6FF2CC0E6FF60EC04
:101A900026F02D6E050EE15E2D50030EE15C02E294
:101AA000E16AE552E16EE552E7CFD9FF1200D9CFE6
:101AB000E6FFE1CFD9FF030EE126050EE66EAFDBB0
:101AC000E5521D50DF6E010EE66EA9DBE552010EF8
:101AD0001DC0DBFF010EE66EA2DBE552020E1DC04B
:101AE000DBFF0D5001E072D0020EDB50010802E274
:101AF0000D8C6CD0010EDB50070802E20D8C66D015
:101B0000410E2A6EDF502A5C1CE1020EDB500DE113
:101B1000010EF36E010EDB5004E0D890F336E806B8
:101B2000FCE1F350E81C89160BD0010EF36E010E98
:101B3000DB5004E0D890F336E806FCE1F35089125C
:101B400044D0420E2A6EDF502A5C1CE1020EDB50AC
:101B50000DE1010EF36E010EDB5004E0D890F33678
:101B6000E806FCE1F350E81C8A160BD0010EF36E78
:101B7000010EDB5004E0D890F336E806FCE1F350A8
:101B80008A1223D0430E2A6EDF502A5C1CE1020E1B
:101B9000DB500DE1010EF36E010EDB5004E0D89036
:101BA000F336E806FCE1F350E81C8B160BD0010E6F
:101BB000F36E010EDB5004E0D890F336E806FCE14A
:101BC000F3508B1202D00D8C01D029DC030EE15CA6
:101BD00002E2E16AE552E16EE552E7CFD9FF120079
:101BE0001EDC12001CDC12001ADC1200D9CFE6FF4A
:101BF000E1CFD9FF040EE126050EE66E10DBE552BB
:101C00001D50DF6E010EE66E0ADBE552010E1DC0AF
:101C1000DBFF030EE66E03DBE552020E1DC0DBFFA9
:101C2000030E1EC0DBFF0D5001E07BD0D950020F28
:101C3000E96EDACFEAFF720ED880EE542E0EED5424
:101C400002E20D8C6ED0D950020FE96EDACFEAFFB6
:101C5000EE50ED101FE02D682E682F6A2D0EE76EF6
:101C6000020EDBCF30F0030EDBCF31F0E750302631
:101C7000000E3122326A30502D5C2A6E31502E58BF
:101C80002B6E32502F582C6E020E2AC0DBFF030E33
:101C90002BC0DBFF010EDB50070802E20D8C41D0A8
:101CA000410E2A6EDF502A5C02E1DF6A12D0420E3A
:101CB0002A6EDF502A5C03E1080EDF6E0AD0430E65
:101CC0002A6EDF502A5C03E1100EDF6E02D00D8C0D
:101CD00028D0010EDB50DF24E96EEA6AD890E9369D
:101CE000EA36690EE926010EEA22020EDBCFEEFF8C
:101CF000030EDBCFEDFF010EDB50DF24EA6A510F4C
:101D0000E96E010EEA22EF040AE1010EDB50DF2446
:101D1000EA6A510FE96E010EEA22020EEF6E0FEC35
:101D20000AF0040EE15C02E2E16AE552E16EE5527E
:101D3000E7CFD9FF1200D9CFE6FFE1CFD9FF050EDB
:101D4000E126010EE66E6BDAE5521D50DF6E010EE4
:101D5000E66E65DAE552020E1DC0DBFF010EE66E8F
:101D60005EDAE552030E1DC0DBFF010EE66E57DAA8
:101D7000E552010E1DC0DBFF010EE66E50DAE552A2
:101D8000040E1DC0DBFF0D5001E012D0DFCF60F06C
:101D9000020EDBCF62F0010EDBCF61F0030EDBCF72
:101DA00063F0040EDBCF64F060C089FF0FEC0AF033
:101DB000050EE15C02E2E16AE552E16EE552E7CF31
:101DC000D9FF1200D9CFE6FFE1CFD9FF040EE126FB
:101DD000030EDB6A00016851EA6A400FE96E020EE9
:101DE000EA22EF502C081DE000016851EA6A400F1A
:101DF000E96E020EEA22EF50E66EE66A2A0E2A6EBD
:101E0000490E2B6E2C6A2AC0E6FF2BC0E6FF2CC0C1
:101E1000E6FF60EC26F02D6E050EE15E2D500D8A7A
:101E20000ED10001682B400E0001685D02E1000147
:101E3000686B60C089FF0001611D89142A6E891CCE
:101E4000000161152A10E76E010EE7CFDBFF0001EC
:101E50006851EA6A400FE96E020EEA22EF500D085F
:101E600001E1EBD000016851EA6A400FE96E020E11
:101E7000EA22EF50E66EE66A59EC27F0E552E552A9
:101E8000020EF3CFDBFF300EF36E020EDBCFF4FF5A
:101E9000F350F45C0FE3020EDB5039080BE3300E15
:101EA0002A6E020EDBCFE7FF2A50E75E020EE7CF75
:101EB000DBFF19D0410EF36E020EDBCFF4FFF350BF
:101EC000F45C0FE3020EDB5046080BE3370E2A6E7C
:101ED000020EDBCFE7FF2A50E75E020EE7CFDBFF03
:101EE00002D00D8CACD0020EDB38F00BDF6E00019F
:101EF000682B400E0001685D02E10001686B0D0E69
:101F00002A6E00016851EA6A400FE96E020EEA2269
:101F1000EF502A5C02E10D8892D000016851EA6A14
:101F2000400FE96E020EEA22EF50E66EE66A59ECC7
:101F300027F0E552E552020EF3CFDBFF300EF36ED1
:101F4000020EDBCFF4FFF350F45C0FE3020EDB5024
:101F500039080BE3300E2A6E020EDBCFE7FF2A5062
:101F6000E75E020EE7CFDBFF19D0410EF36E020EE3
:101F7000DBCFF4FFF350F45C0FE3020EDB504608B6
:101F80000BE3370E2A6E020EDBCFE7FF2A50E75E27
:101F9000020EE7CFDBFF02D00D8C51D0020EDB50DA
:101FA000DF24DF6E0001682B400E0001685D02E156
:101FB0000001686BDF508A6E010EDB50896E0001F4
:101FC000645105E064C0E6FF07EC28F0E55260C00C
:101FD00089FF0001635130E0030E63C0DBFF0001A5
:101FE0006051000162152A6E0001625180142A5C62
:101FF0000BE1030EDB5008E00000000000000000D1
:102000000000030EDB06EBD7030E63C0DBFF00010D
:102010006051000162152A6E0001625180142A5C31
:102020000BE0030EDB5008E00000000000000000A1
:102030000000030EDB06EBD70AD70FEC0AF0040E04
:10204000E15C02E2E16AE552E16EE552E7CFD9FFD9
:102050001200D9CFE6FFE1CFD9FF050EE126030E2E
:10206000DB6A040EDB6A010EE66ED9D8E552040E77
:102070001DC0DBFF040EDB5004E0040EDB5038080B
:1020800002E20D8C98D000016851EA6A400FE96EB7
:10209000020EEA22EF502C081DE000016851EA6AA6
:1020A000400FE96E020EEA22EF50E66EE66A2A0E53
:1020B0002A6E490E2B6E2C6A2AC0E6FF2BC0E6FF63
:1020C0002CC0E6FF60EC26F02D6E050EE15E2D5073
:1020D0000D8A71D00001682B400E0001685D02E19D
:1020E0000001686B60C089FF0001611D89142A6EC0
:1020F000891C000161152A10E76E010EE7CFDBFF96
:10210000040EDB5056E000016851EA6A400FE96EA8
:10211000020EEA22EFCFDFFF0001682B400E000124
:10212000685D02E10001686B040EDB06DF508A6E19
:10213000010EDB50896E0001645105E064C0E6FFCA
:1021400007EC28F0E55260C089FF0001635130E0E0
:10215000030E63C0DBFF00016051000162152A6EAF
:102160000001625180142A5C0BE1030EDB5008E091
:1021700000000000000000000000030EDB06EBD7AB
:10218000030E63C0DBFF00016051000162152A6E7F
:102190000001625180142A5C0BE0030EDB5008E062
:1021A00000000000000000000000030EDB06EBD77B
:1021B000A7D70FEC0AF0050EE15C02E2E16AE552F6
:1021C000E16EE552E7CFD9FF12000FEC0AF01200E2
:1021D0000FEC0AF012000FEC0AF012000FEC0AF0FC
:1021E00012000FEC0AF012000FEC0AF012000001CE
:1021F000010EEB6F0001706B716B00016E6B6F6B0A
:10220000CA840A0E026E036A12000001EB6B000121
:10221000EC6B12000001010EEC6FE9DF1200D9CF68
:10222000E6FFE1CFD9FF040EE126030EDB6A0D0EB7
:102230002A6E00016851EA6A400FE96E020EEA2236
:10224000EF502A5C05E10D881D6A1E6A1F6A93D152
:1022500000016851EA6A400FE96E020EEA22EF506F
:102260002C0820E000016851EA6A400FE96E020E76
:10227000EA22EF50E66EE66A2A0E2A6E490E2B6EAF
:102280002C6A2AC0E6FF2BC0E6FF2CC0E6FF60ECFC
:1022900026F02D6E050EE15E2D500D8A1D6A1E6A18
:1022A0001F6A69D10001682B400E0001685D02E1E0
:1022B0000001686B2D0E2A6E00016851EA6A400F1A
:1022C000E96E020EEA22EF502A5C28E1040E2B6E22
:1022D000FE0EDB502B5C22E0050E2C6EFE0EDB505A
:1022E0002C5C1CE0FE0EDB0406E0030E2A6EFE0EE4
:1022F000DB502A5C06E10D8C1D6A1E6A1F6A3BD109
:102300000DD0010EF36E030EF3CFDBFF0001682B3F
:10231000400E0001685D02E10001686B040E2A6E48
:10232000FE0EDB502A5C11E0050E2B6EFE0EDB501C
:102330002B5C0BE0050EE66ED9CFE6FFDACFE6FFA9
:1023400024D9E552E552E5523AD000016851EA6AD3
:10235000400FE96E020EEA22EFCF2AF02B6A2C6AB8
:102360002AC0DFFF010E2BC0DBFF020E2CC0DBFFFB
:10237000050E2A6EFE0EDB502A5C19E1000EDBCF43
:10238000E6FF010EDBCFE6FF59EC27F0E552E55200
:10239000F3CF2AF0F4CF2BF02C6A2BBE2C682AC086
:1023A000DFFF010E2BC0DBFF020E2CC0DBFF0001A4
:1023B000682B400E0001685D02E10001686B030EAE
:1023C000DB5021E0DFCF2AF0010EDBCF2BF0020E35
:1023D000DBCF2CF02268236824682AC01DF02BC0B4
:1023E0001EF02CC01FF034EC25F01AC02AF01BC0E0
:1023F0002BF01CC02CF02AC0DFFF010E2BC0DBFF2E
:10240000020E2CC0DBFFFE0EDB5026E1DFCF2AF0F0
:10241000010EDBCF2BF0020EDBCF2CF02C34000EA4
:102420002C1807E6D8807F0E2A54000E2B54000E7D
:102430002C5401E28CD0D9CFE9FFDACFEAFF020EAB
:10244000D880EB50FF0A06E6800EEE5CFF0EEE58D9
:10245000FF0EEF5801E27BD0FE0EDB0424E1DFCF5C
:102460002DF0010EDBCF2EF0020EDBCF2FF02F343C
:10247000000E2F1807E6D880FF0E2D54000E2E54A4
:10248000000E2F5464E3D9CFE9FFDACFEAFF020E42
:10249000D890EB50000A06E6000EEE5C000EEE58F7
:1024A000000EEF5854E3020E306EFE0EDB50305C2F
:1024B00024E1DFCF31F0010EDBCF32F0020EDBCFB3
:1024C00033F03334000E331807E6D880FF0E315452
:1024D0007F0E3254000E33543AE3D9CFE9FFDACFFE
:1024E000EAFF020ED880EB50FF0A06E6000EEE5C13
:1024F000800EEE58FF0EEF582AE3030E346EFE0EE8
:10250000DB50345C29E1DFCF35F0010EDBCF36F054
:10251000020EDBCF37F03734000E371807E6D880CD
:10252000FF0E3554FF0E3654000E375410E3D9CF4A
:10253000E9FFDACFEAFF020ED890EB50000A06E678
:10254000000EEE5C000EEE58000EEF5805E20D8C0A
:102550001D6A1E6A1F6A0FD0DFCF2AF0010EDBCF83
:102560002BF0020EDBCF2CF02AC01DF02BC01EF08A
:102570002CC01FF000D0040EE15C02E2E16AE552DB
:10258000E16EE552E7CFD9FF1200D9CFE6FFE1CFE8
:10259000D9FF020EE126FD0EDBCFE9FFFE0EDBCFF9
:1025A000EAFFEE6AEE6AEE6A010EDB6AFC0EDB50B1
:1025B000F36E010EDBCFF4FFF350F45C55E2000143
:1025C0006851EA6A400FE96E020EEA22EFCFDFFFA0
:1025D000300EDF5C44E3DF50390841E3FD0EDBCF12
:1025E000E9FFFE0EDBCFEAFFEECF2DF0EECF2EF0AF
:1025F000EFCF2FF00A0E226E236A246A2DC01DF041
:102600002EC01EF02FC01FF034EC25F01AC02DF0A4
:102610001BC02EF01CC02FF0300EDF5C306E316A14
:10262000326A2D5030242A6E2E5031202B6E2F50BE
:1026300032202C6EFD0EDBCFE9FFFE0EDBCFEAFF72
:102640002AC0EEFF2BC0EEFF2CC0EEFF0001682B6E
:10265000400E0001685D02E10001686B02D0000ECF
:1026600005D0010EDB2AA2D7010E00D02A6E020E81
:10267000E15C02E2E16AE552E16E2A50E552E7CF01
:10268000D9FF12000650E66EE66A1E0E2A6E490E4B
:102690002B6E2C6A2AC0E6FF2BC0E6FF2CC0E6FF9B
:1026A00060EC26F02D6E050EE15E2D50120000014B
:1026B000F107000EF25B0001F3510EE10001F15150
:1026C000F21109E18B800001100EF16F270EF26FFD
:1026D0000001010EF36F33D00001F3050EE100019C
:1026E000F151F21109E18B900001100EF16F270EEC
:1026F000F26F0001020EF36F22D0020E0001F35DB3
:102700000EE10001F151F21109E18B800001A00EF0
:10271000F16F860EF26F0001030EF36F10D0030EFF
:102720000001F35D0CE30001F151F21108E18B901F
:102730000001100EF16F270EF26F0001F36B120013
:102740000101A35108E0010E2A6E6D50020B01E059
:10275000010E2A5C02E18B905DD00101A3050CE023
:10276000020E0101A35D08E0030E0101A35D04E078
:10277000050E0101A35D02E18B804CD0060E010124
:10278000A35D48E10001F407000EF55B0001F6517E
:102790000EE10001F451F51109E18B800001100EEA
:1027A000F46F270EF56F0001010EF66F33D00001B4
:1027B000F6050EE10001F451F51109E18B900001DD
:1027C000100EF46F270EF56F0001020EF66F22D087
:1027D000020E0001F65D0EE10001F451F51109E170
:1027E0008B800001A00EF46F860EF56F0001030EC2
:1027F000F66F10D0030E0001F65D0CE30001F451FA
:10280000F51108E18B900001100EF46F270EF56FA3
:102810000001F66B120082B403D0010E03D002D087
:10282000000E00D01200D9CFE6FFE1CFD9FF020E93
:10283000E1269284DE6ADD6ADECF2AF0DDCF2BF05E
:10284000D8902B5004E6080E2A5C000E2B5810E29C
:10285000010EDF5206E0DFCFF3FFE846FE0BF30682
:10286000FCE1E81C9316DF2A010E01E3DB2AE4D722
:1028700092969296020EE15C02E2E16AE552E16E06
:10288000E552E7CFD9FF1200D9CFE6FFE1CFD9FF5C
:10289000020EE12600017207000E735B745B755B2C
:1028A0000001725173117411751137E10001A00E0E
:1028B000726F860E736F010E746F756B0001EE07F9
:1028C000000EEF5B0001EE51EF1127E10001010E58
:1028D000EB6F0001010EED6F0001D16BD26BDE6A70
:1028E000DD6ADECF2AF0DDCF2BF0D8902B5004E646
:1028F0000A0E2A5C000E2B5810E2010EDF5206E091
:10290000DFCFF3FFE846FE0BF306FCE1E81C81167F
:10291000DF2A010E01E3DB2AE4D7020EE15C02E2CA
:10292000E16AE552E16EE552E7CFD9FF1200D9CF57
:10293000E6FFE1CFD9FF020EE12680B42CD0DE6A9B
:10294000DD6ADECF2AF0DDCF2BF0D8902B5004E6E5
:102950000A0E2A5C000E2B580FE2010EDF5206E031
:10296000DFCFF3FFE846FE0BF306FCE18112DF2A1E
:10297000010E01E3DB2AE5D70001010EED6F000136
:10298000A00E726F860E736F010E746F756B050E5D
:102990000001EE6FEF6B020EE15C02E2E16AE552CC
:1029A000E16EE552E7CFD9FF1200D9CFE6FFE1CFC4
:1029B000D9FF020EE126DE6ADD6ADECF2AF0DDCF26
:1029C0002BF02B3404E22A500408000E2B5426E38B
:1029D000DECFE9FFDDCFEAFFD890E936EA36950E83
:1029E000E926000EEA22020EEE6EED6A010EDF52BB
:1029F00006E0DFCFF3FFE846FE0BF306FCE12A6EAC
:102A00002B6A2ABE2B682A500001D1132B500001DB
:102A1000D213DF2A010E01E3DB2ACFD7020EE15CDD
:102A200002E2E16AE552E16EE552E7CFD9FF12001A
:102A3000D9CFE6FFE1CFD9FF020EE126050EDE6E0B
:102A4000DD6ADECF2AF0DDCF2BF02B3404E22A50F2
:102A50000908000E2B5426E3DECFE9FFDDCFEAFFA5
:102A6000D890E936EA36950EE926000EEA22020EE3
:102A7000EE6EED6A010EDF5206E0DFCFF3FFE846AF
:102A8000FE0BF306FCE12A6E2B6A2ABE2B682A5045
:102A90000001D1132B500001D213DF2A010E01E3F4
:102AA000DB2ACFD7020EE15C02E2E16AE552E16E79
:102AB000E552E7CFD9FF1200D9CFE6FFE1CFD9FF2A
:102AC000020EE126DE6ADD6ADECF2AF0DDCF2BF0D2
:102AD0002B3404E22A500408000E2B5426E3DECFE8
:102AE000E9FFDDCFEAFFD890E936EA36950EE92610
:102AF000000EEA22EE6AED6A010EDF5206E0DFCF39
:102B0000F3FFE846FE0BF306FCE1E81C2A6E2B6A95
:102B10002ABE2B682A500001D1172B500001D21772
:102B2000DF2A010E01E3DB2ACFD7020EE15C02E2CD
:102B3000E16AE552E16EE552E7CFD9FF1200D9CF45
:102B4000E6FFE1CFD9FF020EE126050EDE6EDD6A5B
:102B5000DECF2AF0DDCF2BF02B3404E22A50090817
:102B6000000E2B5426E3DECFE9FFDDCFEAFFD8903D
:102B7000E936EA36950EE926000EEA22EE6AED6A9B
:102B8000010EDF5206E0DFCFF3FFE846FE0BF3064F
:102B9000FCE1E81C2A6E2B6A2ABE2B682A50000131
:102BA000D1172B500001D217DF2A010E01E3DB2AD7
:102BB000CFD7020EE15C02E2E16AE552E16EE55236
:102BC000E7CFD9FF1200580E00018D1906E1020E61
:102BD0008E1903E18F5101E1905104E10001EB6B8B
:102BE00081800FD0580E0001911906E1020E921952
:102BF00003E1935101E1945104E10001EB6B818207
:102C000017DF1200D9CFE6FFE1CFD9FF020EE12690
:102C1000DECF2AF0DDCF2BF0D8902B5004E6080E43
:102C20002A5C000E2B5831E2010EDF5206E0DFCFA6
:102C3000F3FFE846FE0BF306FCE12C6E2D6A2CBE7A
:102C40002D6800010001D1512C142A6E00010001F1
:102C5000D2512D142B6E2A502B100BE0010EDF5297
:102C600006E0DFCFF3FFE846FE0BF306FCE181123E
:102C70000BD0010EDF5206E0DFCFF3FFE846FE0B7C
:102C8000F306FCE1E81C81164CD0DECF2AF0DDCF44
:102C90002BF0D8902B5004E6080E2A5C000E2B581F
:102CA00040E3010EDF5206E0DFCFF3FFE846FE0B04
:102CB000F306FCE12C6E2D6A2CBE2D68000100018C
:102CC000D1512C142A6E00010001D2512D142B6E0B
:102CD0002A502B1013E0DECF2AF0DDCF2BF0050EAB
:102CE0002A5E000E2B5A010E2AC0E7FFE75204E0CD
:102CF000E846FE0BE706FCE1801213D0DECF2AF097
:102D0000DDCF2BF0050E2A5E000E2B5A010E2AC0D5
:102D1000E7FFE75204E0E846FE0BE706FCE1E81CAB
:102D20008016020EE15C02E2E16AE552E16EE552D4
:102D3000E7CFD9FF1200D9CFE6FFE1CFD9FF020ECE
:102D4000E126DE6ADD6ADECF2AF0DDCF2BF0D890F7
:102D50002B5004E60A0E2A5C000E2B5801E305D125
:102D6000DECFE9FFDDCFEAFFD890E936EA36950EEF
:102D7000E926000EEA22040EEE1801E1ED5014E1FE
:102D8000010EDF5206E0DFCFF3FFE846FE0BF3064D
:102D9000FCE12A6E2B6A2ABE2B682A500001D1134F
:102DA0002B500001D213DCD0DECFE9FFDDCFEAFFEC
:102DB000D890E936EA36950EE926000EEA22EECFE3
:102DC0002AF0EFCF2BF0040E2A5C000E2B5801E303
:102DD000A4D0DECFE9FFDDCFEAFFD890E936EA36AE
:102DE000950EE926000EEA22000ED880EE54000E61
:102DF000ED5401E392D0DECFE9FFDDCFEAFFD890BA
:102E0000E936EA36950EE926000EEA22EECF2AF0E0
:102E1000EFCF2BF02C6A2D6ADECFE9FFDDCFEAFF82
:102E2000D890E936EA36D890E936EA36A90EE9268E
:102E3000000EEA222A50EE5E2B50EE5A2C50EE5A2B
:102E40002D50EE5ADECFE9FFDDCFEAFFD890E9360C
:102E5000EA36D890E936EA36A90EE926000EEA22CB
:102E6000EECF2AF0EECF2BF0EECF2CF0EFCF2DF0FF
:102E70002A502B102C102D104FE1DECFE9FFDDCFB3
:102E8000EAFFD890E936EA36D890E936EA36A90E54
:102E9000E926000EEA2272C0EEFF73C0EEFF74C096
:102EA000EEFF75C0EEFF010EDF5206E0DFCFF3FF4D
:102EB000E846FE0BF306FCE1E81C2C6E2D6A2CBEE6
:102EC0002D6800010001D1512C142A6E000100016F
:102ED000D2512D142B6ED1C030F0D2C031F0301E43
:102EE000311E010EDF5206E0DFCFF3FFE846FE0B96
:102EF000F306FCE1326E336A32BE3368305032146E
:102F00002E6E315033142F6E2A502E100001D16FC7
:102F10002B502F100001D26F23D0DECFE9FFDDCF81
:102F2000EAFFD890E936EA36950EE926000EEA2245
:102F3000EE50ED1015E1010EDF5206E0DFCFF3FF9A
:102F4000E846FE0BF306FCE1E81C2A6E2B6A2ABE5B
:102F50002B682A500001D1172B500001D21700D046
:102F6000DF2A010E01E3DB2AEED6020EE15C02E26B
:102F7000E16AE552E16EE552E7CFD9FF1200D9CF01
:102F8000E6FFE1CFD9FF040EE1260001EB5101E19C
:102F9000D2D070C0DEFF71C0DDFF020E6EC0DBFF5D
:102FA000030E6FC0DBFF0001F7510FE092809282A9
:102FB000010E801400017B6F7C6B020E80140001F7
:102FC0007D6F7E6B0001F76BB6D00001EC5159E0CC
:102FD000DECF2AF0DDCF2BF0140E236E246A2AC038
:102FE0001EF02BC01FF0C2EC27F01AC02AF01BC045
:102FF0002BF02A502B1014E1DECF2CF0DDCF2DF07A
:10300000000185512C1802E186512D1809E0010EAE
:1030100000017F6F806BDECF85F0DDCF86F003D0BF
:1030200000017F6B806BDECF2AF0DDCF2BF0140E1A
:10303000236E246A2AC01EF02BC01FF0C2EC27F0BA
:103040001AC02AF01BC02BF00A0E2A1801E12B50DF
:1030500014E1DECF2CF0DDCF2DF0000187512C18CC
:1030600002E188512D1809E0010E0001816F826B89
:10307000DECF87F0DDCF88F003D00001816B826B5B
:1030800046D07BC077F07CC078F07DC079F07EC000
:103090007AF0010E801400017B6F7C6B020E8014AD
:1030A00000017D6F7E6B000100017B5100017719EB
:1030B0002A6E000100017C51000178192B6E7BC043
:1030C0002CF07CC02DF02C1E2D1E2A502C1400013B
:1030D0007F6F2B502D140001806F000100017D5186
:1030E000000179192A6E000100017E5100017A1950
:1030F0002B6E7DC02CF07EC02DF02C1E2D1E2A5074
:103100002C140001816F2B502D140001826F0001DF
:103110007F51801106E000018D2B000E8E238F233E
:10312000902300018151821106E00001912B000ED5
:10313000922393239423040EE15C02E2E16AE552B8
:0A314000E16EE552E7CFD9FF12005F
:06314A00E1EC1DF0FB0E9C
:10315000DBCFF3FFDB06F35000090AE02FEC1EF093
:10316000FA0E9AEC1EF0F3E12B1CF1E1010E01D0F6
:10317000000E10EF1EF0E1EC1DF03B0EE12402E327
:10318000E168E652E16E010EDB6A020EDB6AF90EBF
:10319000DBCFF6FFFA0EDBCFF7FFFB0EDBCFF8FF3E
:1031A0000800F550DF6EDF5002E134EF1DF0250E10
:1031B000DF5C02E027EF1DF0030EDB6A040EDB6A22
:1031C000050EDB6A060EDB6A070EDB6A49EC1DF0B2
:1031D0002D0EDF5C0CE02B0EDF5C09E0200EDF5CC7
:1031E00006E0230EDF5C03E0300EDF5C1AE1DF5007
:1031F000300A14E0130A0FE0030A0AE00B0A05E0A4
:10320000060AE4E1030EDB80E1D7030EDB82DED7A2
:10321000030EDB84DBD7030EDB86D8D7030EDB88F7
:10322000D5D72A0EDF5C1BE145EC1DF093EC1DF0B9
:1032300010E0030EDB801E681F68130EDBCF23F047
:10324000140EDBCF24F07DEC25F0040E1CC0DBFF58
:1032500003D0130E7CEC1DF049EC1DF00BD0090ED1
:10326000DB6AEAEC1DF003E05EEC1EF0FAD7090E13
:103270007CEC1DF0030EDBB0DB982E0EDF5C1BE157
:1032800049EC1DF02A0EDF5C0BE145EC1DF093ECE0
:103290001DF003E1130ECEEC1DF049EC1DF00BD038
:1032A000090EDB6AEAEC1DF003E05EEC1EF0FAD7D3
:1032B000090ECEEC1DF0680EDF5C07E149EC1DF055
:1032C000680EDF5C1DE1030E18D0740EDF5C17E0A2
:1032D0007A0EDF5C14E0480EDF5C06E0540EDF5C23
:1032E00003E05A0EDF5C02E1020E07D06C0EDF5CD9
:1032F00003E06A0EDF5C04E1010E21EC1EF0C9DB85
:10330000DF506E0A01E17FD31E0A01E192D1200A4B
:1033100001E18FD13F0A01E149D11A0A01E146D109
:103320000D0A01E143D1200A01E140D13A0A01E14D
:103330003DD1200A01E13AD1260A01E135D10D0A39
:1033400001E132D11A0A01E1D9D0200A4AE0300A5B
:103350001FE0460A0EE0250A01E083D3D950F90F99
:10336000E96EFF0EDA20EA6E010EEE5E000EEE5AF6
:10337000EE5A2FEC1EF0250EE66E95DB03E12B1CBA
:1033800001E169D32BEC1EF001E26BD3DB2A69D398
:10339000080EDB6A040EDB50010806E2040EDB04B3
:1033A000F3EC1DF0DB508BDB080EDB5009E0030E65
:1033B000DB50010B05E172DB01E04DD3080EDB6A47
:1033C00064DBEFCFDFFFA3EC1EF003E12B1C01E178
:1033D00042D32BEC1EF001E3DB2A60DB01E141D399
:1033E0003AD3070EDB5002080FE16FEC1EF0030E1C
:1033F00036EC1EF00E0EEECFDBFF0F0EEECFDBFF36
:10340000100EEECFDBFF20D0F70EDBCF2DF0F80E45
:10341000DBCF2EF0020E2D5E000E2E5AF70E2DC0C1
:10342000DBFFF80E2EC0DBFF2DC0E9FF2EC0EAFF48
:1034300026EC1EF02C6A0E0E2AC0DBFF0F0E2BC0EE
:10344000DBFF100E2CC0DBFF0E0EDBCFE6FF0F0EF6
:10345000DBCFE6FF100EDBCFE6FF34EC27F0E552C2
:10346000E552E552130E1DC0DBFF140E1EC0DBFF3C
:10347000060EDB5005E0130E6AEC1EF001E26ADB7B
:103480008EEC1EF002E2130E37DB51EC1EF006E06C
:10349000040E6AEC1EF002E2050E2EDB030EDBB01A
:1034A00005D0FCDA01E0D7D2080EDB6A090EDB6A30
:1034B0000E0EDBCFF6FF0F0EDBCFF7FF100EDBCFCC
:1034C000F8FF0800F550DF6EDF5014E094EC1EF0BA
:1034D00011E2A3EC1EF003E12B1C01E1BCD2BBDB2B
:1034E00001E3DB2A090EDB2AD9500E0FE96E000E2C
:1034F000CBDBE7D7D3DA01E1B4D2ADD2C6DA110E15
:10350000EECFDBFF120EEDCFDBFF110EDBCFE6FFC0
:10351000120EDBCFE6FF26EC27F0E552E552130E44
:10352000F3CFDBFF140EF4CFDBFF060EDB5004E01D
:10353000130ED0DB01E20EDB8EEC1EF002E2130E66
:10354000DBDAAFDB05E0040EC5DB02E2050ED4DA00
:10355000030EDBB005D0A2DA01E07DD2080EDB6AF3
:10356000090EDB6A110EDBCFE9FF120EDBCFEAFF9B
:10357000EFCFDFFFDF5014E0D7DB12E2E4DB03E143
:103580002B1C01E168D267DB01E3DB2A090EDB2A91
:10359000110EDB2ADBCFE9FF120EE8E3DB2AE6D7C8
:1035A0007DDA01E15ED257D2030EDB8E070EDB041B
:1035B00010E195DB040E5ADB0A0EEECFDBFF0B0E9B
:1035C000EECFDBFF0C0EEECFDBFF0D0EEECFDBFF01
:1035D0006CD0070EDB5003082CE1030EDBAE0DD0E0
:1035E000B2DA020E76DAEFCF2AF02B6A2C6A2D6A55
:1035F0002AAE39D02B682C6835D0F70EDBCF2BF0F4
:10360000F80EDBCF2CF0020E2B5E000E2C5AF70EBC
:103610002BC0DBFFF80E2CC0DBFF2BC0E9FF2CC05A
:10362000EAFFEFCF2AF00A0E2AC0DBFF0B0EDB6A9F
:1036300038D0070EDB50020809E1030EDBAE04D0E0
:1036400059DB2CAE10D00ED055DB0DD0030EDBAE07
:1036500012D079DA020E3DDAF9DA2C6A2D6A2BAE35
:1036600002D02C682D68E2DA0C0E2CC0DBFF0D0EA8
:103670002DC0DBFF1AD0F70EDBCF2CF0F80EDBCF1E
:103680002DF0020E2C5E000E2D5AF70E2CC0DBFF23
:10369000F80E2DC0DBFF2CC0E9FF2DC0EAFFD6DA03
:1036A000C5DA0C0EDB6A0D0EDB6A060EDB5005E197
:1036B000010EF36E050EF3CFDBFF150EDB6A160E5F
:1036C000DB6AD950370F2A6E000EDA202B6E390EC6
:1036D0002AC0DBFF3A0E2BC0DBFF380EDB6A080E78
:1036E000DB6A0A0EAEDADF50780A12E0200A10E038
:1036F000280A0CE0200A0AE03F0A06E00D0A02E070
:10370000200A08E1020E05D0080E03D0080EDF26BD
:10371000100E97DA030EDBBE02D0DB92DB94DB5097
:10372000800B24E08ADAD890030EEB50000A08E6FA
:10373000000EEE5C000EEE58000EEE58000EEE5835
:1037400015E213DA2168226823682468EEEC26F07B
:103750000A0E18C0DBFF0B0E19C0DBFF0C0E1AC0DF
:10376000DBFF0D0E1BC0DBFF2D0E08D0030EDBA20E
:1037700002D02B0E03D0DBA408D0200EF36E170E60
:10378000F3CFDBFF150EDB2A02D0170EDB6A050E26
:10379000DB5003E1B7D901E189D0240E2A6E500E27
:1037A0002B6E000E2C6E070EDBCF2DF02E6A2F6ACB
:1037B000306A2DC021F02EC022F02FC023F030C07F
:1037C00024F0D3D97FEC27F02A501824F36E2B5025
:1037D0001920F46E2C501A20F86EF4CFF7FFF3CFB7
:1037E000F6FF0800090EF5CFDBFF580EDF5C0FE196
:1037F000610EF36E090E7BD90AE3200E2A6E090EC4
:10380000DBCFE7FF2A50E75E090EE7CFDBFF070EAD
:10381000DBCF2AF02B6A2C6A2D6A0FDA2AC021F03E
:103820002BC022F02CC023F02DC024F0EECF1CF0D2
:10383000EECF1DF0EECF1EF0EFCF1FF07FEC27F0A4
:103840001FC0EDFF1EC0EDFF1DC0EDFF1CC0EFFF50
:10385000390EDBCFE9FFDB063A0EDBCFEAFF01E2F0
:10386000DB06090EDBCFEFFF150EDB2A4BD995E106
:10387000030EDBA61DD06F0EDF5C06E1C1D918E395
:10388000150EDB285BDA14D0780EDF5C09E0580EE9
:10389000DF5C06E0620EDF5C03E0420EDF5C08E105
:1038A000020EF36E160EF3CFDBFF02D0150EDB6AAD
:1038B000030EDB50100B0EE0040EDBCF2AF0050EDA
:1038C000DB50D8802A5406E2060EDB5003E1040EDA
:1038D000DB5034DA95D90AE2050EDBCFE7FF150E8F
:1038E000DB50E75E050EE7CFDBFF02D0050EDB6A9B
:1038F000040EDBCF2AF0160E45D9D8802A5414E2E4
:10390000160EDBCFE6FF150EDBCFE6FF040EDBCF96
:10391000E6FF050EDB50E552E75CE552D880E75440
:10392000E552D880E7545FD9030EDB50010B0BE161
:10393000080EDB5008E0B2D801E08DD0080EDB5055
:10394000BED8080EDB6A170EDB5007E088D9170EC9
:10395000F1D903E12B1C01E17ED0160EDB5016E0FD
:103960007ED9300EE66E9FD802E12B1C74E077D929
:10397000DFCFE6FFACEC26F0E552E552E552F4CF9E
:103980002BF00001F31C02E12B1C65E0050EDBCFE0
:103990002AF0160EDB50D8802A5409E2050EDBCF40
:1039A000E7FF160EDB50E75E050EE7CFDBFF300EBC
:1039B000E66E050ECBD94FE1390EDB2ADBCFE9FFEE
:1039C0003A0E01E3DB2ADBCFEAFF090EEFCFDBFF84
:1039D000DB500EE044D9090EADD902E12B1C3BE0CF
:1039E000390EDB2ADBCFE9FF3A0EEDE3DB2AEBD71A
:1039F00055D831E1160EDBCFE6FF080EC3D8E552ED
:103A0000E7245DD82ED0070EDB50030A1CE0010A24
:103A100014E0030A07E07BD9DBCFEEFF020EDBCF19
:103A2000EDFF1FD0F5D82F6A2DAE02D02E682F687B
:103A30002CD8BCD82FC0EEFF14D0EAD82DBE2E68EB
:103A400024D8B4D80ED063D9DBCFEFFF0AD07BD90E
:103A500005E12B1C03E1F368F46810D0FCD801E306
:103A6000DB2A79D9D0EF18F0010EDBCF2AF0020E55
:103A7000DBCF2BF02AC0F3FF2BC0F4FF3B0EE15C41
:103A800002E2E16AE552E16ECBD029D9020E36EFAF
:103A90001EF061D90800F550DF6E1200200EE66EB0
:103AA000080EA6EF1EF0ACEC26F0E552E552E5520A
:103AB000F3CF2AF0F4CF2BF00001F31C12002A6E92
:103AC0002B6AD950010F4DD92A50EE262B50ED22EA
:103AD00012002E5E000E2F5AF70E2EC0DBFFF80EDE
:103AE0002FC0DBFF2EC0E9FF2FC0EAFF1200DBCFA3
:103AF000F4FFF350F45C1200DB50E76E040EE7CFE6
:103B0000DBFF12000A0EDBCF2AF00B0EDBCF2BF00F
:103B10000C0EDBCF2CF00D0EDBCF2DF02A502B102E
:103B20002C102D101200130EEECFDBFF140EEDCF74
:103B3000DBFF130EDBCF2AF0140EDBCF2BF00001DE
:103B4000800E2B141200F70EDBCF2EF0F80EDBCF19
:103B50002FF01200050EDB50E66ED950130F01D97D
:103B6000E552E750EE6EED6A12000A0EDBCF1CF054
:103B70000B0EDBCF1DF00C0EDBCF1EF00D0EDBCFDE
:103B80001FF01200DBCFE6FF150EDBCFE6FF050EC0
:103B9000DB50E552E724E552E7241200DB50CED893
:103BA000010EF36E060EF3CFDBFF1200EE50EFCFE7
:103BB000EAFFE96E2CC0EEFF2DC0EEFF2EC0EEFF37
:103BC0001200D9CFE6FFDACFE6FFE1CFD9FFE2CF8F
:103BD000DAFF1200DFCFE6FFE66A6DEC27F0E55270
:103BE000E552F3501200E76E080EE7CFDBFF12003C
:103BF000EECF2AF0EECF2BF0EFCF2CF02D6A120093
:103C0000050EDBCF2AF0150EDB50D8802A541200A7
:103C1000010EDBCF2CF0020EDBCF2DF02E6A12004E
:103C2000E552E5CFDAFFE7CFD9FF12000A0E2AC02E
:103C3000DBFF0B0E2BC0DBFF1200D9500A0FB1EFD8
:103C40001EF0F36E070EF3CFDBFF1200EECF2AF06B
:103C5000EFCF2BF01200010EDB2A020E1200FC0E39
:103C6000DBCFE6FFFD0EDBCFE6FF12002A5E000E83
:103C70002B5AF70E2AC0DBFFF80E2BC0DBFF2AC041
:103C8000E9FF2BC0EAFF1200DA20EA6EEF2AEECF3E
:103C9000F6FF000EEF22EECFF7FFEF22EECFF8FF98
:103CA0001200040EDBCFE6FF130EDB50E552E75C9B
:103CB0009ADFDB5004DF060EDB501200090EDB50EA
:103CC0000A0DF350DF24D00FE76E090EE7CFDBFFBC
:103CD00049EF1DF0DB50F36E050E77EF1DF0F70E88
:103CE000DBCF2AF0F80EDBCF2BF01200DFCFE6FFA0
:103CF00053EF1DF028DF030EECDEF8EF1DF0A5EC0E
:103D000018F0E552E552E552E55200091200BDDE19
:103D1000EE50EFCFEAFFE96E010E1200130EDB50FA
:103D2000F36E040E77EF1DF0040EDB50F36E090EF8
:103D300077EF1DF0DBCFE6FF53EF1DF0E76E050ECA
:103D4000E7CFDBFF12008BDF76EF1EF0DBCFE6FF65
:103D500086DF7FEF1EF0D950F90FE96EFF0E44EFBA
:0C3D60001EF0E96E000EDA20EA6E120080
:043D6C0004012051DD
:103D70001F0B010801E060D004012051600BE842F4
:103D8000E842E842E842E842010801E055D0040177
:103D9000245104E00401240501E04ED00401215126
:103DA000230A48E0010A40E0030A30E0010A25E066
:103DB000240A22E0070A1FE0010A1CE0030A11E0BE
:103DC000010A01E038D00001030EF96F0001E30E93
:103DD000FA6F000EFB6F0101A4930001080EFE6F45
:103DE0002BD00001030EF96F0001E30EFC6F000EF3
:103DF000FD6F22D021D020D01FD00001030EF96F1B
:103E00000001DB0EFC6F000EFD6F16D00001030EEB
:103E1000F96F0001DB0EFA6F000EFB6F0101A49336
:103E20000001070EFE6F08D00001030EF96F22C4D7
:103E3000E2F002D001D000D012000001DB6BC20E14
:103E4000DC6F010EDD6FDE6B0001DF6B0001E06BEC
:103E50000001080EE16F0001D46B0001D36B1A0E54
:103E6000726E1E0E736E0401000E166F050E176F34
:103E70000401400E146F0401400E196F0401080E76
:103E80001A6F050E1B6F0401880E186F0401480E8F
:103E90001E6F050E1F6F0401400E1C6F1200D9CF5C
:103EA000E6FFE1CFD9FF0001D36B040118BF39D081
:103EB000FC0EDBCF2AF004011951D8802A5403E20A
:103EC000FC0E19C4DBFF0001D36BFC0EDB500001BC
:103ED000D35D1CE20001D351EA6A080FE96E050EBA
:103EE000EA22EF50E66E0001D351E76EFD0EDBCF04
:103EF000E9FFFE0EDBCFEAFFE750E926000EEA22DB
:103F0000E552E750EF6E0001D32BDFD70401400EDE
:103F1000196F400E040118170401187D880E040162
:103F200018130001D35100D0E552E7CFD9FF12009A
:103F3000D9CFE6FFE1CFD9FFE6520001D45101E02D
:103F400031D0DF6ADF2ADF502A6E2B6A2A5002E165
:103F5000010E2B1801E10BD0FD0EDBCFE9FFDB2AB0
:103F6000FE0EDBCFEAFF01E3DB2AEF50EBE1DF508F
:103F70002A6E2B6AD950FD0FE96EFF0EDA20EA6E29
:103F80002A50EE5E2B50ED5ADF06FD0EDBCFD5F04A
:103F9000FE0EDBCFD6F0DFCFD9F00001DA6B0001E7
:103FA000010ED46FE552E552E7CFD9FF1200D9CF09
:103FB000E6FFE1CFD9FFE6520001D45101E033D052
:103FC000DF6ADF2ADF502A6E2B6AFF0E2A1801E112
:103FD0002B5001E10CD0FD0EDBCFF6FFDB2AFE0EED
:103FE000DBCFF7FF01E3DB2A0800F550EAE1DF5001
:103FF0002A6E2B6AD950FD0FE96EFF0EDA20EA6EA9
:104000002A50EE5E2B50ED5ADF06FD0EDBCFD5F0C9
:10401000FE0EDBCFD6F0DFCFD9F00001010EDA6F54
:104020000001010ED46FE552E552E7CFD9FF12002F
:10403000D9CFE6FFE1CFD9FFE65204011CBF7DD006
:10404000030E0001D45D02E10001D46B0001D451E4
:1040500001E173D0020E0001D45D06E104011D6B85
:104060000001030ED46F61D00001D4055EE1400E63
:104070002A6E2B6A0001D9512A5C000E2B5803E2EC
:10408000400EDF6E02D0D9C0DFFFDFCF1DF4DF505E
:104090000001D95D0001D96F0001480ED76F050EF0
:1040A000D86F0001DA0518E1DF5015E0D5C0F6FF42
:1040B000D6C0F7FF0800F550D7C0E9FFD8C0EAFF27
:1040C000EF6E0001D72B000ED8230001D52B000E78
:1040D000D623DF06E9D716D0DF5014E0D5C0E9FFBC
:1040E000D6C0EAFFEF50D7C0E9FFD8C0EAFFEF6EB5
:1040F0000001D72B000ED8230001D52B000ED623AC
:10410000DF06EAD70001D95110E104011D512A6EE2
:104110002B6A400E2A1801E12B5004E10001020E27
:10412000D46F03D00001030ED46F400E04011C179E
:1041300004011C7D880E04011C13E552E552E7CFF3
:04414000D9FF120091
:0C4144006C5002E0000E01D0010E0009DA
:104150000BE0040100513C0BE842E8420D0802E18B
:104160000CD801D042D808D06C5002E0000E01D02B
:10417000010E040901E04BD81200D9CFE6FFE1CFD0
:10418000D9FFE6520001F86B0001F96B0001FE6BEC
:10419000FF6B3FEC22F0DF6ADF502A6E2B6A010EC4
:1041A0002A5C000E2B581BE20001F95101E017D0E8
:1041B000F76ADF34FE0BF736F66E1F0EF6264C0E4E
:1041C000F7220900F5CF2AF00800F5CF2BF004D034
:1041D0002BC0FAFF2A50F96EFBDFDF2ADDD7F0D8BB
:1041E000E552E552E7CFD9FF1200020E0001F85D5B
:1041F0000CE1A4D8040100BD04D00401C80E006F76
:1042000003D00401880E006F01D029D91200040EDA
:104210000101A35D0CE122C46EFF6E50000804E2B0
:104220000101050EA36F03D00101030EA36F00016E
:10423000F8050CE10DD8040104BD04D00401C80E3A
:10424000046F03D00401880E046F01D008D9120056
:10425000D9CFE6FFE1CFD9FF020EE1260001080E1B
:10426000FE5D000EFF5905E2FEC0DEFFFFC0DDFF70
:1042700003D0080EDE6EDD6A04010493040104918C
:10428000010EDB5004010413DFCF05F4000EDB50F8
:104290000001FE5F010EDB500001FF5B0001280EF4
:1042A000FC6F040EFD6F0101A4A320D0D9CFE9FF5C
:1042B000DACFEAFFEE50ED1018E0FAC0F6FFFBC0CF
:1042C000F7FF0800F550FCC0E9FFFDC0EAFFEF6E04
:1042D0000001FC2B000EFD230001FA2B000EFB2336
:1042E000DF06010E01E2DB06E1D71ED0D9CFE9FFE0
:1042F000DACFEAFFEE50ED1017E0FAC0E9FFFBC09D
:10430000EAFFEF50FCC0E9FFFDC0EAFFEF6E0001DD
:10431000FC2B000EFD230001FA2B000EFB23DF0611
:10432000010E01E2DB06E2D7020EE15C02E2E16A85
:10433000E552E16EE552E7CFD9FF1200D9CFE6FF93
:10434000E1CFD9FF020EE126030E04010015E76E4E
:10435000010EE7CFDBFF01C4DFFFDE500001FE27C7
:10436000DD500001FF230001280EFA6F040EFB6FE1
:10437000D9CFE9FFDACFEAFFEE50ED1017E0FAC02F
:10438000E9FFFBC0EAFFEF50FCC0E9FFFDC0EAFF18
:10439000EF6E0001FC2B000EFD230001FA2B000E36
:1043A000FB23DF06010E01E2DB06E2D7020EE15C31
:1043B00002E2E16AE552E16EE552E7CFD9FF120071
:1043C0006D980001F9510FE10401080E016F04011D
:1043D000200E026F040E036F0401840E006F0401AF
:1043E000840E046F3BD0040120AF25D00001FE51A4
:1043F0000401265D0001FF510401275904E226C48F
:10440000FEF027C4FFF024DF0001010EF86F040165
:10441000080E016F0401200E026F040E036F0401E9
:10442000800E006F0401280E066F040E076F040152
:10443000C80E046F13D00001020EF86F0401056B63
:104440000401C80E046F0401080E016F0401280E58
:10445000026F040E036F0401C80E006F120000010A
:10446000F86B0401080E016F0401200E026F040EA8
:0E447000036F0401880E006F0401046B12003C
:02447E00040137
:104480002051600BE842E842E842E842E842000975
:1044900001E058D004012151070A53E00B0A51E012
:1044A000070A42E0010A2CE00B0A28E0020A26E093
:1044B000030A22E0080A12E0010A0EE00F0A0AE0ED
:1044C000030A01E03ED00001010EF96F0101040E64
:1044D000A36F38D038D836D093D834D00001010E2D
:1044E000F96F0001A50EFA6F010EFB6F0101A49395
:1044F0000001010EFE6F26D0ABD824D0F9D822D00F
:104500000001010EF96F040124510001FA6FFB6BE9
:10451000A60E0001FA27010E0001FB230101A4935E
:104520000001010EFE6F0ED00001010EF96F0401B3
:104530002451EA6AA60FE96E010EEA2222C4EFFFB7
:1045400001D000D01200800E0401205D58E104016A
:104550002351030A34E0010A10E0030A01E04DD0C0
:104560000001010EF96F0001540EFA6F4B0EFB6F44
:10457000120E0001FE6FFF6B40D00001010EF96FBB
:1045800004012251F66EF76AD890F636F736150E0A
:10459000F6264C0EF7220900F5CFFAF00A00F5CF07
:1045A000FBF0020E0001F76AFA25F66EFB51F722C6
:1045B0000900F5CFFEF00A00F5CFFFF01ED0000194
:1045C000010EF96F04012251F66EF76AD890F636A3
:1045D000F736190EF6264C0EF7220900F5CFFAF041
:1045E0000A00F5CFFBF0FAC0F6FFFBC0F7FF0800AA
:1045F000F5500001FE6FFF6B00D00101A483120093
:104600000001010EF96F0F0EE66E710EE66E0F0ED1
:10461000E66E7AEC24F0E552E552E552010EE66EC4
:10462000A60EE66E010EE66E7AEC24F0E552E55237
:10463000E55222C4A5F10401225104E10101050E55
:10464000A36F05D00101060EA36F1DEC1FF0120031
:104650000401286B0401296B040120511F0B020A7D
:1046600014E0030A0EE0010A01E034D00001010E5B
:10467000F96F040128810101A4A102D0040128835B
:1046800029D00001010EF96F25D00001010EF96F4C
:10469000040124510F0B080DF3502B6A000F2A6EF2
:1046A000040E2B2204012451800B01E0010E040DA5
:1046B000F35000012A24FC6F000E2B20FD6FFCC07C
:1046C000E9FFFDC0EAFFEF50040B03E00401010E17
:1046D000286F00D00001F9050AE10001280EFA6FE9
:1046E000040EFB6F0101A4930001020EFE6F120085
:1046F0000401220511E1040120511F0B00090CE106
:104700000001010EF96F030E0401215D03E10101B7
:10471000A48102D00101A491040122513EE10401CF
:1047200020511F0B020839E1040124510F0B00092D
:1047300034E00001010EF96F040124510F0B080D44
:10474000F3502B6A000F2A6E040E2B220401245111
:10475000800B01E0010E040DF35000012A24FC6FD0
:10476000000E2B20FD6F030E0401215D07E1840E76
:10477000FCC0E9FFFDC0EAFFEF6E0FD0040124AFDB
:1047800006D0FCC0E9FFFDC0EAFFEF6A06D0880E44
:0C479000FCC0E9FFFDC0EAFFEF6E120064
:04479C006DA610D81E
:1047A00002D06DB614D80101A30509E16DBA07D096
:1047B000686A696A698069880101020EA36F120044
:1047C0006D6A696A6D860101010EA36F12006D6A40
:1047D000696A0101A36B1200FADF12000101A35103
:1047E00001E13AD06850040B04E06950040B01E089
:1047F0003CD86DB231D06850010B04E06950010B18
:1048000001E056D86850100B04E06950100B01E02D
:1048100024D86850400B04E06950400B01E03DD8BB
:104820006850200B04E06950200B01E038D8685034
:10483000020B04E06950020B01E038D8030E0101BD
:10484000A35D01E209D06850080B06E06950080B2F
:1048500003E0A2EC20F068961200698468986D82EB
:10486000A19AA08A0300A09A12006D92699468949C
:1048700012000101A4A110D0F8DF6D840101080E1F
:10488000A76F070EA86F0101A707000EA85B010123
:10489000A751A811F8E16D941200689C120070A055
:1048A00003D02FEC22F07090689A120068921200E8
:1048B0006A6A686A9F0E6B6E7B0E696E6E6A0F0E77
:1048C000E66E710EE66E0F0EE66E14D8E552E552F6
:1048D000E552160E706E68A602D06896FCD76D98E9
:1048E0002FEC22F00101A4910101A56B0101030E3F
:1048F000A36F1200D9CFE6FFE1CFD9FFFD0EDBCFCA
:10490000E9FFFE0EDBCFEAFFFC0EDB5004E0EE6AAF
:0E491000FC0EDB06F9D7E552E7CFD9FF120007
:02491E005374D0
:10492000617475733D25690D0A0021352045727249
:104930003A204E65656420636F6D6D61206E657809
:10494000742C20666F756E643A20272563270D0A44
:104950000050492C2531750D0A004D522C2530335D
:10496000750D0A002C25303475004100492C253086
:1049700033692C253033692C253033690D0A002129
:1049800038204572723A20556E6B6E6F776E2063D9
:104990006F6D6D616E642027256325633A2532585B
:1049A000253258270D0A002138204572723A2055C9
:1049B0006E6B6E6F776E20636F6D6D616E64202716
:1049C00025633A253258270D0A0021372045727297
:1049D0003A204578747261207061726D61746572FD
:1049E0000D0A002136204572723A20496E76616CBC
:1049F000696420706172616D7465722076616C7596
:104A0000650D0A002134204572723A204D69737396
:104A1000696E6720706172616D65746572287329B3
:104A20000D0A002133204572723A205258204275F7
:104A300066666572206F76657272756E0D0A00216A
:104A400032204572723A205458204275666665726B
:104A5000206F76657272756E0D0A002131200D0A85
:074A6000002130200D0A00C7
:084A68001FC029F01EC028F058
:104A70001DC027F01D502202F4CF1BF0F3CF1AF017
:104A80001E502302F4CF1DF0F3CF1CF02202F3508E
:104A90001B26F4501C22E86A1D2227502302F350E3
:104AA0001B26F4501C22E86A1D221F502202F350DC
:104AB0001C26F4501D221F5023021E6AE86A1E2283
:104AC000F3501D26F4501E2227502402F3501C26BA
:104AD000F4501D221F6AE86A1E221F222850240259
:104AE000F3501D26F4501E22E86A1F22295024028A
:104AF000F3501E26F4501F22000C1FC029F01EC0C8
:104B000028F01E502302F4CF1DF0F3CF1CF01F50ED
:104B10002402F4CF1FF0F3CF1EF02302F3501D2622
:104B2000F4501E22E86A1F2228502402F3501D264A
:104B3000F4501E22E86A1F2224AEA3EF25F028506D
:104B40001E5E29501F5A29AE000C23501E5E2450B1
:044B50001F5A000CDC
:0C4B54001201000202000008D8040A0050
:104B60000000010200010902430002010080320935
:104B700004000001020201000524001001042402C7
:104B8000020524060001052401000107058203082F
:104B9000000209040100020A0000000705030240A8
:104BA0000000070583024000000403090434034D9C
:104BB000006900630072006F0063006800690070A4
:104BC00000200054006500630068006E006F006CF8
:104BD000006F0067007900200049006E0063002E1E
:104BE0000034034300440043002000520053002DD2
:104BF00000320033003200200045006D0075006C6B
:104C0000006100740069006F006E002000440065C0
:104C1000006D006F00664B664BA94BAD4BE14B6CD2
:014C20003D56
:0E4C22002A0EF66E080EF76E000EF86E0101F7
:104C30000900F5509E6F0900F5509F6F03E19E67D4
:104C400001D03DD00900F550996F0900F5509A6FD9
:104C50000900F5509B6F09000900F550E96E090045
:104C6000F550EA6E090009000900F5509C6F090033
:104C7000F5509D6F09000900F6CFA0F1F7CFA1F123
:104C8000F8CFA2F199C1F6FF9AC1F7FF9BC1F8FFD7
:104C900001019C5302E19D5307E00900F550EE6EBF
:104CA0009C07F8E29D07F9D7A0C1F6FFA1C1F7FF65
:104CB000A2C1F8FF01019E07000E9F5BBFD7120043
:104CC000D9CFE6FFDACFE6FFE1CFD9FFE2CFDAFFB7
:104CD000E652E652E652E652D950FB0F2A6EFF0E1C
:104CE000DA202B6E2AC0DEFFDD6EDECFE6FFDDCFE1
:104CF000E6FFFB0EDBCFE6FFFC0EDBCFE6FFFD0E93
:104D0000DBCFE6FFA9C1E6FFAAC1E6FFBBEC18F0C6
:104D10002A6E070EE15C02E2E16AE552E16E2A507A
:104D2000020EF3CFDBFF030EF4CFDBFF020EDBCF6F
:104D30002AF0030EDBCF2BF02AC0F3FF2BC0F4FFC9
:104D4000040EE15C02E2E16AE552E16EE552E5CF74
:084D5000DAFFE7CFD9FF1200E2
:084D5800D9CFE6FFDACFE6FF38
:104D6000E1CFD9FFE2CFDAFFFB0EDBCF2AF0FC0E5A
:104D7000DBCF2BF00001800E2B141AE1FB0EDBCFF2
:104D8000E9FFFC0EDBCFEAFFEECFF3FFEDCFF4FF40
:104D9000EE2A000EEF22F3CFE9FFF4CFEAFFFD0E7B
:104DA000DBCFEFFFEF502B6AF36E2BC0F4FF10D078
:104DB000FB0EDB50FE0806E1FD0EDBCFE6FFEDEC5F
:104DC00027F005D0FD0EDBCFE6FFCAEC07F0E55279
:0C4DD000E552E5CFDAFFE7CFD9FF120073
:044DDC001C50210244
:104DE000F3CF18F0F4CF19F02202F3501926000E79
:104DF000F4201A6E1C502302F3501A26000EF420E1
:104E00001B6E1C502402F3501B261D502102F35030
:104E10001926F4501A22000E1B221D502202F350B4
:104E20001A26F4501B221D502302F3501B261E503D
:104E30002102F3501A26F4501B221E502202F35076
:0C4E40001B261F502102F3501B261200FD
:044E4C00FE0EE3CFA4
:104E5000E9FFFF0EE3CFEAFFF36AF46AEE5203E0E4
:104E6000F34AF42AFBD71200FF0EE3CFF8FFE55216
:104E7000FF0EE3CFF7FFE552FF0EE3CFF6FFE5525B
:104E8000E66AE66AE66A0900F55209E0FD0EE32AE1
:104E900005E1FE0EE32A02E1FF0EE32AF4D7FD0E40
:104EA000E3CF1DF0FE0EE3CF1EF0FF0EE3CF1FF0A9
:024EB0001200EE
:0E4EB200FF0EE124E96EFF0EE220EA6EEDCF66
:104EC000F4FFEFCFF3FFF46607D0600EF36404D075
:104ED0007B0EF36001D0F39A1200F36AF46AFF0EBE
:104EE000E124E96EFF0EE220EA6EED6607D02F0E98
:0E4EF000EF6404D03A0EEF6001D0F32A1200F6
:024EFE001B6A2D
:104F00001A6A196A186A200EE76ED8901C361D3688
:104F10001E361F36183619361A361B362150185CC5
:104F20002250195823501A5824501B5809E3215075
:104F3000185E2250195A23501A5A24501B5A1C2A00
:064F4000E72EE4D7120089
:0A4F46004F4B0D0A000D0A006F70BA
:104F5000656E737072696E747320465720302E33FD
:104F600032206261736564206F6E2055425720467F
:104F70005720442056657273696F6E20312E342E8F
:044F8000320D0A00E4
:0C4F84001B6A1A6A100EE76ED8901E36E9
:104F90001F361A361B3623501A5C24501B5805E363
:104FA00023501A5E24501B5A1E2AE72EF0D71200F7
:104FB00006D813EC14F0A0EC06F0FDD712000F0E8B
:104FC000C112D5EC05F01200CEEC23F06FBE02D07A
:0A4FD000EEEC23F018EC20F01200C4
:064FDA00FF0EE350ACBA2B
:104FE00004D0AF6AAB8EAC8A949CACA2FED7AD6EF7
:064FF000F36EF46A1200EA
:0A4FF60013EE00F023EE00F0F86A5D
:0E500000179C11EC26F0D8EC27F0FDD712001B
:02500E00FF0E93
:10501000E350E84E1200000000D000D000D0E82E8F
:04502000FAD71200A9
:0C502400303132333435363738396162B0
:055030006364656600E9
:0A50360000EE00F00F0EEE6AEA62D1
:04504000FDD7120086
:0C50440000000000000000000000000060
:01505000015E
:02505100FEFF60
:00000001FF
