:100000000C945B000C9483000C9483000C9483008C
:100010000C9483000C94C4000C9483000C949B01FA
:100020000C9483000C9483000C9483000C94830044
:100030000C9483000C9483000C9483000C94830034
:100040000C948E030C9483000C943C060C94830057
:100050000C9483000C9483000C9483000C94830014
:100060000C9483000C948300000024272A000025B0
:10007000282B000023262904040404040404040299
:100080000202020202030303030303010204081035
:100090002040800102040810200102040810200002
:1000A0000000070002010000030406000000000039
:1000B00000000000C10511241FBECFEFD4E0DEBF59
:1000C000CDBF11E0A0E0B1E0E0ECF6E102C00590A8
:1000D0000D92A437B107D9F712E0A4E7B1E001C04F
:1000E0001D92A93AB107E1F710E0C6EBD0E004C0D9
:1000F0002297FE010E94240BC43BD107C9F70E943E
:1001000083030C945F0B0C94000010927A01089505
:1001100084E0809368008CE380936D000895809163
:10012000EC01882381F010921002109211021092BB
:1001300012021092130210921402109215021092E1
:100140001602109217021092EC010895E5EBF1E00F
:10015000119281E0EC3EF807D9F70895EEE7F1E05F
:10016000119281E0E53BF807D9F7089582E080938A
:10017000B00095E09093B1009AEF9093B300809314
:1001800070001092B20008951F920F920FB60F9256
:1001900011242F933F934F935F936F937F938F938C
:1001A0009F93AF93BF93EF93FF93F89482E00E94E5
:1001B0005A048093630183E00E945A04809364018F
:1001C00084E00E945A048093650185E00E945A04ED
:1001D0008093660186E00E945A04282F809367016D
:1001E00080910C02882371F480916301882311F0BF
:1001F00090E006C090E080916F01813009F491E0B9
:1002000090930C0280910D02882371F48091640117
:10021000882311F090E006C090E080917001813059
:1002200009F491E090930D0280910E02882371F4FD
:1002300080916501882311F090E006C090E08091E4
:100240007101813009F491E090930E0280910F02C8
:10025000882371F480916601882311F090E006C034
:1002600090E080917201813009F491E090930F0247
:100270008091EC01882361F4222311F090E006C004
:1002800090E080917301813009F491E09093EC014A
:100290008091630180936F0180916401809370016C
:1002A0008091650180937101809166018093720154
:1002B0002093730181E080937A017894FF91EF910C
:1002C000BF91AF919F918F917F916F915F914F916E
:1002D0003F912F910F900FBE0F901F90189582E0C5
:1002E0000E945A048093630183E00E945A04809321
:1002F000640184E00E945A048093650185E00E94B5
:100300005A048093660186E00E945A048093670134
:100310002091630120936F0120916401209370016B
:100320002091650120937101209166012093720153
:100330008093730108951F920F920FB60F921124AC
:100340000F931F932F933F934F935F936F937F93DD
:100350008F939F93AF93BF93EF93FF93CF93DF93CD
:10036000CDB7DEB72197DEBFCDBF89E00E945A042A
:1003700060E0892B09F461E089E00E94A60478948A
:1003800080910D02880F20910E02220F220F282B40
:1003900080910C02282B80910F02880F880F880F04
:1003A000822B10920C0210920D0210920E021092EB
:1003B0000F028F59F8941982992787FD90959F9382
:1003C0008F9380E091E09F938F938E010F5F1F4F7B
:1003D0001F930F930E94A507B80180916A01909125
:1003E0006B010E945F07E0916A01F0916B01DF01F0
:1003F0000D900020E9F71197AE1BBF0B8DB79EB78C
:1004000006960FB6F8949EBF0FBE8DBFA733B105F9
:100410003CF063E071E080E292E00E94A60505C036
:10042000D5971CF081E080936E012196F894DEBF91
:10043000CDBFDF91CF91FF91EF91BF91AF919F9190
:100440008F917F916F915F914F913F912F911F916C
:100450000F910F900FBE0F901F901895F894EEE734
:10046000F1E0119281E0E53BF807D9F7E5EBF1E027
:10047000119281E0EC3EF807D9F740E052EC61E0E0
:1004800070E080E292E00E94BB0563E271E080E2EE
:1004900092E00E94A6050E94B60084E08093680066
:1004A0008CE380936D0061E080915D010E943C04CB
:1004B00061E089E00E943C0460E082E00E943C042C
:1004C00060E083E00E943C0460E084E00E943C0421
:1004D00060E085E00E943C0460E086E00E943C040D
:1004E00061E086E00E94A6040E946F0162E371E071
:1004F00080E292E00E94A60578940895EF92FF9220
:100500000F931F930E94B3037B018C0180917601AE
:1005100090917701A0917801B0917901A80197019C
:10052000281B390B4A0B5B0B80915F019091600196
:10053000A0916101B091620182179307A407B507EA
:10054000FCF4E0927601F092770100937801109329
:1005500079018091740190917501892B39F481E0C2
:1005600090E0909375018093740104C0109275011E
:10057000109274016091740180915D010E94A60443
:100580001F910F91FF90EF9008950F931F93F89490
:100590000E94B3032091F6013091F7014091F801D8
:1005A0005091F901621B730B840B950B6093FE0154
:1005B0007093FF018093000290930102789402E00F
:1005C00012E02AE030E0A8010E9471071F930F9308
:1005D00086E591E09F938F9380916A0190916B01E2
:1005E0009F938F930E94A5078DB79EB706960FB66F
:1005F000F8949EBF0FBE8DBF1F910F91089580E2AA
:1006000092E00E94B705882309F43FC080E292E09F
:100610000E94B405873679F510926E01F8940E9415
:10062000B3036093F6017093F7018093F801909300
:10063000F9017894EEE7F1E0119281E0E53BF807EB
:10064000D9F7E5EBF1E0119281E0EC3EF807D9F73C
:100650000E94C50210921002109211021092120212
:1006600010921302109214021092150210921602A8
:100670001092170208958D3621F481E08093F501E0
:100680000895833711F41092F50108950E947E02B7
:100690000E94FF020E948F0080917A01882311F04E
:1006A00010927A0180916E01813061F56BE571E005
:1006B00080916A0190916B010E945F0710926E0118
:1006C000E5EBF1E0119281E0EC3EF807D9F760919B
:1006D0006A0170916B0180916C0190916D010E9493
:1006E0006A07EEE7F1E0119281E0E53BF807D9F700
:1006F0000E94C50260916C0170916D0180E292E0F0
:100700000E94A6050895CFEFD4E0DEBFCDBF0E94C2
:10071000FA030E942E020E944603FDCF1F920F9201
:100720000FB60F9211248F939F93AF93BF93809135
:10073000250290912602A0912702B09128020196ED
:10074000A11DB11D8093250290932602A09327023C
:10075000B0932802BF91AF919F918F910F900FBEE0
:100760000F901F901895609125027091260280913C
:1007700027029091280227E0660F771F881F991F94
:100780002A95D1F72DE730E040E050E00E94D10AF1
:10079000CA01B9010895AF92BF92CF92DF92EF9252
:1007A000FF920F931F935B016C010E94B3037B01C7
:1007B0008C010E94B3036E197F09800B910B6A159F
:1007C0007B058C059D05A8F31F910F91FF90EF907D
:1007D000DF90CF90BF90AF900895019751F0880FB0
:1007E000991F880F991F02972FB7F8940197F1F777
:1007F0002FBF08957894109225021092260210922D
:1008000027021092280284B5826084BD84B581607D
:1008100084BD85B5826085BD85B5816085BDEEE608
:10082000F0E0808181608083E1E8F0E08081826097
:100830008083808181608083E0E8F0E08081816056
:100840008083E1EBF0E0808184608083E0EBF0E086
:10085000808181608083EAE7F0E08081846080832A
:1008600080818260808380818160808380818068D4
:1008700080831092C1000895282F3327C90185571E
:100880009F4FFC01949129583F4FF901849188238F
:1008900081F0E82FFF27E859FF4FE491FF276623F7
:1008A00029F4808190958923808308958081892B04
:1008B00080830895482F5527CA0181569F4FFC0118
:1008C0002491CA0185579F4FFC01949149585F4F6D
:1008D000FA013491332319F480E090E00895222343
:1008E00031F1233021F4809180008F7705C02430CE
:1008F00031F4809180008F7D8093800018C021307A
:1009000019F484B58F7704C0223021F484B58F7D2B
:1009100084BD0DC0263021F48091B0008F7705C0D2
:10092000273029F48091B0008F7D8093B000E32FB1
:10093000FF27EE58FF4FE491FF27808120E030E051
:10094000892311F021E030E0C9010895482F55278F
:10095000CA0181569F4FFC012491CA0185579F4FC0
:10096000FC01949149585F4FFA0134913323C1F14E
:10097000222331F1233021F4809180008F7705C04C
:10098000243031F4809180008F7D8093800018C0E6
:10099000213019F484B58F7704C0223021F484B556
:1009A0008F7D84BD0DC0263021F48091B0008F77FB
:1009B00005C0273029F48091B0008F7D8093B0006E
:1009C000E32FFF27E359FF4FE491FF27662329F424
:1009D000808190958923808308958081892B8083ED
:1009E000089508950895CB01BA0133274427552768
:1009F0000E94820608952AE00E94F3040895AB0144
:100A0000662777270E94FB040895862F0E947A06A6
:100A10000895862F0E947A0608950F931F938C01E4
:100A20006DE00E9409056AE0C8010E9409051F9156
:100A30000F9108950F931F938C010E94FB04C8012E
:100A40000E940D051F910F9108950F931F938C0124
:100A50000E94FF04C8010E940D051F910F91089587
:100A60000F931F938C010E940505C8010E940D057C
:100A70001F910F9108950F931F938C010E940905F8
:100A8000C8010E940D051F910F910895EF92FF92EA
:100A90000F931F93CF93DF93EC017A018B0177FFC4
:100AA0000BC06DE20E94090510950095F094E0944A
:100AB000E11CF11C011D111D2AE0B801A701CE01A6
:100AC0000E94F304DF91CF911F910F91FF90EF905F
:100AD00008950F931F938C010E944605C8010E9440
:100AE0000D051F910F9108952115310521F4642FF3
:100AF0000E94090508952A30310519F40E9446051F
:100B000008950E94F30408950F931F938C010E948F
:100B10007405C8010E940D051F910F910895AB0146
:100B2000662757FD6095762F0E94460508950F931E
:100B30001F938C010E948F05C8010E940D051F9113
:100B40000F910895CB010E94520708950F931F93B0
:100B50008C010E94A205C8010E940D051F910F91F2
:100B600008950E94330608950E94140608950E9475
:100B7000030699270895CB01BA010E94C205089582
:100B800008950895EF92FF920F931F937B018C01BC
:100B900022E030E040E050E00E94F30A205C3D4B50
:100BA000404F5F4FCA01B901A80197010E94F30AA3
:100BB0002150304040405040BB2757FDBA95A52FEB
:100BC000942F832F2F5F3F4F4F4F5F4F8093C50070
:100BD00021502093C400E1ECF0E0808180618083AB
:100BE0008081886080838081806880831F910F91DD
:100BF000FF90EF900895982F8091C00085FFFCCF63
:100C00009093C6000895809121029091220280580D
:100C10009F4F2091230230912402821B930B60E8A6
:100C200070E00E94BE0A0895409123025091240270
:100C300080912102909122028417950719F48FEF79
:100C40009FEF0895FA01E75DFD4F2081CA010196EB
:100C500060E870E00E94BE0A909324028093230211
:100C6000822F9927089580912302909124029093D6
:100C700022028093210208951F920F920FB60F92C5
:100C800011242F933F934F935F936F937F938F9391
:100C90009F93AF93BF93EF93FF934091C600E09172
:100CA0002102F0912202CF01019660E870E00E94DB
:100CB000BE0A9C01809123029091240228173907D3
:100CC00039F0E75DFD4F40833093220220932102EB
:100CD000FF91EF91BF91AF919F918F917F916F9114
:100CE0005F914F913F912F910F900FBE0F901F90EA
:100CF00018950895982F8091C00085FFFCCF9093A0
:100D0000C60008952F923F924F925F926F927F920A
:100D10008F929F92AF92BF92CF92DF92EF92FF920B
:100D20000F931F93CF93DF93CDB7DEB7A0970FB686
:100D3000F894DEBF0FBECDBF6B017C0129013A01E3
:100D4000611571058105910541F48091C00085FF11
:100D5000FCCF80E38093C6004BC0882499245401C3
:100D60001E010894211C311C8101080D191DC701A9
:100D7000B601A30192010E94D10AF8016083089490
:100D8000811C911CA11CB11CC701B601A3019201D9
:100D90000E94D10A69017A012115310541055105E9
:100DA00019F7089481089108A108B108F101E80D2C
:100DB000F91D0894811C911CA11CB11C14C008943D
:100DC00081089108A108B10880818A3018F4982F11
:100DD000905D02C0982F995C8091C00085FFFCCF88
:100DE0009093C600319781149104A104B10439F79E
:100DF000A0960FB6F894DEBF0FBECDBFDF91CF91A6
:100E00001F910F91FF90EF90DF90CF90BF90AF9028
:100E10009F908F907F906F905F904F903F902F901A
:100E2000089520E130E040E050E00E9482060895FD
:100E300028E030E040E050E00E948206089522E081
:100E400030E040E050E00E94820608958091C000AA
:100E500085FFFCCF8AE08093C6000895EF92FF9251
:100E60000F931F937B018C0197FF0FC08091C000EF
:100E700085FFFCCF8DE28093C60010950095F0941D
:100E8000E094E11CF11C011D111D2AE030E040E05E
:100E900050E0C801B7010E9482061F910F91FF9098
:100EA000EF900895FC0107C08091C00085FFFCCF42
:100EB00031969093C60090819923B1F70895FB0174
:100EC000DC010D900020E9F7119701900D920020B0
:100ED000E1F70895FB01DC0101900D920020E1F79C
:100EE0000895FA01CF93FF93EF93223044F1253216
:100EF00034F5C22FE894CA3049F497FB3EF490953C
:100F00008095709561957F4F8F4F9F4F2C2F332782
:100F100044275527FF93EF930E94D10AEF91FF9149
:100F2000605D6A330CF0695D6193B901CA0160507C
:100F300070408040904051F716F4CDE2C19310828A
:100F40008F919F91CF910C94810AA0E1B0E0EBEAE0
:100F5000F7E00C94360B0F89188D86E08E831C8386
:100F60000B838FEF9FE798878F83AE01455E5F4FBE
:100F70005A834983698D7A8DCE0103960E94CA07F0
:100F800029853A85020F131FF8011082E4E060966C
:100F90000C94520BA7E1B0E0E0EDF7E00C94280BC5
:100FA0008824992454012C017C8B6B8B3A01FC0121
:100FB00017821682838181FD03C08FEF9FEF7EC26F
:100FC000CC24DD249E012F5F3F4F3F8B2E8B65C2CB
:100FD000C0FE48C2832D80538A30D8F430E33316E4
:100FE00041F48D85882329F4C3FC03C0E0E0F1E0DF
:100FF00073C08AE0FD85F802C00111248053830D7F
:101000008D8787FF02C02FE72D87C3FC40C22D8448
:101010003EC2960128703070C3FE05C08D858823BE
:1010200011F491E09D87E7E6E3156CF1F5E63F16D4
:101030000CF068C083E5381609F489C08315BCF04C
:101040009BE2391609F442C093154CF0E0E23E16DB
:1010500009F440C0F3E23F1609F0FCC143C02DE2A1
:101060003216E9F13EE2331609F0F4C140C083E6DE
:10107000381609F44DC083150CF481C098E5391673
:1010800009F0E8C120C0E0E73E1609F4A2C0E3156C
:101090005CF0FCE63F1689F12FE6321689F039E65E
:1010A000331609F0D7C16BC085E7381609F499C02B
:1010B00098E7391641F0E3E73E1609F0CBC130C09E
:1010C000F8E0F88B8EC020E1288B8BC080E190E0A7
:1010D000C82AD92AE0E2F0E0CE2ADF2AD8C120E8E7
:1010E00030E00DC080E490E0C82AD92AD0C1E8E001
:1010F000F0E0CE2ADF2A1D86CAC124E030E0C22AF1
:10110000D32AC5C13FE3832E2A9423E6322E30C171
:10111000F30180802A9422E030E0620E731E28C121
:10112000F301A081B1814D01232B49F0FD856F2F83
:10113000772767FD7095CD010E94760A18C0FD01E2
:1011400001900020E9F73197EA1BE88B11C0F30109
:10115000808191814C01232B41F0FD856F2F7727F2
:1011600067FD70950E946B0A02C00E94620A888B1C
:1011700022E030E0620E731E3889231AF9C0C2FEE5
:1011800008C0F30180819181A281B38124E030E025
:1011900009C0F30180819181AA2797FDA095BA2FFC
:1011A00022E030E0620E731E4C015D01B7FF0CC0FF
:1011B00082E090E0C82AD92AB094A09490948094B8
:1011C000811C911CA11CB11CEFEBFFEFCE22DF2292
:1011D00021C020E430E0C22AD32A98E7392E30E13A
:1011E000388BC2FE08C0F30180819181A281B38156
:1011F00024E030E007C0F30180819181AA27BB275A
:1012000022E030E0620E731E4C015D018FEC9FEF17
:10121000C822D92285017401FE013196FF87EE872D
:10122000F8898F2E9924AA24BB24232D21522D8B9B
:10123000C801B701A50194010E94D10A6A301CF0CF
:101240003D89630F01C0605DEE85FF856193FF8777
:10125000EE87C801B701A50194010E94D10A790166
:101260008A01211531054105510511F7882499247A
:1012700054014E85FE894F1B842EC60182739070E7
:10128000892B09F02A94C6FE07C02889203111F461
:1012900082E001C081E0281AC3FE12C08D85282F8C
:1012A000332727FD3095842F9927821793072CF039
:1012B000E7EFFFEFCE22DF2203C0FD85F41BFD87A1
:1012C000860108701070C3FE03C02D85221A01C06C
:1012D000241AC60180789170892B31F00AC0B201BE
:1012E00080E290E00E94910A2A94822D8F5F181666
:1012F000B4F3C1FE04C0B2018DE290E00BC0C4FEA5
:1013000004C0B2018BE290E005C0C5FE05C0B20189
:1013100080E290E00E94910AC6FE0FC0B20180E315
:1013200090E00E94910A3889303139F4B201832D5E
:10133000992787FD90950E94910AD0FC06C00AC0AB
:10134000B20180E390E00E94910A2A94822D8F5F7F
:101350001816B4F3012B31F40BC0B20180E390E016
:101360000E94910A8D8581508D878F5F1816ACF38E
:10137000F601E078F070FA8BE98BC7FE06C00AC070
:10138000B20180E290E00E94910A2A94822D8F5F40
:101390001816B4F3F3E63F1641F4B201882D9927ED
:1013A00087FD90950E94910A45C023E73216B1F45B
:1013B00064017401188909C0F70181917F01B201AC
:1013C000992787FD90950E94910A1150A8F7460130
:1013D000F8898F0E911C2FEF288B2CC033E5331624
:1013E00019F00E851F851FC064018401F88808C0AC
:1013F000F8018491B20199270E94910A0F5F1F4F53
:10140000FA94FFEFFF16A1F746012889820E911C7E
:10141000F88B10C0F80182918F01B201992787FDE6
:1014200090950E94910A2E893F890217130791F720
:101430001F870E8789899A89892B31F426C0B201CA
:1014400080E290E00E94910A2A94822D8F5F181604
:10145000B4F31BC0B201832D992787FD90950E949C
:10146000910A13C095E2391641F4EAE0E88B222490
:101470001D8681E0C82ED12C0AC0B201832D992788
:1014800087FD90950E94910A02C0CC24DD242B890F
:101490003C892F5F3F4F3C8B2B8BF201838183FF75
:1014A00004C0EB89FC89349003C0EB89FC8930804F
:1014B000332009F08DCDF20186819781E2E16796B4
:1014C0000C94440BFC0105900020E9F78095909561
:1014D0008E0F9F1F0895FC01059061507040011010
:1014E000D8F7809590958E0F9F1F0895FC0161504D
:1014F000704001900110D8F7809590958E0F9F1F36
:101500000895DC01FC01672F71917723E1F7329791
:1015100004C07C916D9370836291AE17BF07C8F3CE
:1015200008950F931F93CF93DF938C01EB018B8171
:10153000992781FF1BC082FF0DC02E813F818C81C6
:101540009D812817390764F4E881F9810193F983B3
:10155000E88306C0E885F985802F0995892B31F449
:101560008E819F8101969F838E8302C00FEF1FEFB4
:10157000C801DF91CF911F910F91089597FB092E1C
:1015800007260AD077FD04D049D006D000201AF4EF
:10159000709561957F4F0895F6F7909581959F4FCF
:1015A0000895A1E21A2EAA1BBB1BFD010DC0AA1FA4
:1015B000BB1FEE1FFF1FA217B307E407F50720F0BC
:1015C000A21BB30BE40BF50B661F771F881F991F37
:1015D0001A9469F760957095809590959B01AC0180
:1015E000BD01CF01089597FB092E05260ED057FDAA
:1015F00004D0D7DF0AD0001C38F4509540953095C0
:1016000021953F4F4F4F5F4F0895F6F79095809586
:10161000709561957F4F8F4F9F4F0895AA1BBB1BFD
:1016200051E107C0AA1FBB1FA617B70710F0A61BE2
:10163000B70B881F991F5A95A9F780959095BC0103
:10164000CD010895EE0FFF1F0590F491E02D099450
:101650002F923F924F925F926F927F928F929F92C2
:10166000AF92BF92CF92DF92EF92FF920F931F93B0
:10167000CF93DF93CDB7DEB7CA1BDB0B0FB6F89461
:10168000DEBF0FBECDBF09942A88398848885F84A1
:101690006E847D848C849B84AA84B984C884DF8012
:1016A000EE80FD800C811B81AA81B981CE0FD11DF6
:1016B0000FB6F894DEBF0FBECDBFED010895FFCF8A
:1016C000256300427566666572204F766572727595
:1016D0006E20647572696E67204750494F205363CE
:1016E000616E005365747570207374617274696EF5
:1016F0006700536574757020436F6D706C65746519
:101700002C205374617274696E6720496E7465721F
:10171000727570747300212573400023000D00FA68
:1017200000000001010101017C017E01B501010100
:0417300001010101B1
:00000001FF
