:020000040000FA
:06080000F7EF23F01200E7
:06080800CCEF05F0120028
:0608180022EF04F01200C3
:06082A0002004648000038
:10083000EE010000020000003C480000D60100006C
:040840000A000000AA
:0C084400D8CFE4FFE0CFE4FFE46EDACF91
:10085000E4FFE2CFDAFFE9CFE4FFEACFE4FFF3CF32
:10086000E4FFF4CFE4FFE6529EA212D19E92030E63
:10087000386E0E50EA6A510FE96E010EEA22EF500F
:10088000385C30E10E50E96EEA6AD890E936EA3613
:10089000690EE926010EEA22EECF38F0EFCF39F0EB
:1008A00039C038F0396A3850D76E0E50E96EEA6AAE
:1008B000D890E936EA36690EE926010EEA22EECF33
:1008C00038F0EFCF39F03850D66EF28AF294D58EE8
:1008D0000E50EA6A510FE96E010EEA22040EEF6E25
:1008E0000E50106E020E386E0F50EA6A510FE96E0C
:1008F000010EEA22EF50385C49E10F50E96EEA6AD6
:10090000D890E936EA36690EE926010EEA22EE5061
:10091000ED1009E10F50EA6A510FE96E010EEA226B
:10092000010EEF6E33D0080E0F5C0CE2070E0F14B1
:10093000386E010E385204E0E846FE0B3806FCE142
:1009400089121AD0100E0F5C0CE2070E0F14386ECD
:10095000010E385204E0E846FE0B3806FCE18A122C
:100960000BD0070E0F14386E010E385204E0E84623
:10097000FE0B3806FCE18B120F50EA6A510FE96E4C
:10098000010EEA22030EEF6E0F500E6E0F2A060EB6
:100990000F5C03E1080E0F6E0AD0130E0F5C03E12B
:1009A000160E0F6E04D0180E0F5C01E10F6A000ED8
:1009B000D8800254000E03543FE2112A000E122286
:1009C0000250115C0350125837E30101A92B000EAD
:1009D000AA230101700EA95D170EAA5907E30101B0
:1009E000A96BAA6B0101A72B000EA823116A126A3A
:1009F000030E065C1FE20450EA6A480FE96E010E1E
:100A0000EA2280CFEFFF0450EA6A4B0FE96E010E35
:100A1000EA2281CFEFFF0450EA6A4E0FE96E010E21
:100A2000EA2282CFEFFF042A030E045C01E3046A8A
:100A3000062A02D0026A036A000ED8800754000E0C
:100A4000085419E20C50000816E2132A000E142272
:100A50000750135C085014580EE3136A146A030E0F
:100A60000B5C07E2092A030E095C01E3096A0B2A01
:100A700002D0076A086A0C5000080AE2156A15508D
:100A8000040DF328C26E9E9C9F9C9D8CC280C282E6
:100A90009EAC2DD09E9CC4503C6E3CC03DF03C6A48
:100AA000C35000013C103A6E3DC03BF01550060D9E
:100AB000F3CF38F0F4CF39F0000E3826010E39228A
:100AC0000950020D3850F324E96E3950F420EA6ED3
:100AD0003AC0EEFF3BC0EDFF152A0C50155C02E357
:100AE0009D9C05D01550040DF328C26EC282F2A45D
:100AF00042D0D59EF294F29A040E386E1050EA6AF3
:100B0000510FE96E010EEA22EF50385C34E1080E15
:100B1000105C0DE2070E1014386E010E385204E01E
:100B2000E846FE0B3806FCE1E81C89161CD0100EC6
:100B3000105C0DE2070E1014386E010E385204E0FE
:100B4000E846FE0B3806FCE1E81C8A160CD0070EBE
:100B50001014386E010E385204E0E846FE0B3806D9
:100B6000FCE1E81C8B161050EA6A510FE96E010E89
:100B7000EA22020EEF6EE552E5CFF4FFE5CFF3FF78
:100B8000E5CFEAFFE5CFE9FFE5CFDAFFE550E5CFB6
:100B9000E0FFE5CFD8FF1000DACFE4FFE2CFDAFFC5
:100BA000E652E552E5CFDAFF1100896A92680F0E2E
:100BB000C16EC2900C6A070EB46E8A6A93688B6A23
:100BC00094680A6A096A0B6A056A046A066A026A14
:100BD000036A076A086A116A126A136A146A156A54
:100BE000CA82CA80CA9CCA9ACA88CA96FA0ECB6EB2
:100BF000D586D59AD59CF294F29AF194D08ECA9467
:100C00009D829F92F28EF28CCA841200D9CFE6FFA9
:100C1000E1CFD9FF020EE126896A92680F0EC16EFC
:100C2000C2900C6A070EB46E8A6A93688B6A9468E5
:100C3000FC0E8B16FC0E941694840101010EA66F17
:100C40000101EE69EF690A6A096A0B6A056A046ABA
:100C5000066A026A036A076A086A116A126A136AF4
:100C6000146A156ACA82CA80CA9CCA9ACA88CA9675
:100C7000FA0ECB6EDF6ADFCF2AF00C0EE76E2A1871
:100C8000E8AE02D0E73402D0E7502A5C38E2010E29
:100C9000DB6A010EDBCF2AF0030EE76E2A18E8AEFE
:100CA00002D0E73402D0E7502A5C27E2DFCF2AF0F7
:100CB0002B6A2ABE2B68060E2B02F3CF2BF0060EF2
:100CC0002A02F3CF2AF0F4502B26000E2A26010E1A
:100CD0002B22010EDBCF2CF02D6A2CBE2D68D89074
:100CE0002C362D362A502C24E96E2B502D20EA6EFE
:100CF000EE6AED6A010EDB2ACCD7DF2ABCD70101F0
:100D0000A06B0101A16B01019E6B01019F6B0101B1
:100D1000A26B0101A36B0101A46B0101A56B0E6A1B
:100D20000F6A106ADF6ADFCF2AF0180EE76E2A1802
:100D3000E8AE02D0E73402D0E7502A5C1BE2DFCFF6
:100D4000E9FFEA6AE9BEEA68D890E936EA36690E50
:100D5000E926010EEA22EE6AED6ADFCFE9FFEA6AD0
:100D6000E9BEEA68510EE926010EEA22010EEF6E95
:100D7000DF2AD9D7D586D59AD59CF294F29AF194E8
:100D8000D08ECA949D829F92F28EF28CCA84020EFB
:100D9000E15C02E2E16AE552E16EE552E7CFD9FF9C
:100DA0001200D9CFE6FFE1CFD9FF020EE126010EF6
:100DB000DB6A0101B46B70EC13F0E3EC13F0060E88
:100DC0000101E85D03E36D50020B01E001D1065023
:100DD000000807E2052A030E055C01E1056A060624
:100DE000F6D70B50000807E20A2A030E0A5C01E15D
:100DF0000A6A0B06F6D7040118BF65D00101B46B6F
:100E0000040119510101B45D53E20101B451EA6AD0
:100E1000080FE96E050EEA22EFCFDFFF0101D7517F
:100E20001CE10D0E2A6EDF502A5C05E00A0E2B6EC7
:100E3000DF502B5C12E10101010ED76F0101A051BF
:100E4000EA6A400FE96E020EEA220D0EEF6E010112
:100E5000A02BDE52010EDD6E15D00D0EDF5C11E011
:100E60000A0EDF5C0EE00101A051EA6A400FE96E54
:100E7000020EEA22DFCFEFFF0101D76B0101A02BA9
:100E800001D013D0400E0101A05D02E10101A06B71
:100E90000101A1510101A05D02E10D8609D0010E01
:100EA000DB5003E015D9010EDB6A0101B42BA8D792
:100EB0000401400E196F400E040118170401187D3B
:100EC000880E040118130D5001E181D00DA010D03F
:100ED000770E2A6E420E2B6E2C6A2AC0E6FF2BC0BC
:100EE000E6FF2CC0E6FF6BEC22F0E552E552E5523E
:100EF0000DA210D0710E2A6E420E2B6E2C6A2AC0E3
:100F0000E6FF2BC0E6FF2CC0E6FF6BEC22F0E552BB
:100F1000E552E5520DA410D0550E2A6E420E2B6EEE
:100F20002C6A2AC0E6FF2BC0E6FF2CC0E6FF6BEC64
:100F300022F0E552E552E5520DA610D0390E2A6E88
:100F4000420E2B6E2C6A2AC0E6FF2BC0E6FF2CC097
:100F5000E6FF6BEC22F0E552E552E5520DA810D009
:100F60001A0E2A6E420E2B6E2C6A2AC0E6FF2BC088
:100F7000E6FF2CC0E6FF6BEC22F0E552E552E552AD
:100F80000DAA00D00DAC10D0F90E2A6E410E2B6EBA
:100F90002C6A2AC0E6FF2BC0E6FF2CC0E6FF6BECF4
:100FA00022F0E552E552E5520DAE10D0E00E2A6E69
:100FB000410E2B6E2C6A2AC0E6FF2BC0E6FF2CC028
:100FC000E6FF6BEC22F0E552E552E5520D6A35D8AA
:100FD000020EE15C02E2E16AE552E16EE552E7CF22
:100FE000D9FF1200D9CFE6FFE1CFD9FF01019E5111
:100FF000EA6A000FE96E020EEA22FE0EDBCFEFFF77
:1010000001019E2B400E01019E5D02E101019E6BDC
:1010100001019F5101019E5D01E10D84FE0EDBCFB8
:101020002AF02B6A2ABE2B682AC0F3FF2BC0F4FFDC
:1010300000D0E552E7CFD9FF1200D9CFE6FFE1CFCC
:10104000D9FFE6520101B5513EE101019E51010176
:101050009F5D39E001019F510101D8809E551AE240
:1010600001019F5101019E5DDF6E01019F51010150
:10107000B66FB76B000E0101B627020E0101B72350
:10108000DFCFBAF10101BB6B0101010EB56F9EC14B
:101090009FF119D0400E0101D8809F55DF6E0101EC
:1010A0009F510101B66FB76B000E0101B627020E0A
:1010B0000101B723DFCFBAF10101BB6B0101010EC2
:1010C000B56F01019F6BE552E552E7CFD9FF1200E2
:1010D000D9CFE6FFE1CFD9FF040EE126DE6ADD6A53
:1010E000020EDB6A030EDB6A0101A151EA6A400FBE
:1010F000E96E020EEA22EF50E66EE66A64EC23F037
:10110000E552E552020EF3CFDBFF0101A12B400EA9
:101110000101A15D02E10101A16B020EDB50DE6E57
:10112000DD6A0101A151EA6A400FE96E020EEA226E
:10113000EF502C0835E00101A151EA6A400FE96E39
:10114000020EEA22EF500D082BE00101A151EA6ADC
:10115000400FE96E020EEA22EF50E66EE66A64EC9A
:1011600023F0E552E552030EF3CFDBFF0101A12B83
:10117000400E0101A15D02E10101A16B020EDBCF76
:101180002CF02CC02DF02C6A030EDB5000012C2417
:101190002A6E000E2D202B6E2AC0DEFF2BC0DDFF35
:1011A000000EDBCF1EF0010EDBCF1FF0540E1E1819
:1011B00002E1530E1F1801E1EBD04F0E1E1802E1A1
:1011C000470E1F1801E1E1D0490E1E1802E1430E3F
:1011D0001F1801E1D7D0490E1E1802E1520E1F1848
:1011E00001E1CDD0490E1E1802E1530E1F1801E196
:1011F000C3D0530E1E1802E1430E1F1801E1B9D0EF
:10120000530E1E1802E1520E1F1801E1AFD0530E0B
:101210001E1802E1530E1F1801E1A5D0530E1E182F
:1012200002E1420E1F1801E19BD0430E1E1802E19D
:10123000420E1F1801E191D0430E1E1802E1520E1A
:101240001F1801E187D04F0E1E1802E1420E1F1831
:1012500001E17DD0570E1E1802E14D0E1F1875E0FA
:10126000520E1E1802E14D0E1F186DE0440E1E189E
:1012700002E1500E1F1865E04F0E1E1802E1500EDD
:101280001F185DE0490E1E1802E1500E1F1855E0B0
:10129000580E1E1802E1540E1F184CE0540E1E1872
:1012A00001E11F5045E0410E1E1801E11F503EE0D4
:1012B000560E1E1801E11F5037E0490E1E1801E1BD
:1012C0001F5030E04F0E1E1801E11F5029E0550E4F
:1012D0001E1802E1430E1F1821E0580E1E1802E1ED
:1012E000430E1F1818E0430E1E1801E11F5011E0B5
:1012F000520E1E1801E11F500AE0580E1E1802E19E
:10130000520E1F1801E047D010EC0EF083D0B9D870
:1013100081D03CD97FD012EC0EF07CD0B6D87AD0F8
:1013200092D978D0C3D976D0DCD974D0EBD972D029
:10133000ECD870D00EEC0EF06DD057DB6BD0D5DB57
:1013400069D0B7DA67D074DA65D03DDA63D000ECE3
:101350000FF060D014EC0EF05DD0B9EC0EF05AD066
:1013600047EC10F057D003EC11F054D006EC11F01C
:1013700051D009EC11F04ED00CEC11F04BD00FEC29
:1013800011F048D012EC11F045D015EC11F042D01C
:1013900025EC11F03FD0030EDB501AE1020EDBCF3B
:1013A000E6FFE66A020EDBCFE6FFE66ABD0E2A6EB6
:1013B000410E2B6E2C6A2AC0E6FF2BC0E6FF2CC024
:1013C000E6FF6BEC22F02D6E070EE15E2D5021D072
:1013D000030EDBCFE6FFE66A020EDBCFE6FFE66A2E
:1013E000030EDBCFE6FFE66A020EDBCFE6FFE66A1E
:1013F000950E2A6E410E2B6E2C6A2AC0E6FF2BC07A
:10140000E6FF2CC0E6FF6BEC22F02D6E0B0EE15ECA
:101410002D5000D00101A151EA6A400FE96E020E81
:10142000EA22EF500D080DE00D500BE1520E2A6E2E
:101430002B6ADF502A1803E1DE52DD502B1801E041
:101440000D8EA0C1A1F1040EE15C02E2E16AE55259
:10145000E16EE552E7CFD9FF12000101A65110E07D
:101460005C0E2A6E470E2B6E2C6A2AC0E6FF2BC03C
:10147000E6FF2CC0E6FF6BEC22F0E552E552E552A8
:10148000120006EC06F0E9DF1200D9CFE6FFE1CF4B
:10149000D9FF030EE126010EE66E28EC11F0E552AD
:1014A0001D50DF6E020EE66E28EC11F0E552DE52A2
:1014B0001DC0DEFF1EC0DDFFDD520D5001E01BD060
:1014C000DF0418E1D950010FE96EDACFEAFFEE50E0
:1014D000ED100BE0010E2A6E2B6A010EDB502A186C
:1014E00003E1020EDB502B1804E1010EDBCFA6F165
:1014F00001D00D8CB2DF030EE15C02E2E16AE5523D
:10150000E16EE552E7CFD9FF1200D9CFE6FFE1CF78
:10151000D9FF030EE126020EDB6A030EE66E28EC0D
:1015200011F0E5521DC000F01EC001F0010EE66E84
:1015300028EC11F0E552020E1DC0DBFF0D5001E05A
:101540001BD0020EDB500CE10050011003E1026AD7
:10155000036A05D0CA8400C002F001C003F00BD0BA
:101560000050011003E1076A086A05D0CA8400C070
:1015700007F001C008F071DF030EE15C02E2E16AEE
:10158000E552E16EE552E7CFD9FF1200D9CFE6FF71
:10159000E1CFD9FF040EE126010EE66E28EC11F032
:1015A000E5521D50DF6E010EE66E28EC11F0E5529B
:1015B000010E1DC0DBFF010EE66E28EC11F0E552B6
:1015C000020E1DC0DBFF010EE66E28EC11F0E552A5
:1015D000030E1DC0DBFF0D5001E02BD0DF50926EDB
:1015E000010EDB50936E020EDB50946E030EDB5047
:1015F0000C0805E20C0EF36E030EF3CFDBFF030EB7
:10160000DB5005E10F0EC16EC2900C6A11D00C6A5E
:10161000C26A030EDBCFE6FF0F0EE552D880E75417
:10162000C16EBE0EC06EC280030EDB500C6ECA844B
:1016300014DF040EE15C02E2E16AE552E16EE5527C
:10164000E7CFD9FF1200D9CFE6FFE1CFD9FF030ED4
:10165000E126010EE66E28EC11F0E5521D50DF6E1A
:10166000010EE66E28EC11F0E552010E1DC0DBFF05
:10167000010EE66E28EC11F0E552020E1DC0DBFFF4
:101680000D5001E009D0DF50896E010EDB508A6EEB
:10169000020EDB508B6EE1DE030EE15C02E2E16ADA
:1016A000E552E16EE552E7CFD9FF12008250E66EB7
:1016B000E66A8150E66EE66A8050E66EE66A820E61
:1016C0002A6E410E2B6E2C6A2AC0E6FF2BC0E6FF65
:1016D0002CC0E6FF6BEC22F02D6E090EE15E2D5062
:1016E0001200640E2A6E470E2B6E2C6A2AC0E6FF8B
:1016F0002BC0E6FF2CC0E6FF6BEC22F0E552E55272
:10170000E5521200D9CFE6FFE1CFD9FFE652DF6AFA
:10171000800E2A6E410E2B6E2C6A2AC0E6FF2BC06B
:10172000E6FF2CC0E6FF6BEC22F0E552E552E552F5
:10173000DF6A0C50DF5C32E2DFCF2AF02B6A2ABE70
:101740002B68060E2B02F3CF2BF0060E2A02F3CFE6
:101750002AF0F4502B26000E2A26010E2B220A50C6
:10176000020D2A50F324E96E2B50F420EA6EEECFDE
:10177000E6FFEFCFE6FF7A0E2C6E410E2D6E2E6A3D
:101780002CC0E6FF2DC0E6FF2EC0E6FF6BEC22F07A
:101790002F6E050EE15E2F50DF2ACBD7610E2A6E29
:1017A000470E2B6E2C6A2AC0E6FF2BC0E6FF2CC02A
:1017B000E6FF6BEC22F0E552E552E552E552E552C8
:1017C000E7CFD9FF1200D9CFE6FFE1CFD9FF030E53
:1017D000E126030EE66E28EC11F0E5521DC0DEFF97
:1017E0001EC0DDFF010EE66E28EC11F0E552020E80
:1017F0001DC0DBFF0D5001E011D0DECF2AF0DDCFA0
:101800002BF0000E2A5C100E2B5807E2DECFE9FF0A
:10181000DDCFEAFF020EDBCFEFFF1FDE030EE15C40
:1018200002E2E16AE552E16EE552E7CFD9FF12002C
:10183000D9CFE6FFE1CFD9FF030EE126030EE66E16
:1018400028EC11F0E5521DC0DEFF1EC0DDFF0D507B
:1018500001E025D0DECF2AF0DDCF2BF0000E2A5C90
:10186000100E2B5807E2DECFE9FFDDCFEAFF020EB4
:10187000EFCFDBFF020EDBCFE6FFE66A700E2A6ECB
:10188000410E2B6E2C6A2AC0E6FF2BC0E6FF2CC04F
:10189000E6FF6BEC22F02D6E050EE15E2D50030E7F
:1018A000E15C02E2E16AE552E16EE552E7CFD9FF81
:1018B0001200D9CFE6FFE1CFD9FF030EE126050ED6
:1018C000E66E28EC11F0E5521D50DF6E010EE66E5B
:1018D00028EC11F0E552010E1DC0DBFF010EE66E93
:1018E00028EC11F0E552020E1DC0DBFF0D5001E0A7
:1018F00072D0020EDB50010802E20D8C6CD0010E9A
:10190000DB50070802E20D8C66D0410E2A6EDF50D4
:101910002A5C1CE1020EDB500DE1010EF36E010E9C
:10192000DB5004E0D890F336E806FCE1F350E81C05
:1019300092160BD0010EF36E010EDB5004E0D8902E
:10194000F336E806FCE1F350921244D0420E2A6EC0
:10195000DF502A5C1CE1020EDB500DE1010EF36E3C
:10196000010EDB5004E0D890F336E806FCE1F350BA
:10197000E81C93160BD0010EF36E010EDB5004E051
:10198000D890F336E806FCE1F350931223D0430ECF
:101990002A6EDF502A5C1CE1020EDB500DE1010EC5
:1019A000F36E010EDB5004E0D890F336E806FCE15C
:1019B000F350E81C94160BD0010EF36E010EDB50B1
:1019C00004E0D890F336E806FCE1F350941202D01C
:1019D0000D8C01D042DD030EE15C02E2E16AE552CA
:1019E000E16EE552E7CFD9FF1200D9CFE6FFE1CF94
:1019F000D9FF030EE126020EDB6A050EE66E28EC27
:101A000011F0E5521D50DF6E010EE66E28EC11F06C
:101A1000E552010E1DC0DBFF0D5001E05CD0010E50
:101A2000DB50070802E20D8C56D0410E2A6EDF50C3
:101A30002A5C10E1010EF36E010EDB5004E0D89039
:101A4000F336E806FCE1F3508014E76E020EE7CFB0
:101A5000DBFF2CD0420E2A6EDF502A5C10E1010E13
:101A6000F36E010EDB5004E0D890F336E806FCE19B
:101A7000F3508114E76E020EE7CFDBFF17D0430E61
:101A80002A6EDF502A5C10E1010EF36E010EDB506E
:101A900004E0D890F336E806FCE1F3508214E76ED8
:101AA000020EE7CFDBFF02D00D8C15D0020EDBCF8C
:101AB000E6FFE66A670E2A6E410E2B6E2C6A2AC07C
:101AC000E6FF2BC0E6FF2CC0E6FF6BEC22F02D6E8C
:101AD000050EE15E2D50030EE15C02E2E16AE55283
:101AE000E16EE552E7CFD9FF1200D9CFE6FFE1CF93
:101AF000D9FF030EE126050EE66EAADBE5521D5066
:101B0000DF6E010EE66EA4DBE552010E1DC0DBFFA9
:101B1000010EE66E9DDBE552020E1DC0DBFF0D508F
:101B200001E072D0020EDB50010802E20D8C6CD095
:101B3000010EDB50070802E20D8C66D0410E2A6EC2
:101B4000DF502A5C1CE1020EDB500DE1010EF36E4A
:101B5000010EDB5004E0D890F336E806FCE1F350C8
:101B6000E81C89160BD0010EF36E010EDB5004E069
:101B7000D890F336E806FCE1F350891244D0420EC7
:101B80002A6EDF502A5C1CE1020EDB500DE1010ED3
:101B9000F36E010EDB5004E0D890F336E806FCE16A
:101BA000F350E81C8A160BD0010EF36E010EDB50C9
:101BB00004E0D890F336E806FCE1F3508A1223D013
:101BC000430E2A6EDF502A5C1CE1020EDB500DE151
:101BD000010EF36E010EDB5004E0D890F336E806F8
:101BE000FCE1F350E81C8B160BD0010EF36E010ED6
:101BF000DB5004E0D890F336E806FCE1F3508B129A
:101C000002D00D8C01D029DC030EE15C02E2E16A16
:101C1000E552E16EE552E7CFD9FF12001EDC12005B
:101C20001CDC12001ADC1200D9CFE6FFE1CFD9FF8D
:101C3000040EE126050EE66E0BDBE5521D50DF6E4D
:101C4000010EE66E05DBE552010E1DC0DBFF030E43
:101C5000E66EFEDAE552020E1DC0DBFF030E1EC06B
:101C6000DBFF0D5001E07BD0D950020FE96EDACFD7
:101C7000EAFF720ED880EE542E0EED5402E20D8C67
:101C80006ED0D950020FE96EDACFEAFFEE50ED10B8
:101C90001FE02D682E682F6A2D0EE76E020EDBCF37
:101CA00030F0030EDBCF31F0E7503026000E31224A
:101CB000326A30502D5C2A6E31502E582B6E3250C5
:101CC0002F582C6E020E2AC0DBFF030E2BC0DBFF49
:101CD000010EDB50070802E20D8C41D0410E2A6E46
:101CE000DF502A5C02E1DF6A12D0420E2A6EDF501A
:101CF0002A5C03E1080EDF6E0AD0430E2A6EDF5025
:101D00002A5C03E1100EDF6E02D00D8C28D0010E8C
:101D1000DB50DF24E96EEA6AD890E936EA36690ECC
:101D2000E926010EEA22020EDBCFEEFF030EDBCF27
:101D3000EDFF010EDB50DF24EA6A510FE96E010E60
:101D4000EA22EF040AE1010EDB50DF24EA6A510FB8
:101D5000E96E010EEA22020EEF6E2DEC0AF0040E7F
:101D6000E15C02E2E16AE552E16EE552E7CFD9FFBC
:101D70001200D9CFE6FFE1CFD9FF050EE126010E13
:101D8000E66E66DAE5521D50DF6E010EE66E60DA31
:101D9000E552020E1DC0DBFF010EE66E59DAE55278
:101DA000030E1DC0DBFF010EE66E52DAE552010E96
:101DB0001DC0DBFF010EE66E4BDAE552040E1DC0BE
:101DC000DBFF0D5001E012D0DFCF99F1020EDBCF27
:101DD0009BF1010EDBCF9AF1030EDBCF9CF1040ED9
:101DE000DBCF9DF199C189FF2DEC0AF0050EE15C76
:101DF00002E2E16AE552E16EE552E7CFD9FF120057
:101E0000D9CFE6FFE1CFD9FF040EE126030EDB6A4E
:101E10000101A151EA6A400FE96E020EEA22EF5079
:101E20002C081DE00101A151EA6A400FE96E020E83
:101E3000EA22EF50E66EE66A400E2A6E410E2B6EE5
:101E40002C6A2AC0E6FF2BC0E6FF2CC0E6FF6BEC35
:101E500022F02D6E050EE15E2D500D8A0ED101018E
:101E6000A12B400E0101A15D02E10101A16B99C10D
:101E700089FF01019A1D89142A6E891C01019A1596
:101E80002A10E76E010EE7CFDBFF0101A151EA6ADC
:101E9000400FE96E020EEA22EF500D0801E1EBD08F
:101EA0000101A151EA6A400FE96E020EEA22EF50E9
:101EB000E66EE66A64EC23F0E552E552020EF3CFDB
:101EC000DBFF300EF36E020EDBCFF4FFF350F45C59
:101ED0000FE3020EDB5039080BE3300E2A6E020EC0
:101EE000DBCFE7FF2A50E75E020EE7CFDBFF19D01A
:101EF000410EF36E020EDBCFF4FFF350F45C0FE300
:101F0000020EDB5046080BE3370E2A6E020EDBCFC3
:101F1000E7FF2A50E75E020EE7CFDBFF02D00D8C11
:101F2000ACD0020EDB38F00BDF6E0101A12B400EAE
:101F30000101A15D02E10101A16B0D0E2A6E0101FB
:101F4000A151EA6A400FE96E020EEA22EF502A5CC4
:101F500002E10D8892D00101A151EA6A400FE96EB9
:101F6000020EEA22EF50E66EE66A64EC23F0E552D8
:101F7000E552020EF3CFDBFF300EF36E020EDBCF25
:101F8000F4FFF350F45C0FE3020EDB5039080BE36F
:101F9000300E2A6E020EDBCFE7FF2A50E75E020EFC
:101FA000E7CFDBFF19D0410EF36E020EDBCFF4FF5B
:101FB000F350F45C0FE3020EDB5046080BE3370EE0
:101FC0002A6E020EDBCFE7FF2A50E75E020EE7CF54
:101FD000DBFF02D00D8C51D0020EDB50DF24DF6E10
:101FE0000101A12B400E0101A15D02E10101A16BE4
:101FF000DF508A6E010EDB50896E01019D5105E0B4
:102000009DC1E6FF03EC24F0E55299C189FF01016F
:102010009C5130E0030E9CC1DBFF0101995101018D
:102020009B152A6E01019B5180142A5C0BE1030E63
:10203000DB5008E000000000000000000000030E7C
:10204000DB06EBD7030E9CC1DBFF010199510101B7
:102050009B152A6E01019B5180142A5C0BE0030E34
:10206000DB5008E000000000000000000000030E4C
:10207000DB06EBD70AD72DEC0AF0040EE15C02E296
:10208000E16AE552E16EE552E7CFD9FF1200D9CF00
:10209000E6FFE1CFD9FF050EE126030EDB6A040E51
:1020A000DB6A010EE66ED4D8E552040E1DC0DBFFDC
:1020B000040EDB5004E0040EDB50380802E20D8C05
:1020C00098D00101A151EA6A400FE96E020EEA229E
:1020D000EF502C081DE00101A151EA6A400FE96EA2
:1020E000020EEA22EF50E66EE66A400E2A6E410EBC
:1020F0002B6E2C6A2AC0E6FF2BC0E6FF2CC0E6FF41
:102100006BEC22F02D6E050EE15E2D500D8A71D024
:102110000101A12B400E0101A15D02E10101A16BB2
:1021200099C189FF01019A1D89142A6E891C010138
:102130009A152A10E76E010EE7CFDBFF040EDB5085
:1021400056E00101A151EA6A400FE96E020EEA224F
:10215000EFCFDFFF0101A12B400E0101A15D02E1E4
:102160000101A16B040EDB06DF508A6E010EDB500D
:10217000896E01019D5105E09DC1E6FF03EC24F04D
:10218000E55299C189FF01019C5130E0030E9CC1C9
:10219000DBFF0101995101019B152A6E01019B5141
:1021A00080142A5C0BE1030EDB5008E00000000005
:1021B000000000000000030EDB06EBD7030E9CC1FD
:1021C000DBFF0101995101019B152A6E01019B5111
:1021D00080142A5C0BE0030EDB5008E000000000D6
:1021E000000000000000030EDB06EBD7A7D72DECA4
:1021F0000AF0050EE15C02E2E16AE552E16EE552A9
:10220000E7CFD9FF12002DEC0AF012002DEC0AF0F6
:1022100012002DEC0AF012002DEC0AF012002DEC49
:102220000AF012002DEC0AF012000101010ED66F27
:10223000D5EC05F00A0E026E036A0101A96BAA6BC8
:102240000101A76BA86BCA8412000101D66B1200B2
:10225000D9CFE6FFE1CFD9FF040EE126030EDB6AFA
:102260000D0E2A6E0101A151EA6A400FE96E020EBD
:10227000EA22EF502A5C05E10D881D6A1E6A1F6A7A
:1022800093D10101A151EA6A400FE96E020EEA22E0
:10229000EF502C0820E00101A151EA6A400FE96EDD
:1022A000020EEA22EF50E66EE66A400E2A6E410EFA
:1022B0002B6E2C6A2AC0E6FF2BC0E6FF2CC0E6FF7F
:1022C0006BEC22F02D6E050EE15E2D500D8A1D6A1D
:1022D0001E6A1F6A69D10101A12B400E0101A15D97
:1022E00002E10101A16B2D0E2A6E0101A151EA6AE2
:1022F000400FE96E020EEA22EF502A5C28E1040E3C
:102300002B6EFE0EDB502B5C22E0050E2C6EFE0EBB
:10231000DB502C5C1CE0FE0EDB0406E0030E2A6E94
:10232000FE0EDB502A5C06E10D8C1D6A1E6A1F6AD8
:102330003BD10DD0010EF36E030EF3CFDBFF010195
:10234000A12B400E0101A15D02E10101A16B040E70
:102350002A6EFE0EDB502A5C11E0050E2B6EFE0E7F
:10236000DB502B5C0BE0050EE66ED9CFE6FFDACF33
:10237000E6FF24D9E552E552E5523AD00101A151D8
:10238000EA6A400FE96E020EEA22EFCF2AF02B6ACA
:102390002C6A2AC0DFFF010E2BC0DBFF020E2CC00F
:1023A000DBFF050E2A6EFE0EDB502A5C19E1000EE3
:1023B000DBCFE6FF010EDBCFE6FF64EC23F0E55256
:1023C000E552F3CF2AF0F4CF2BF02C6A2BBE2C6809
:1023D0002AC0DFFF010E2BC0DBFF020E2CC0DBFF8B
:1023E0000101A12B400E0101A15D02E10101A16BE0
:1023F000030EDB5021E0DFCF2AF0010EDBCF2BF004
:10240000020EDBCF2CF02268236824682AC01DF05E
:102410002BC01EF02CC01FF03FEC21F01AC02AF098
:102420001BC02BF01CC02CF02AC0DFFF010E2BC0FC
:10243000DBFF020E2CC0DBFFFE0EDB5026E1DFCF00
:102440002AF0010EDBCF2BF0020EDBCF2CF02C3468
:10245000000E2C1807E6D8807F0E2A54000E2B544D
:10246000000E2C5401E28CD0D9CFE9FFDACFEAFF7D
:10247000020ED880EB50FF0A06E6800EEE5CFF0EDF
:10248000EE58FF0EEF5801E27BD0FE0EDB0424E194
:10249000DFCF2DF0010EDBCF2EF0020EDBCF2FF0C1
:1024A0002F34000E2F1807E6D880FF0E2D54000E93
:1024B0002E54000E2F5464E3D9CFE9FFDACFEAFFA0
:1024C000020ED890EB50000A06E6000EEE5C000EFD
:1024D000EE58000EEF5854E3020E306EFE0EDB5045
:1024E000305C24E1DFCF31F0010EDBCF32F0020EA1
:1024F000DBCF33F03334000E331807E6D880FF0EFD
:1025000031547F0E3254000E33543AE3D9CFE9FFF1
:10251000DACFEAFF020ED880EB50FF0A06E6000E83
:10252000EE5C800EEE58FF0EEF582AE3030E346E79
:10253000FE0EDB50345C29E1DFCF35F0010EDBCF3E
:1025400036F0020EDBCF37F03734000E371807E6CF
:10255000D880FF0E3554FF0E3654000E375410E36A
:10256000D9CFE9FFDACFEAFF020ED890EB50000A8C
:1025700006E6000EEE5C000EEE58000EEF5805E287
:102580000D8C1D6A1E6A1F6A0FD0DFCF2AF0010E64
:10259000DBCF2BF0020EDBCF2CF02AC01DF02BC0BE
:1025A0001EF02CC01FF000D0040EE15C02E2E16AD4
:1025B000E552E16EE552E7CFD9FF1200D9CFE6FF31
:1025C000E1CFD9FF020EE126FD0EDBCFE9FFFE0EC3
:1025D000DBCFEAFFEE6AEE6AEE6A010EDB6AFC0E02
:1025E000DB50F36E010EDBCFF4FFF350F45C55E2E9
:1025F0000101A151EA6A400FE96E020EEA22EFCF13
:10260000DFFF300EDF5C44E3DF50390841E3FD0EAD
:10261000DBCFE9FFFE0EDBCFEAFFEECF2DF0EECFF2
:102620002EF0EFCF2FF00A0E226E236A246A2DC0FF
:102630001DF02EC01EF02FC01FF03FEC21F01AC07D
:102640002DF01BC02EF01CC02FF0300EDF5C306E62
:10265000316A326A2D5030242A6E2E5031202B6E72
:102660002F5032202C6EFD0EDBCFE9FFFE0EDBCFAC
:10267000EAFF2AC0EEFF2BC0EEFF2CC0EEFF0101E7
:10268000A12B400E0101A15D02E10101A16B02D06D
:10269000000E05D0010EDB2AA2D7010E00D02A6E53
:1026A000020EE15C02E2E16AE552E16E2A50E55277
:1026B000E7CFD9FF12000650E66EE66A340E2A6EA6
:1026C000410E2B6E2C6A2AC0E6FF2BC0E6FF2CC001
:1026D000E6FF6BEC22F02D6E050EE15E2D50120030
:1026E0000101E85108E0010E2A6E6D50020B01E075
:1026F000010E2A5C02E18B905DD00101E8050CE03F
:10270000020E0101E85D08E0030E0101E85D04E04E
:10271000050E0101E85D02E18B804CD0060E01013F
:10272000E85D48E10101D807000ED95B0101DA51EB
:102730000EE10101D851D91109E18B800101100E80
:10274000D86F270ED96F0101010EDA6F33D0010166
:10275000DA050EE10101D851D91109E18B9001018F
:10276000100ED86F270ED96F0101020EDA6F22D03A
:10277000020E0101DA5D0EE10101D851D91109E122
:102780008B800101A00ED86F860ED96F0101030E58
:10279000DA6F10D0030E0101DA5D0CE30101D851AC
:1027A000D91108E18B900101100ED86F270ED96F57
:1027B0000101DA6B120082B403D0010E03D002D003
:1027C000000E00D012000101D65101E1BED001017E
:1027D000DB5131E0010EDCC1E7FFE75204E0E846DF
:1027E000FE0BE706FCE19212010EDEC1E7FFE752A5
:1027F00004E0E846FE0BE706FCE19212010EDCC1A4
:10280000E7FFE75204E0E846FE0BE706FCE1801430
:102810000101B06FB16B010EDEC1E7FFE75204E0CA
:10282000E846FE0BE706FCE180140101B26FB36BD2
:102830000101DB6B8AD0B0C1ACF1B1C1ADF1B2C165
:10284000AEF1B3C1AFF1010EDCC1E7FFE75204E026
:10285000E846FE0BE706FCE180140101B06FB16BA6
:10286000010EDEC1E7FFE75204E0E846FE0BE70693
:10287000FCE180140101B26FB36B01010101B051A1
:102880000101AC192C6E01010101B1510101AD1919
:102890002D6EB0C12EF0B1C12FF02E1E2F1E2C5068
:1028A0002E142A6E2D502F142B6E2A502B1019E047
:1028B000A9C1E6FFAAC1E6FFA7C1E6FFA8C1E6FFDE
:1028C0002A0E2A6E410E2B6E2C6A2AC0E6FF2BC000
:1028D000E6FF2CC0E6FF6BEC22F02D6E070EE15EEA
:1028E0002D5001010101B2510101AE192C6E0101FF
:1028F0000101B3510101AF192D6EB2C12EF0B3C168
:102900002FF02E1E2F1E2C502E142A6E2D502F14F9
:102910002B6E2A502B1019E0A9C1E6FFAAC1E6FFD1
:10292000A7C1E6FFA8C1E6FF200E2A6E410E2B6E5E
:102930002C6A2AC0E6FF2BC0E6FF2CC0E6FF6BEC3A
:0C29400022F02D6E070EE15E2D501200FB
:04294C00E2EC19F0B0
:10295000FB0EDBCFF3FFDB06F35000090AE030EC9F
:102960001AF0FA0E9BEC1AF0F3E12B1CF1E1010EC8
:1029700001D0000E11EF1AF0E2EC19F03B0EE12449
:1029800002E3E168E652E16E010EDB6A020EDB6AE9
:10299000F90EDBCFF6FFFA0EDBCFF7FFFB0EDBCF36
:1029A000F8FF0800F550DF6EDF5002E135EF19F057
:1029B000250EDF5C02E028EF19F0030EDB6A040E3F
:1029C000DB6A050EDB6A060EDB6A070EDB6A4AEC81
:1029D00019F02D0EDF5C0CE02B0EDF5C09E0200E01
:1029E000DF5C06E0230EDF5C03E0300EDF5C1AE103
:1029F000DF50300A14E0130A0FE0030A0AE00B0A62
:102A000005E0060AE4E1030EDB80E1D7030EDB827A
:102A1000DED7030EDB84DBD7030EDB86D8D7030EAD
:102A2000DB88D5D72A0EDF5C1BE146EC19F094EC6D
:102A300019F010E0030EDB801E681F68130EDBCF59
:102A400023F0140EDBCF24F088EC21F0040E1CC020
:102A5000DBFF03D0130E7DEC19F04AEC19F00BD01C
:102A6000090EDB6AEBEC19F003E05FEC1AF0FAD721
:102A7000090E7DEC19F0030EDBB0DB982E0EDF5C47
:102A80001BE14AEC19F02A0EDF5C0BE146EC19F071
:102A900094EC19F003E1130ECFEC19F04AEC19F0A5
:102AA0000BD0090EDB6AEBEC19F003E05FEC1AF0D7
:102AB000FAD7090ECFEC19F0680EDF5C07E14AEC9B
:102AC00019F0680EDF5C1DE1030E18D0740EDF5C98
:102AD00017E07A0EDF5C14E0480EDF5C06E0540E6F
:102AE000DF5C03E05A0EDF5C02E1020E07D06C0EE1
:102AF000DF5C03E06A0EDF5C04E1010E22EC1AF0F9
:102B0000C9DBDF506E0A01E17FD31E0A01E192D1D9
:102B1000200A01E18FD13F0A01E149D11A0A01E1FE
:102B200046D10D0A01E143D1200A01E140D13A0A20
:102B300001E13DD1200A01E13AD1260A01E135D176
:102B40000D0A01E132D11A0A01E1D9D0200A4AE086
:102B5000300A1FE0460A0EE0250A01E083D3D9506F
:102B6000F90FE96EFF0EDA20EA6E010EEE5E000E3E
:102B7000EE5AEE5A30EC1AF0250EE66E95DB03E1C4
:102B80002B1C01E169D32CEC1AF001E26BD3DB2A98
:102B900069D3080EDB6A040EDB50010806E2040E5E
:102BA000DB04F4EC19F0DB508BDB080EDB5009E0A2
:102BB000030EDB50010B05E172DB01E04DD3080E83
:102BC000DB6A64DBEFCFDFFFA4EC1AF003E12B1C20
:102BD00001E142D32CEC1AF001E3DB2A60DB01E1D6
:102BE00041D33AD3070EDB5002080FE170EC1AF024
:102BF000030E37EC1AF00E0EEECFDBFF0F0EEECF0A
:102C0000DBFF100EEECFDBFF20D0F70EDBCF2DF079
:102C1000F80EDBCF2EF0020E2D5E000E2E5AF70EB0
:102C20002DC0DBFFF80E2EC0DBFF2DC0E9FF2EC04C
:102C3000EAFF27EC1AF02C6A0E0E2AC0DBFF0F0EFB
:102C40002BC0DBFF100E2CC0DBFF0E0EDBCFE6FF30
:102C50000F0EDBCFE6FF100EDBCFE6FF3FEC23F0DD
:102C6000E552E552E552130E1DC0DBFF140E1EC0E7
:102C7000DBFF060EDB5005E0130E6BEC1AF001E2F1
:102C80006ADB8FEC1AF002E2130E37DB52EC1AF01B
:102C900006E0040E6BEC1AF002E2050E2EDB030ECA
:102CA000DBB005D0FCDA01E0D7D2080EDB6A090EF2
:102CB000DB6A0E0EDBCFF6FF0F0EDBCFF7FF100E39
:102CC000DBCFF8FF0800F550DF6EDF5014E095EC25
:102CD0001AF011E2A4EC1AF003E12B1C01E1BCD2C2
:102CE000BBDB01E3DB2A090EDB2AD9500E0FE96EAC
:102CF000000ECBDBE7D7D3DA01E1B4D2ADD2C6DA2E
:102D0000110EEECFDBFF120EEDCFDBFF110EDBCF8E
:102D1000E6FF120EDBCFE6FF31EC23F0E552E55281
:102D2000130EF3CFDBFF140EF4CFDBFF060EDB50E8
:102D300004E0130ED0DB01E20EDB8FEC1AF002E2AE
:102D4000130EDBDAAFDB05E0040EC5DB02E2050E95
:102D5000D4DA030EDBB005D0A2DA01E07DD2080E92
:102D6000DB6A090EDB6A110EDBCFE9FF120EDBCF47
:102D7000EAFFEFCFDFFFDF5014E0D7DB12E2E4DB46
:102D800003E12B1C01E168D267DB01E3DB2A090EBA
:102D9000DB2A110EDB2ADBCFE9FF120EE8E3DB2A88
:102DA000E6D77DDA01E15ED257D2030EDB8E070E45
:102DB000DB0410E195DB040E5ADB0A0EEECFDBFFDD
:102DC0000B0EEECFDBFF0C0EEECFDBFF0D0EEECFCA
:102DD000DBFF6CD0070EDB5003082CE1030EDBAEEB
:102DE0000DD0B2DA020E76DAEFCF2AF02B6A2C6A17
:102DF0002D6A2AAE39D02B682C6835D0F70EDBCF80
:102E00002BF0F80EDBCF2CF0020E2B5E000E2C5AAE
:102E1000F70E2BC0DBFFF80E2CC0DBFF2BC0E9FF49
:102E20002CC0EAFFEFCF2AF00A0E2AC0DBFF0B0E00
:102E3000DB6A38D0070EDB50020809E1030EDBAE77
:102E400004D059DB2CAE10D00ED055DB0DD0030EC4
:102E5000DBAE12D079DA020E3DDAF9DA2C6A2D6A8D
:102E60002BAE02D02C682D68E2DA0C0E2CC0DBFFF2
:102E70000D0E2DC0DBFF1AD0F70EDBCF2CF0F80EB5
:102E8000DBCF2DF0020E2C5E000E2D5AF70E2CC05B
:102E9000DBFFF80E2DC0DBFF2CC0E9FF2DC0EAFFE1
:102EA000D6DAC5DA0C0EDB6A0D0EDB6A060EDB50D5
:102EB00005E1010EF36E050EF3CFDBFF150EDB6AA5
:102EC000160EDB6AD950370F2A6E000EDA202B6EF1
:102ED000390E2AC0DBFF3A0E2BC0DBFF380EDB6A4F
:102EE000080EDB6A0A0EAEDADF50780A12E0200A1A
:102EF00010E0280A0CE0200A0AE03F0A06E00D0A6A
:102F000002E0200A08E1020E05D0080E03D0080EE8
:102F1000DF26100E97DA030EDBBE02D0DB92DB94C5
:102F2000DB50800B24E08ADAD890030EEB50000AC5
:102F300008E6000EEE5C000EEE58000EEE58000E95
:102F4000EE5815E213DA2168226823682468F9EC48
:102F500022F00A0E18C0DBFF0B0E19C0DBFF0C0EAF
:102F60001AC0DBFF0D0E1BC0DBFF2D0E08D0030EB9
:102F7000DBA202D02B0E03D0DBA408D0200EF36E10
:102F8000170EF3CFDBFF150EDB2A02D0170EDB6A1C
:102F9000050EDB5003E1B7D901E189D01C0E2A6E82
:102FA000480E2B6E000E2C6E070EDBCF2DF02E6A16
:102FB0002F6A306A2DC021F02EC022F02FC023F0DE
:102FC00030C024F0D3D98AEC23F02A501824F36EB1
:102FD0002B501920F46E2C501A20F86EF4CFF7FF06
:102FE000F3CFF6FF0800090EF5CFDBFF580EDF5CCC
:102FF0000FE1610EF36E090E7BD90AE3200E2A6EF3
:10300000090EDBCFE7FF2A50E75E090EE7CFDBFFB3
:10301000070EDBCF2AF02B6A2C6A2D6A0FDA2AC042
:1030200021F02BC022F02CC023F02DC024F0EECFD5
:103030001CF0EECF1DF0EECF1EF0EFCF1FF08AECAC
:1030400023F01FC0EDFF1EC0EDFF1DC0EDFF1CC033
:10305000EFFF390EDBCFE9FFDB063A0EDBCFEAFFED
:1030600001E2DB06090EDBCFEFFF150EDB2A4BD9A1
:1030700095E1030EDBA61DD06F0EDF5C06E1C1D922
:1030800018E3150EDB285BDA14D0780EDF5C09E05C
:10309000580EDF5C06E0620EDF5C03E0420EDF5C90
:1030A00008E1020EF36E160EF3CFDBFF02D0150E11
:1030B000DB6A030EDB50100B0EE0040EDBCF2AF0B0
:1030C000050EDB50D8802A5406E2060EDB5003E1E1
:1030D000040EDB5034DA95D90AE2050EDBCFE7FFA8
:1030E000150EDB50E75E050EE7CFDBFF02D0050EC5
:1030F000DB6A040EDBCF2AF0160E45D9D8802A549D
:1031000014E2160EDBCFE6FF150EDBCFE6FF040E52
:10311000DBCFE6FF050EDB50E552E75CE552D880D9
:10312000E754E552D880E7545FD9030EDB50010B1A
:103130000BE1080EDB5008E0B2D801E08DD0080E9C
:10314000DB50BED8080EDB6A170EDB5007E088D9CB
:10315000170EF1D903E12B1C01E17ED0160EDB50D6
:1031600016E07ED9300EE66E9FD802E12B1C74E08B
:1031700077D9DFCFE6FFB7EC22F0E552E552E55212
:10318000F4CF2BF00001F31C02E12B1C65E0050ECF
:10319000DBCF2AF0160EDB50D8802A5409E2050E48
:1031A000DBCFE7FF160EDB50E75E050EE7CFDBFF58
:1031B000300EE66E050ECBD94FE1390EDB2ADBCFA0
:1031C000E9FF3A0E01E3DB2ADBCFEAFF090EEFCF7E
:1031D000DBFFDB500EE044D9090EADD902E12B1C18
:1031E0003BE0390EDB2ADBCFE9FF3A0EEDE3DB2AC9
:1031F000EBD755D831E1160EDBCFE6FF080EC3D86A
:10320000E552E7245DD82ED0070EDB50030A1CE000
:10321000010A14E0030A07E07BD9DBCFEEFF020EC0
:10322000DBCFEDFF1FD0F5D82F6A2DAE02D02E6870
:103230002F682CD8BCD82FC0EEFF14D0EAD82DBEF2
:103240002E6824D8B4D80ED063D9DBCFEFFF0AD0D4
:103250007BD905E12B1C03E1F368F46810D0FCD89E
:1032600001E3DB2A79D9D1EF14F0010EDBCF2AF08C
:10327000020EDBCF2BF02AC0F3FF2BC0F4FF3B0E76
:10328000E15C02E2E16AE552E16ECBD029D9020E9F
:1032900037EF1AF061D90800F550DF6E1200200EEA
:1032A000E66E080EA7EF1AF0B7EC22F0E552E552F1
:1032B000E552F3CF2AF0F4CF2BF00001F31C1200FB
:1032C0002A6E2B6AD950010F4DD92A50EE262B5069
:1032D000ED2212002E5E000E2F5AF70E2EC0DBFFDD
:1032E000F80E2FC0DBFF2EC0E9FF2FC0EAFF12004F
:1032F000DBCFF4FFF350F45C1200DB50E76E040EFA
:10330000E7CFDBFF12000A0EDBCF2AF00B0EDBCF7C
:103310002BF00C0EDBCF2CF00D0EDBCF2DF02A5056
:103320002B102C102D101200130EEECFDBFF140EFD
:10333000EDCFDBFF130EDBCF2AF0140EDBCF2BF02B
:103340000001800E2B141200F70EDBCF2EF0F80ECA
:10335000DBCF2FF01200050EDB50E66ED950130FB5
:1033600001D9E552E750EE6EED6A12000A0EDBCF8E
:103370001CF00B0EDBCF1DF00C0EDBCF1EF00D0E84
:10338000DBCF1FF01200DBCFE6FF150EDBCFE6FF31
:10339000050EDB50E552E724E552E7241200DB502E
:1033A000CED8010EF36E060EF3CFDBFF1200EE5007
:1033B000EFCFEAFFE96E2CC0EEFF2DC0EEFF2EC06E
:1033C000EEFF1200D9CFE6FFDACFE6FFE1CFD9FF5B
:1033D000E2CFDAFF1200DFCFE6FFE66A78EC23F0F7
:1033E000E552E552F3501200E76E080EE7CFDBFF1F
:1033F0001200EECF2AF0EECF2BF0EFCF2CF02D6A9B
:103400001200050EDBCF2AF0150EDB50D8802A54AF
:103410001200010EDBCF2CF0020EDBCF2DF02E6A56
:103420001200E552E5CFDAFFE7CFD9FF12000A0E0E
:103430002AC0DBFF0B0E2BC0DBFF1200D9500A0F96
:10344000B2EF1AF0F36E070EF3CFDBFF1200EECFF0
:103450002AF0EFCF2BF01200010EDB2A020E120031
:10346000FC0EDBCFE6FFFD0EDBCFE6FF12002A5E8F
:10347000000E2B5AF70E2AC0DBFFF80E2BC0DBFF25
:103480002AC0E9FF2BC0EAFF1200DA20EA6EEF2A19
:10349000EECFF6FF000EEF22EECFF7FFEF22EECFDA
:1034A000F8FF1200040EDBCFE6FF130EDB50E552EF
:1034B000E75C9ADFDB5004DF060EDB501200090EDA
:1034C000DB500A0DF350DF24D00FE76E090EE7CF73
:1034D000DBFF4AEF19F0DB50F36E050E78EF19F0C1
:1034E000F70EDBCF2AF0F80EDBCF2BF01200DFCF88
:1034F000E6FF54EF19F028DF030EECDEF9EF19F0C8
:10350000A6EC14F0E552E552E552E552000912002E
:10351000BDDEEE50EFCFEAFFE96E010E1200130E92
:10352000DB50F36E040E78EF19F0040EDB50F36EEF
:10353000090E78EF19F0DBCFE6FF54EF19F0E76ED4
:10354000050EE7CFDBFF12008BDF77EF1AF0DBCF42
:10355000E6FF86DF80EF1AF0D950F90FE96EFF0E13
:0E35600045EF1AF0E96E000EDA20EA6E120056
:02356E00040156
:1035700020511F0B010801E060D004012051600BB5
:10358000E842E842E842E842E842010801E055D05A
:103590000401245104E00401240501E04ED004019B
:1035A0002151230A48E0010A40E0030A30E0010A01
:1035B00025E0240A22E0070A1FE0010A1CE0030AB2
:1035C00011E0010A01E038D00101030EE16F0101B1
:1035D000C40EE26F010EE36F0101E9930101080ED1
:1035E000E66F2BD00101030EE16F0101C40EE46F01
:1035F000010EE56F22D021D020D01FD00101030E93
:10360000E16F0101BC0EE46F010EE56F16D0010100
:10361000030EE16F0101BC0EE26F010EE36F0101C9
:10362000E9930101070EE66F08D00101030EE16F77
:1036300022C4C3F102D001D000D012000101BC6B42
:10364000C20EBD6F010EBE6FBF6B0101C06B0101E9
:10365000C16B0101080EC26F0101B56B0101B46BB2
:103660001A0E726E1E0E736E0401000E166F050E9A
:10367000176F0401400E146F0401400E196F04010E
:10368000080E1A6F050E1B6F0401880E186F0401D7
:10369000480E1E6F050E1F6F0401400E1C6F1200B6
:1036A000D9CFE6FFE1CFD9FF0101B46B040118BF08
:1036B00039D0FC0EDBCF2AF004011951D8802A54EE
:1036C00003E2FC0E19C4DBFF0101B46BFC0EDB50FE
:1036D0000101B45D1CE20101B451EA6A080FE96E10
:1036E000050EEA22EF50E66E0101B451E76EFD0EC1
:1036F000DBCFE9FFFE0EDBCFEAFFE750E926000E45
:10370000EA22E552E750EF6E0101B42BDFD7040146
:10371000400E196F400E040118170401187D880E21
:10372000040118130101B45100D0E552E7CFD9FFCD
:103730001200D9CFE6FFE1CFD9FFE6520101B55122
:1037400001E031D0DF6ADF2ADF502A6E2B6A2A506F
:1037500002E1010E2B1801E10BD0FD0EDBCFE9FFDA
:10376000DB2AFE0EDBCFEAFF01E3DB2AEF50EBE1C1
:10377000DF502A6E2B6AD950FD0FE96EFF0EDA205A
:10378000EA6E2A50EE5E2B50ED5ADF06FD0EDBCFBF
:10379000B6F1FE0EDBCFB7F1DFCFBAF10101BB6BA3
:1037A0000101010EB56FE552E552E7CFD9FF1200D6
:1037B000D9CFE6FFE1CFD9FFE6520101B55101E0D3
:1037C00033D0DF6ADF2ADF502A6E2B6AFF0E2A18F9
:1037D00001E12B5001E10CD0FD0EDBCFF6FFDB2A1F
:1037E000FE0EDBCFF7FF01E3DB2A0800F550EAE12C
:1037F000DF502A6E2B6AD950FD0FE96EFF0EDA20DA
:10380000EA6E2A50EE5E2B50ED5ADF06FD0EDBCF3E
:10381000B6F1FE0EDBCFB7F1DFCFBAF10101010E39
:10382000BB6F0101010EB56FE552E552E7CFD9FF3D
:103830001200D9CFE6FFE1CFD9FFE65204011CBF49
:103840007DD0030E0101B55D02E10101B56B0101FF
:10385000B55101E173D0020E0101B55D06E104012D
:103860001D6B0101030EB56F61D00101B5055EE16D
:10387000400E2A6E2B6A0101BA512A5C000E2B58A9
:1038800003E2400EDF6E02D0BAC1DFFFDFCF1DF4CE
:10389000DF500101BA5D0101BA6F0101480EB86F36
:1038A000050EB96F0101BB0518E1DF5015E0B6C187
:1038B000F6FFB7C1F7FF0800F550B8C1E9FFB9C17D
:1038C000EAFFEF6E0101B82B000EB9230101B62B00
:1038D000000EB723DF06E9D716D0DF5014E0B6C1DB
:1038E000E9FFB7C1EAFFEF50B8C1E9FFB9C1EAFF8C
:1038F000EF6E0101B82B000EB9230101B62B000EAB
:10390000B723DF06EAD70101BA5110E104011D51C6
:103910002A6E2B6A400E2A1801E12B5004E10101A6
:10392000020EB56F03D00101030EB56F400E040106
:103930001C1704011C7D880E04011C13E552E5527E
:06394000E7CFD9FF1200E1
:0A3946006C5002E0000E01D0010EEB
:1039500000090BE0040100513C0BE842E8420D086D
:1039600002E10CD801D042D808D06C5002E0000E21
:1039700001D0010E040901E04BD81200D9CFE6FFB7
:10398000E1CFD9FFE6520101E06B0101E16B0101DA
:10399000E66BE76B40EC1EF0DF6ADF502A6E2B6AA5
:1039A000010E2A5C000E2B581BE20101E15101E0DF
:1039B00017D0F76ADF34FE0BF736F66E350EF626B3
:1039C000440EF7220900F5CF2AF00800F5CF2BF0BE
:1039D00004D02BC0FAFF2A50F96EFBDFDF2ADDD7B7
:1039E000F0D8E552E552E7CFD9FF1200020E0101EF
:1039F000E05D0CE1A4D8040100BD04D00401C80EB0
:103A0000006F03D00401880E006F01D029D9120085
:103A1000040E0101E85D0CE122C46EFF6E50000847
:103A200004E20101050EE86F03D00101030EE86F07
:103A30000101E0050CE10DD8040104BD04D004012E
:103A4000C80E046F03D00401880E046F01D008D99A
:103A50001200D9CFE6FFE1CFD9FF020EE126010126
:103A6000080EE65D000EE75905E2E6C1DEFFE7C19C
:103A7000DDFF03D0080EDE6EDD6A0401049304014D
:103A80000491010EDB5004010413DFCF05F4000E96
:103A9000DB500101E65F010EDB500101E75B010134
:103AA000280EE46F040EE56F0101E9A320D0D9CF01
:103AB000E9FFDACFEAFFEE50ED1018E0E2C1F6FFC1
:103AC000E3C1F7FF0800F550E4C1E9FFE5C1EAFFF3
:103AD000EF6E0101E42B000EE5230101E22B000E45
:103AE000E323DF06010E01E2DB06E1D71ED0D9CFCA
:103AF000E9FFDACFEAFFEE50ED1017E0E2C1E9FF8F
:103B0000E3C1EAFFEF50E4C1E9FFE5C1EAFFEF6E70
:103B10000101E42B000EE5230101E22B000EE3235B
:103B2000DF06010E01E2DB06E2D7020EE15C02E2F3
:103B3000E16AE552E16EE552E7CFD9FF1200D9CF35
:103B4000E6FFE1CFD9FF020EE126030E04010015C6
:103B5000E76E010EE7CFDBFF01C4DFFFDE5001019E
:103B6000E627DD500101E7230101280EE26F040E74
:103B7000E36FD9CFE9FFDACFEAFFEE50ED1017E09F
:103B8000E2C1E9FFE3C1EAFFEF50E4C1E9FFE5C1AB
:103B9000EAFFEF6E0101E42B000EE5230101E22BA9
:103BA000000EE323DF06010E01E2DB06E2D7020E80
:103BB000E15C02E2E16AE552E16EE552E7CFD9FF4E
:103BC00012006D980101E1510FE10401080E016F2F
:103BD0000401200E026F040E036F0401840E006FB7
:103BE0000401840E046F3BD0040120AF25D00101F5
:103BF000E6510401265D0101E7510401275904E261
:103C000026C4E6F127C4E7F124DF0101010EE06FCD
:103C10000401080E016F0401200E026F040E036FF1
:103C20000401800E006F0401280E066F040E076F5A
:103C30000401C80E046F13D00101020EE06F0401ED
:103C4000056B0401C80E046F0401080E016F040126
:103C5000280E026F040E036F0401C80E006F1200DD
:103C60000101E06B0401080E016F0401200E026FD8
:103C7000040E036F0401880E006F0401046B120030
:103C800004012051600BE842E842E842E842E84281
:103C9000000901E058D004012151070A53E00B0A42
:103CA00051E0070A42E0010A2CE00B0A28E0020A70
:103CB00026E0030A22E0080A12E0010A0EE00F0AD9
:103CC0000AE0030A01E03ED00101010EE16F0101AB
:103CD000040EE86F38D038D836D093D834D00101EC
:103CE000010EE16F0101EA0EE26F010EE36F0101C7
:103CF000E9930101010EE66F26D0ABD824D0F9D8A4
:103D000022D00101010EE16F040124510101E26F93
:103D1000E36BEB0E0101E227010E0101E323010138
:103D2000E9930101010EE66F0ED00101010EE16F72
:103D300004012451EA6AEB0FE96E010EEA2222C463
:103D4000EFFF01D000D01200800E0401205D58E189
:103D500004012351030A34E0010A10E0030A01E0E0
:103D60004DD00101010EE16F01016A0EE26F430EB9
:103D7000E36F120E0101E66FE76B40D00101010E07
:103D8000E16F04012251F66EF76AD890F636F736E5
:103D90002B0EF626440EF7220900F5CFE2F10A00B9
:103DA000F5CFE3F1020E0101F76AE225F66EE35169
:103DB000F7220900F5CFE6F10A00F5CFE7F11ED0B2
:103DC0000101010EE16F04012251F66EF76AD890ED
:103DD000F636F7362F0EF626440EF7220900F5CFF9
:103DE000E2F10A00F5CFE3F1E2C1F6FFE3C1F7FF2C
:103DF0000800F5500101E66FE76B00D00101E9838F
:103E000012000101010EE16F0F0EE66E710EE66EFB
:103E10000F0EE66E7BEC20F0E552E552E552010E06
:103E2000E66EEB0EE66E010EE66E7BEC20F0E552E0
:103E3000E552E55222C4EAF10401225104E10101F4
:103E4000050EE86F05D00101060EE86F1EEC1BF0B1
:103E500012000401286B0401296B040120511F0B7F
:103E6000020A14E0030A0EE0010A01E034D0010165
:103E7000010EE16F040128810101E9A102D00401D2
:103E8000288329D00101010EE16F25D00101010E27
:103E9000E16F040124510F0B080DF3502B6A000F42
:103EA0002A6E040E2B2204012451800B01E0010E26
:103EB000040DF35001012A24E46F000E2B20E56F5E
:103EC000E4C1E9FFE5C1EAFFEF50040B03E00401A0
:103ED000010E286F00D00101E1050AE10101280E61
:103EE000E26F040EE36F0101E9930101020EE66F38
:103EF00012000401220511E1040120511F0B0009E9
:103F00000CE10101010EE16F030E0401215D03E1EB
:103F10000101E98102D00101E991040122513EE150
:103F2000040120511F0B020839E1040124510F0B39
:103F3000000934E00101010EE16F040124510F0B6F
:103F4000080DF3502B6A000F2A6E040E2B22040179
:103F50002451800B01E0010E040DF35001012A24CD
:103F6000E46F000E2B20E56F030E0401215D07E1D5
:103F7000840EE4C1E9FFE5C1EAFFEF6E0FD0040152
:103F800024AF06D0E4C1E9FFE5C1EAFFEF6A06D03D
:0E3F9000880EE4C1E9FFE5C1EAFFEF6E120002
:023F9E006DA60E
:103FA00010D802D06DB614D80101E80509E16DBA48
:103FB00007D0686A696A698069880101020EE86F42
:103FC00012006D6A696A6D860101010EE86F1200C8
:103FD0006D6A696A0101E86B1200FADF12000101E3
:103FE000E85101E13AD06850040B04E06950040B39
:103FF00001E03CD86DB231D06850010B04E069504B
:10400000010B01E056D86850100B04E06950100B0A
:1040100001E024D86850400B04E06950400B01E0F7
:104020003DD86850200B04E06950200B01E038D8DF
:104030006850020B04E06950020B01E038D8030E0F
:104040000101E85D01E209D06850080B06E0695003
:10405000080B03E0A3EC1CF06896120069846898D2
:104060006D82A19AA08A0300A09A12006D926994B1
:10407000689412000101E9A110D0F8DF6D840101FC
:10408000080EEC6F070EED6F0101EC07000EED5B03
:104090000101EC51ED11F8E16D941200689C1200E1
:1040A00070A003D030EC1EF07090689A12006892F5
:1040B00012006A6A686A9F0E6B6E7B0E696E6E6A8A
:1040C0000F0EE66E710EE66E0F0EE66E14D8E55218
:1040D000E552E552160E706E68A602D06896FCD7BF
:1040E0006D9830EC1EF00101E9910101EA6B0101CC
:1040F000030EE86F1200D9CFE6FFE1CFD9FFFD0E26
:10410000DBCFE9FFFE0EDBCFEAFFFC0EDB5004E065
:10411000EE6AFC0EDB06F9D7E552E7CFD9FF1200B5
:10412000323B25693A25690D0A00313B25693A255C
:10413000690D0A005374617475733D25690D0A0099
:104140002135204572723A204E65656420636F6D9B
:104150006D61206E6578742C20666F756E643A20F0
:10416000272563270D0A0050492C2531750D0A00BB
:104170004D522C253033750D0A002C253034750036
:104180004100492C253033692C253033692C2530EA
:1041900033690D0A002138204572723A20556E6B42
:1041A0006E6F776E20636F6D6D616E64202725637F
:1041B00025633A253258253258270D0A0021382028
:1041C0004572723A20556E6B6E6F776E20636F6D1D
:1041D0006D616E64202725633A253258270D0A0049
:1041E0002137204572723A204578747261207061DF
:1041F000726D617465720D0A002136204572723A43
:1042000020496E76616C696420706172616D7465BD
:10421000722076616C75650D0A002134204572723A
:104220003A204D697373696E6720706172616D65C4
:104230007465722873290D0A002133204572723A81
:1042400020525820427566666572206F76657272DC
:10425000756E0D0A002132204572723A20545820A2
:10426000427566666572206F76657272756E0D0AAC
:0D427000002131200D0A002130200D0A0030
:02427E001FC05F
:1042800029F01EC028F01DC027F01D502202F4CFD7
:104290001BF0F3CF1AF01E502302F4CF1DF0F3CF22
:1042A0001CF02202F3501B26F4501C22E86A1D2247
:1042B00027502302F3501B26F4501C22E86A1D22CB
:1042C0001F502202F3501C26F4501D221F502302BF
:1042D0001E6AE86A1E22F3501D26F4501E22275043
:1042E0002402F3501C26F4501D221F6AE86A1E2285
:1042F0001F2228502402F3501D26F4501E22E86A83
:104300001F2229502402F3501E26F4501F22000CB5
:104310001FC029F01EC028F01E502302F4CF1DF04C
:10432000F3CF1CF01F502402F4CF1FF0F3CF1EF088
:104330002302F3501D26F4501E22E86A1F22285043
:104340002402F3501D26F4501E22E86A1F2224AED8
:10435000AEEF21F028501E5E29501F5A29AE000CE6
:0A43600023501E5E24501F5A000C6B
:06436A0012010002020036
:104370000008D8040A0000000102000109024300FD
:10438000020100803209040000010202010005243C
:104390000010010424020205240600010524010086
:1043A000010705820308000209040100020A000057
:1043B00000070503024000000705830240000004D7
:1043C00003090434034D006900630072006F006349
:1043D00000680069007000200054006500630068F8
:1043E000006E006F006C006F0067007900200049CC
:1043F000006E0063002E003403430044004300209D
:1044000000520053002D00320033003200200045DE
:10441000006D0075006C006100740069006F006E33
:10442000002000440065006D006F007C437C43BFAA
:0744300043C343F7436E355F
:084438002A0EF66E080EF76E65
:10444000000EF86E01010900F550D16F0900F5501A
:10445000D26F03E1D16701D03DD00900F550CC6F98
:104460000900F550CD6F0900F550CE6F0900090025
:10447000F550E96E0900F550EA6E090009000900DF
:10448000F550CF6F0900F550D06F09000900F6CF45
:10449000D3F1F7CFD4F1F8CFD5F1CCC1F6FFCDC130
:1044A000F7FFCEC1F8FF0101CF5302E1D05307E07F
:1044B0000900F550EE6ECF07F8E2D007F9D7D3C167
:1044C000F6FFD4C1F7FFD5C1F8FF0101D107000EF7
:0644D000D25BBFD7120011
:0A44D600D9CFE6FFDACFE6FFE1CF11
:1044E000D9FFE2CFDAFFE652E652E652E652D95061
:1044F000FB0F2A6EFF0EDA202B6E2AC0DEFFDD6E68
:10450000DECFE6FFDDCFE6FFFB0EDBCFE6FFFC0EE6
:10451000DBCFE6FFFD0EDBCFE6FFEEC1E6FFEFC12E
:10452000E6FFBCEC14F02A6E070EE15C02E2E16AE1
:10453000E552E16E2A50020EF3CFDBFF030EF4CFFB
:10454000DBFF020EDBCF2AF0030EDBCF2BF02AC0FD
:10455000F3FF2BC0F4FF040EE15C02E2E16AE552D6
:0E456000E16EE552E5CFDAFFE7CFD9FF12009A
:02456E00D9CFA3
:10457000E6FFDACFE6FFE1CFD9FFE2CFDAFFFB0EAD
:10458000DBCF2AF0FC0EDBCF2BF00001800E2B14CA
:104590001AE1FB0EDBCFE9FFFC0EDBCFEAFFEECF2B
:1045A000F3FFEDCFF4FFEE2A000EEF22F3CFE9FF89
:1045B000F4CFEAFFFD0EDBCFEFFFEF502B6AF36E77
:1045C0002BC0F4FF10D0FB0EDB50FE0806E1FD0E01
:1045D000DBCFE6FFE9EC23F005D0FD0EDBCFE6FFF5
:1045E000F2EC07F0E552E552E5CFDAFFE7CFD9FF6D
:0245F0001200B7
:0E45F2001C502102F3CF18F0F4CF19F0220272
:10460000F3501926000EF4201A6E1C502302F350AA
:104610001A26000EF4201B6E1C502402F3501B2699
:104620001D502102F3501926F4501A22000E1B22AD
:104630001D502202F3501A26F4501B221D50230253
:10464000F3501B261E502102F3501A26F4501B2251
:104650001E502202F3501B261F502102F3501B262E
:02466000120046
:0E466200FE0EE3CFE9FFFF0EE3CFEAFFF36A9F
:10467000F46AEE5203E0F34AF42AFBD71200FF0E6D
:10468000E3CFF8FFE552FF0EE3CFF7FFE552FF0E51
:10469000E3CFF6FFE552E66AE66AE66A0900F552FC
:1046A00009E0FD0EE32A05E1FE0EE32A02E1FF0E1A
:1046B000E32AF4D7FD0EE3CF1DF0FE0EE3CF1EF08C
:0846C000FF0EE3CF1FF0120012
:0846C800FF0EE124E96EFF0E74
:1046D000E220EA6EEDCFF4FFEFCFF3FFF46607D0F0
:1046E000600EF36404D07B0EF36001D0F39A1200E5
:1046F000F36AF46AFF0EE124E96EFF0EE220EA6E2F
:10470000ED6607D02F0EEF6404D03A0EEF6001D0B3
:04471000F32A120076
:0C4714001B6A1A6A196A186A200EE76E08
:10472000D8901C361D361E361F36183619361A36E6
:104730001B362150185C2250195823501A58245007
:104740001B5809E32150185E2250195A23501A5A57
:0C47500024501B5A1C2AE72EE4D712004C
:04475C004F4B0D0AA8
:10476000000D0A006F70656E737072696E7473204D
:10477000465720302E3331206261736564206F6E9E
:104780002055425720465720442056657273696F62
:0A4790006E20312E342E320D0A0087
:06479A0005D811D8D1EC96
:1047A00006F0FCD712000F0EC112140E6F6E01013D
:1047B000E86B0101E96B0101EA6B06EC06F01200FF
:1047C000CFEC1FF06FBE02D0EFEC1FF019EC1CF025
:0247D0001200D5
:0E47D200FF0EE350ACBA04D0AF6AAB8EAC8AD7
:0E47E000949CACA2FED7AD6EF36EF46A12008C
:0247EE0013EEC8
:1047F00000F023EE00F0F86A179C1CEC22F0CDECE0
:0648000023F0FDD71200B9
:0A480600FF0EE350E84E1200000020
:0C48100000D000D000D0E82EFAD7120033
:04481C0030313233D2
:0D48200034353637383961626364656600EF
:02482E0000EE9A
:0C48300000F00F0EEE6AEA62FDD71200E5
:04483C000000000078
:0648400000010000010070
:02484600FEFF73
:00000001FF
