:100000000C945B000C9483000C9483000C9483008C
:100010000C9483000C9483000C9483000C94830054
:100020000C9483000C9483000C9483000C94830044
:100030000C9483000C9483000C9483000C94830034
:100040000C940D070C9483000C94EA080C94830024
:100050000C9483000C9483000C9483000C94830014
:100060000C9483000C948300000024272A000025B0
:10007000282B000023262904040404040404040299
:100080000202020202030303030303010204081035
:100090002040800102040810200102040810200002
:1000A0000000070002010000030406000000000039
:1000B000000000000C0711241FBECFEFD4E0DEBF0C
:1000C000CDBF12E0A0E0B1E0ECE5FAE102C005909E
:1000D0000D92A837B107D9F713E0A8E7B2E001C045
:1000E0001D92AA33B107E1F710E0C6EBD0E004C0DF
:1000F0002297FE010E94290DC43BD107C9F70E9437
:1001000031060C942D0D0C940000EF92FF920F938A
:100110001F93E0908B02F0908C0200918D02109161
:100120008E028091AD029091AE02A091AF02B0918B
:10013000B002A8019701281B390B4A0B5B0B809179
:10014000750190917601AA2797FDA095BA2F821785
:100150009307A407B50780F5E092AD02F092AE02D6
:100160000093AF021093B00260E071E081EB92E087
:100170000E94ED064091950250919602609197027F
:10018000709198022AE030E081EB92E00E94CF0665
:1001900064E071E081EB92E00E94ED0640919902EB
:1001A00050919A0260919B0270919C022AE030E08B
:1001B00081EB92E00E94CF061F910F91FF90EF908C
:1001C0000895EF92FF920F931F93609195027091A3
:1001D000960280919702909198020E940D0A7B01ED
:1001E0008C016091730170917401882777FD80956F
:1001F000982F0E94AF0B20E030E040E85EE30E94C1
:10020000260C9B01AC01C801B7010E94BC0B8823DE
:100210002CF061E0809163010E94250860919502B5
:100220007091960280919702909198020E940D0A17
:100230007B018C016091730170917401882777FDB7
:100240008095982F0E94AF0B20E030E040E05FE304
:100250000E94260C9B01AC01C801B7010E94BC0B97
:1002600088232CF061E0809165010E94250860914F
:1002700095027091960280919702909198020E9447
:100280000D0A7B018C0160917301709174018827C4
:1002900077FD8095982F0E94AF0B20E030E040E47E
:1002A0005FE30E94260C9B01AC01C801B7010E94CC
:1002B000BC0B88232CF061E0809167010E94250827
:1002C0008091730190917401AA2797FDA095BA2F90
:1002D0002091950230919602409197025091980298
:1002E000281739074A075B0728F061E08091690108
:1002F0000E9425086091990270919A0280919B0258
:1003000090919C020E940D0A7B018C016091730107
:1003100070917401882777FD8095982F0E94AF0B0C
:1003200020E030E040E85EE30E94260C9B01AC0137
:10033000C801B7010E94BC0B88232CF061E08091BA
:100340006B010E9425086091990270919A02809138
:100350009B0290919C020E940D0A7B018C0160918E
:10036000730170917401882777FD8095982F0E9402
:10037000AF0B20E030E040E05FE30E94260C9B01E1
:10038000AC01C801B7010E94BC0B88232CF061E0CE
:1003900080916D010E9425086091990270919A02E6
:1003A00080919B0290919C020E940D0A7B018C011E
:1003B0006091730170917401882777FD8095982F63
:1003C0000E94AF0B20E030E040E45FE30E94260C87
:1003D0009B01AC01C801B7010E94BC0B88232CF023
:1003E00061E080916F010E942508809173019091D6
:1003F0007401AA2797FDA095BA2F209199023091F8
:100400009A0240919B0250919C02281739074A0793
:100410005B0728F061E0809171010E9425081F911F
:100420000F91FF90EF9008950E94320720917A0279
:1004300030917B0240917C0250917D02621B730BD4
:10044000840B950B2091530130915401409155013B
:1004500050915601261737074807590708F50E949B
:10046000320760937A0270937B0280937C029093B0
:100470007D028091780290917902892B39F481E094
:1004800090E0909379028093780204C010927902F0
:100490001092780260917802809151010E942508A3
:1004A00008950F931F938C01682F80916B010E9418
:1004B0002508602F80916D010E942508602F809192
:1004C0006F010E942508602F809171010E9425080C
:1004D0001F910F9108950F931F938C01682F8091A6
:1004E00063010E942508602F809165010E94250804
:1004F000602F809167010E942508602F809169011B
:100500000E9425081F910F9108950E9432072091A3
:100510008002309181024091820250918302621BDD
:10052000730B840B950B2091530130915401409132
:10053000550150915601261737074807590708F00B
:1005400054C00E94320760938002709381028093AE
:1005500082029093830280917E0290917F02892B88
:1005600039F481E090E090937F0280937E0204C092
:1005700010927F0210927E0220919D0230919E0285
:1005800040919F025091A0028091A1029091A202FD
:10059000A091A302B091A402281739074A075B076C
:1005A00038F480917E0290917F020E946B02089540
:1005B00082179307A407B50738F480917E029091C3
:1005C0007F020E9451020895281739074A075B07E6
:1005D00061F480917E0290917F020E946B02809173
:1005E0007E0290917F020E94510208950F931F9303
:1005F0008C010E946B02C8010E9451021F910F9151
:10060000089581E090E00E94F602089580E090E075
:100610000E94F60208950E94320760938702709349
:1006200088028093890290938A020E9406030895AB
:10063000809157010E94D9079C019093900280936A
:100640008F028091590190915A01892BC1F5213077
:100650003105A9F510929502109296021092970218
:10066000109298021092990210929A0210929B0294
:1006700010929C0210929D0210929E0210929F0274
:100680001092A0021092A1021092A2021092A30254
:100690001092A40281E08093850284E090E0909320
:1006A000AA028093A9020E9432076093A502709368
:1006B000A6028093A7029093A8020E940103809152
:1006C0008F029091900290935A018093590108955E
:1006D00081EB92E00E940207882309F46FC081EB4E
:1006E00092E00E94FF069093900280938F028736DB
:1006F0009105B1F510929502109296021092970210
:10070000109298021092990210929A0210929B02F3
:1007100010929C0210929D0210929E0210929F02D3
:100720001092A0021092A1021092A2021092A302B3
:100730001092A40281E08093850284E090E090937F
:10074000AA028093A9020E9432076093A5027093C7
:10075000A6028093A7029093A8020E940103089525
:100760008337910529F4109284021092860208952D
:100770008D36910531F40E940B0381E0809386024F
:10078000089586379105D1F468E071E081EB92E03D
:100790000E94F10660E371E081EB92E00E94ED06B9
:1007A0004091730150917401662757FD6095762F33
:1007B0002AE030E081EB92E00E94CF060895EF92AC
:1007C000FF920F931F930E9414020E9468030E94DD
:1007D000180380918602882309F480C00E943207A2
:1007E0009B01AC018091870290918802A0918902BF
:1007F000B0918A02281B390B4A0B5B0B20938B02AA
:1008000030938C0240938D0250938E028091AB0204
:100810009091AC02AA2797FDA095BA2F79018A0181
:10082000E81AF90A0A0B1B0BD801C7018B3F910587
:10083000A105B10508F452C03093AC022093AB027D
:1008400063E471E081EB92E00E94ED0640918B023F
:1008500050918C0260918D0270918E022AE030E0FE
:1008600081EB92E00E94CF068091950290919602D2
:10087000A0919702B09198020196A11DB11D80939D
:10088000950290939602A0939702B093980260E02D
:1008900071E081EB92E00E94ED0640918B02509155
:1008A0008C0260918D0270918E022AE030E081EB23
:1008B00092E00E94CF068091990290919A02A091B5
:1008C0009B02B0919C020196A11DB11D80939902DB
:1008D00090939A02A0939B02B0939C028091850210
:1008E000882309F44BC00E9432072091A502309161
:1008F000A6024091A7025091A802621B730B840BC1
:10090000950B695E73408040904058F18091A90238
:100910009091AA0201979093AA028093A9020E9443
:1009200032076093A5027093A6028093A70290936A
:10093000A802E091A902F091AA02EE0FFF1FED5963
:10094000FE4F60E080810E942508E091A902F091AD
:10095000AA02EE0FFF1FE559FE4F60E080810E9462
:1009600025088091A9029091AA02892B39F40E944E
:100970000B031092850281E08093840280918402AF
:10098000882309F4F4C00E94320720918702309135
:1009900088024091890250918A02621B730B840B7A
:1009A000950B60938B0270938C0280938D029093D1
:1009B0008E0280915B010E94D907909392028093EE
:1009C000910280915D010E94D907909394028093D7
:1009D00093028091910290919202019709F058C080
:1009E00080915F0190916001892B09F051C02091A5
:1009F00095023091960240919702509198022F5F94
:100A00003F4F4F4F5F4F2093950230939602409394
:100A100097025093980280919D0290919E02A0911E
:100A20009F02B091A0020097A105B10589F58091C0
:100A3000730190917401AA2797FDA095BA2F2817EA
:100A400039074A075B0720F180918B0290918C0255
:100A5000A0918D02B0918E0280939D0290939E0290
:100A6000A0939F02B093A00267E471E081EB92E053
:100A70000E94ED0640919D0250919E0260919F025E
:100A80007091A0022AE030E081EB92E00E94CF0654
:100A90008091930290919402019709F058C080913F
:100AA000610190916201892B09F051C02091990256
:100AB00030919A0240919B0250919C022F5F3F4FD0
:100AC0004F4F5F4F2093990230939A0240939B02BD
:100AD00050939C028091A1029091A202A091A30246
:100AE000B091A4020097A105B10589F58091730129
:100AF00090917401AA2797FDA095BA2F281739075E
:100B00004A075B0720F180918B0290918C02A091A3
:100B10008D02B0918E028093A1029093A202A093C5
:100B2000A302B093A4026CE471E081EB92E00E9416
:100B3000ED064091A1025091A2026091A302709132
:100B4000A4022AE030E081EB92E00E94CF0680917F
:100B50009102909192029093600180935F01809145
:100B6000930290919402909362018093610180912D
:100B70009D0290919E02A0919F02B091A0020097C9
:100B8000A105B105C9F08091A1029091A202A091A6
:100B9000A302B091A4020097A105B10569F080916C
:100BA0008402882331F0109284020E9485000E9402
:100BB000E1000E94850204C00E94E1000E948500BD
:100BC0001F910F91FF90EF90089540E052EC61E08B
:100BD00070E081EB92E00E94060761E08091510194
:100BE0000E94BB0760E080915B010E94BB0760E050
:100BF00080915D010E94BB0760E0809157010E94D7
:100C0000BB0761E0809157010E94250861E0809157
:100C100063010E94BB0761E0809165010E94BB07F0
:100C200061E0809167010E94BB0761E080916901EA
:100C30000E94BB0761E080916B010E94BB0761E0ED
:100C400080916D010E94BB0761E080916F010E945D
:100C5000BB0761E0809171010E94BB070E940603FF
:100C60000895CFEFD4E0DEBFCDBF0E9479070E9488
:100C7000E5050E94DF03FDCF08950895CB01BA0179
:100C80003327442755270E94300908952AE00E94FF
:100C90003E060895AB01662777270E944606089511
:100CA000862F0E9428090895862F0E9428090895FA
:100CB0000F931F938C016DE00E9454066AE0C801F7
:100CC0000E9454061F910F9108950F931F938C015A
:100CD0000E944606C8010E9458061F910F91089570
:100CE0000F931F938C010E944A06C8010E94580668
:100CF0001F910F9108950F931F938C010E9450062E
:100D0000C8010E9458061F910F9108950F931F93D9
:100D10008C010E945406C8010E9458061F910F9131
:100D20000895EF92FF920F931F93CF93DF93EC01FF
:100D30007A018B0177FF0BC06DE20E94540610957B
:100D40000095F094E094E11CF11C011D111D2AE0B6
:100D5000B801A701CE010E943E06DF91CF911F91FD
:100D60000F91FF90EF9008950F931F938C010E94B5
:100D70009106C8010E9458061F910F9108952115F0
:100D8000310521F4642F0E94540608952A3031055C
:100D900019F40E94910608950E943E0608950F934B
:100DA0001F938C010E94BF06C8010E9458061F9124
:100DB0000F910895AB01662757FD6095762F0E942D
:100DC000910608950F931F938C010E94DA06C801C3
:100DD0000E9458061F910F910895CB010E94000AAE
:100DE00008950F931F938C010E94ED06C8010E9485
:100DF00058061F910F9108950E94E10808950E94DE
:100E0000C20808950E94B10899270895CB01BA013C
:100E10000E9470080895089508951F920F920FB6CA
:100E20000F9211248F939F93AF93BF938091B6023B
:100E30009091B702A091B802B091B9020196A11D9C
:100E4000B11D8093B6029093B702A093B802B093FD
:100E5000B902BF91AF919F918F910F900FBE0F90EC
:100E60001F9018956091B6027091B7028091B802F8
:100E70009091B90227E0660F771F881F991F2A9566
:100E8000D1F72DE730E040E050E00E949F0CCA010E
:100E9000B9010895AF92BF92CF92DF92EF92FF9285
:100EA0000F931F935B016C010E9432077B018C0141
:100EB0000E9432076E197F09800B910B6A157B0522
:100EC0008C059D05A8F31F910F91FF90EF90DF9087
:100ED000CF90BF90AF900895019751F0880F991F60
:100EE000880F991F02972FB7F8940197F1F72FBF3A
:100EF000089578941092B6021092B7021092B80238
:100F00001092B90284B5826084BD84B5816084BDCD
:100F100085B5826085BD85B5816085BDEEE6F0E072
:100F2000808181608083E1E8F0E08081826080835D
:100F3000808181608083E0E8F0E08081816080834F
:100F4000E1EBF0E0808184608083E0EBF0E0808181
:100F500081608083EAE7F0E0808184608083808123
:100F600082608083808181608083808180688083CB
:100F70001092C1000895282F3327C90185579F4F2C
:100F8000FC01949129583F4FF9018491882381F005
:100F9000E82FFF27E859FF4FE491FF27662329F444
:100FA000808190958923808308958081892B808317
:100FB0000895482F5527CA0181569F4FFC0124915F
:100FC000CA0185579F4FFC01949149585F4FFA0120
:100FD0003491332319F480E090E00895222331F115
:100FE000233021F4809180008F7705C0243031F4C4
:100FF000809180008F7D8093800018C0213019F48B
:1010000084B58F7704C0223021F484B58F7D84BDF0
:101010000DC0263021F48091B0008F7705C02730B5
:1010200029F48091B0008F7D8093B000E32FFF27DB
:10103000EE58FF4FE491FF27808120E030E08923C4
:1010400011F021E030E0C9010895482F5527CA0169
:1010500081569F4FFC012491CA0185579F4FFC0187
:10106000949149585F4FFA0134913323C1F12223FF
:1010700031F1233021F4809180008F7705C0243036
:1010800031F4809180008F7D8093800018C02130E2
:1010900019F484B58F7704C0223021F484B58F7D94
:1010A00084BD0DC0263021F48091B0008F7705C03B
:1010B000273029F48091B0008F7D8093B000E32F1A
:1010C000FF27E359FF4FE491FF27662329F480812E
:1010D00090958923808308958081892B808308954A
:1010E000EF92FF920F931F937B018C0122E030E07F
:1010F00040E050E00E94C10C205C3D4B404F5F4FF0
:10110000CA01B901A80197010E94C10C21503040C9
:1011100040405040BB2757FDBA95A52F942F832FF1
:101120002F5F3F4F4F4F5F4F8093C500215020935B
:10113000C400E1ECF0E08081806180838081886080
:1011400080838081806880831F910F91FF90EF9052
:101150000895982F8091C00085FFFCCF9093C60022
:1011600008958091B2029091B30280589F4F2091D0
:10117000B4023091B502821B930B60E870E00E94CC
:101180008C0C08954091B4025091B5028091B20246
:101190009091B3028417950719F48FEF9FEF08958C
:1011A000FA01E654FD4F2081CA01019660E870E023
:1011B0000E948C0C9093B5028093B402822F9927E1
:1011C00008958091B4029091B5029093B3028093F8
:1011D000B20208951F920F920FB60F9211242F930F
:1011E0003F934F935F936F937F938F939F93AF93AF
:1011F000BF93EF93FF934091C600E091B202F0914C
:10120000B302CF01019660E870E00E948C0C9C0153
:101210008091B4029091B5022817390739F0E6544D
:10122000FD4F40833093B3022093B202FF91EF91C0
:10123000BF91AF919F918F917F916F915F914F91EE
:101240003F912F910F900FBE0F901F90189508950A
:10125000982F8091C00085FFFCCF9093C600089521
:101260002F923F924F925F926F927F928F929F92B6
:10127000AF92BF92CF92DF92EF92FF920F931F93A4
:10128000CF93DF93CDB7DEB7A0970FB6F894DEBF4C
:101290000FBECDBF6B017C0129013A0161157105BB
:1012A0008105910541F48091C00085FFFCCF80E36A
:1012B0008093C6004BC08824992454011E010894D1
:1012C000211C311C8101080D191DC701B601A301A4
:1012D00092010E949F0CF80160830894811C911C6C
:1012E000A11CB11CC701B601A30192010E949F0C71
:1012F00069017A01211531054105510519F7089455
:1013000081089108A108B108F101E80DF91D0894C0
:10131000811C911CA11CB11C14C008948108910867
:10132000A108B10880818A3018F4982F905D02C01E
:10133000982F995C8091C00085FFFCCF9093C600E8
:10134000319781149104A104B10439F7A0960FB626
:10135000F894DEBF0FBECDBFDF91CF911F910F91EB
:10136000FF90EF90DF90CF90BF90AF909F908F90C5
:101370007F906F905F904F903F902F90089520E165
:1013800030E040E050E00E943009089528E030E06D
:1013900040E050E00E943009089522E030E040E053
:1013A00050E00E94300908958091C00085FFFCCF75
:1013B0008AE08093C6000895EF92FF920F931F93E7
:1013C0007B018C0197FF0FC08091C00085FFFCCF8F
:1013D0008DE28093C60010950095F094E094E11C96
:1013E000F11C011D111D2AE030E040E050E0C80171
:1013F000B7010E9430091F910F91FF90EF9008955F
:10140000FC0107C08091C00085FFFCCF319690930E
:10141000C60090819923B1F70895A8E0B0E0E3E118
:10142000FAE00C94FA0C7B018C01611571058105C1
:10143000910519F482E089835AC083E089838EE1A3
:10144000C82ED12CDC82CB82ED82FE820F831887DE
:10145000C801B7010E94800ABC016150704077FF4B
:1014600033C0EE27FF27E61BF70B20E030E040E01B
:1014700050E081E090E0A0E0B0E00E2E04C0880FC4
:10148000991FAA1FBB1F0A94D2F70197A109B1099E
:101490008E219F21A023B1230097A105B10521F042
:1014A00021E030E040E050E004C016950795F79445
:1014B000E794EA95D2F72E293F29402B512B2D8313
:1014C0003E834F8358870FC06115710581F0062E4A
:1014D00004C0EE0CFF1C001F111F0A94D2F7ED820E
:1014E000FE820F831887C61AD70ADC82CB821A8243
:1014F000CE0101960E94CD0AE8E028960C94160DC4
:10150000EF92FF920F931F939B01AC01203080E07C
:10151000380781E0480780E0580780F42F3F310505
:101520004105510509F020F4EE24FF24870119C07C
:1015300068E0E62EF12C012D112D13C0203080E043
:10154000380780E0480781E0580730F490E1E92E41
:10155000F12C012D112D05C088E1E82EF12C012D73
:10156000112D80E290E0A0E0B0E08E199F09A00B61
:10157000B10B04C05695479537952795EA94D2F755
:10158000F901E958FE4F2081821B9109A109B10997
:101590001F910F91FF90EF9008959F92AF92BF928D
:1015A000CF92DF92EF92FF920F931F93EE24FF24CE
:1015B0008701FC012481358146815781918080819A
:1015C000823010F44061A2C0843009F49BC08230A4
:1015D00029F420E030E040E050E005C0211531055D
:1015E0004105510519F4E0E0F0E092C08281938159
:1015F0006FEF823896070CF05AC062E87FEF681BE5
:10160000790B6A3171052CF020E030E040E050E0C9
:101610002AC0AA24BB24650181E090E0A0E0B0E0EC
:10162000062E04C0880F991FAA1FBB1F0A94D2F769
:101630000197A109B10982239323A423B52300971D
:10164000A105B10529F071E0A72EB12CC12CD12C38
:1016500004C056954795379527956A95D2F72A295C
:101660003B294C295D29DA01C9018F779070A07060
:10167000B07080349105A105B10539F427FF09C088
:10168000205C3F4F4F4F5F4F04C0215C3F4F4F4F97
:101690005F4F80E090E0203060E0360760E0460772
:1016A00060E4560710F081E090E0FC0123C0803830
:1016B000910544F5FC01E158FF4FDA01C9018F772C
:1016C0009070A070B07080349105A105B10539F417
:1016D00027FF09C0205C3F4F4F4F5F4F04C0215C84
:1016E0003F4F4F4F5F4F57FF05C056954795379572
:1016F0002795319687E056954795379527958A9592
:10170000D1F706C020E030E040E050E0EFEFF0E03D
:10171000E22EF32E942F9F77802F8078892B9E2F97
:101720009795992797958F77082F092B9E2F969538
:10173000812F8078892B9794992497948F77182FED
:101740001929C801B7011F910F91FF90EF90DF9009
:10175000CF90BF90AF909F900895E89403C097FBFF
:101760000EF4CFD0B62F672F782F892F9EE9002453
:1017700027C00ED05EF004C00BD026F001C008D008
:1017800019F020F48FEF089580E0089581E0089526
:1017900097FB092E052600F868942DD0E89407FCE5
:1017A00007C0621773078407950721F008F40094B7
:1017B0000794989408959A95BB0F661F771F881F0A
:1017C00011249923A1F08823B2F79F3F59F0BB0F52
:1017D00048F421F4002011F460FF04C06F5F7F4FD4
:1017E0008F4F9F4F881F9795879597F9089529C028
:1017F000052E092607FA440F551F5F3F79F0AA27E7
:10180000A51708F051E04795880F991F9F3F31F0C9
:10181000BB27B91708F091E0879508959F919F9194
:10182000112477C097FB880F991F9F3F31F0BB278A
:10183000B91708F091E0879508959F919F91112421
:1018400068C066277727882799270895D1DF01D0B8
:10185000B7CF992339F0552329F09F575F57950F3C
:1018600013F49AF1F1CF91589F3FE1F3629FA12DBC
:101870000F92BB27639FA00DB11DEE27729FA00D95
:10188000B11DEE1FAF93AA27649FB00DE11D739F9A
:10189000B00DE11DAA1F6627829FB00DE11DA61F96
:1018A0005527749FE00DA11D551F839FE00DA11DBD
:1018B000561F849FA00D511D852F7A2F6E2F1F90CC
:1018C0000F9088231AF4939539F423C0000C111C4F
:1018D000BB1F661F771F881F0128089597FB94DFA1
:1018E0009F3738F0FEE9F91B982F872F762F6B2F43
:1018F00005C0A7CF9695879577956795F150D0F756
:101900003EF490958095709561957F4F8F4F9F4FD6
:1019100008959FEF80EC089597FB092E07260AD0C3
:1019200077FD04D049D006D000201AF47095619557
:101930007F4F0895F6F7909581959F4F0895A1E206
:101940001A2EAA1BBB1BFD010DC0AA1FBB1FEE1F39
:10195000FF1FA217B307E407F50720F0A21BB30B84
:10196000E40BF50B661F771F881F991F1A9469F700
:1019700060957095809590959B01AC01BD01CF015C
:10198000089597FB092E05260ED057FD04D0D7DF0A
:101990000AD0001C38F450954095309521953F4F62
:1019A0004F4F5F4F0895F6F790958095709561952C
:1019B0007F4F8F4F9F4F0895AA1BBB1B51E107C05C
:1019C000AA1FBB1FA617B70710F0A61BB70B881FCF
:1019D000991F5A95A9F780959095BC01CD0108955E
:1019E0002F923F924F925F926F927F928F929F922F
:1019F000AF92BF92CF92DF92EF92FF920F931F931D
:101A0000CF93DF93CDB7DEB7CA1BDB0B0FB6F894CD
:101A1000DEBF0FBECDBF09942A88398848885F840D
:101A20006E847D848C849B84AA84B984C884DF807E
:101A3000EE80FD800C811B81AA81B981CE0FD11D62
:101A40000FB6F894DEBF0FBECDBFED010895EE0FC7
:0C1A5000FF1F0590F491E02D0994FFCFDA
:101A5C00313A2000323A20004F70656E5370726933
:101A6C006E747320465720666F72204172647569DC
:101A7C006E6F2076657273696F6E2058585820000F
:101A8C00726163654C656E6774685469636B73202F
:101A9C003D2000303A200031663A200032663A2070
:101AAC00000D00FA0000000C000100020003000110
:101ABC000001000400050006000700080009000AE8
:101ACC00000B007805FA0000010202030303030473
:101ADC0004040404040404050505050505050505B1
:101AEC000505050505050506060606060606060691
:101AFC00060606060606060606060606060606067A
:101B0C000606060606060607070707070707070760
:101B1C000707070707070707070707070707070749
:101B2C000707070707070707070707070707070739
:101B3C000707070707070707070707070707070729
:101B4C000707070707070708080808080808080810
:101B5C0008080808080808080808080808080808F9
:101B6C0008080808080808080808080808080808E9
:101B7C0008080808080808080808080808080808D9
:101B8C0008080808080808080808080808080808C9
:101B9C0008080808080808080808080808080808B9
:101BAC0008080808080808080808080808080808A9
:101BBC000808080808080808080808080808080899
:081BCC000808080808080800D9
:00000001FF
