:100000000C945B000C9483000C9483000C9483008C
:100010000C9483000C9483000C9483000C94830054
:100020000C9483000C9483000C9483000C94830044
:100030000C9483000C9483000C9483000C94830034
:100040000C946F040C9483000C945C070C94830054
:100050000C9483000C9483000C9483000C94830014
:100060000C9483000C948300000024272A000025B0
:10007000282B000023262904040404040404040299
:100080000202020202030303030303010204081035
:100090002040800102040810200102040810200002
:1000A0000000070002010000030406000000000039
:1000B00000000000FB0511241FBECFEFD4E0DEBF1F
:1000C000CDBF11E0A0E0B1E0E2EDF1E102C00590AA
:1000D0000D92A234B107D9F712E0A2E4B1E001C059
:1000E0001D92A231B107E1F710E0C6EBD0E004C0E9
:1000F0002297FE010E94E308C43BD107C9F70E9482
:1001000068040C94E7080C9400000E949404609327
:100110004B0170934C0180934D0190934E010895D3
:10012000EF92FF920F931F93E0904F01F0905001D8
:1001300000915101109152018091850190918601A9
:10014000A0918701B0918801A8019701281B390B64
:100150004A0B5B0B8091400190914101AA2797FDCA
:10016000A095BA2F82179307A407B50708F06CC0B3
:10017000E0928501F0928601009387011093880137
:1001800060E071E089E891E00E94C40640915D0161
:1001900050915E0160915F01709160012AE030E052
:1001A00089E891E00E94B90664E071E089E891E095
:1001B0000E94C40640916101509162016091630107
:1001C000709164012AE030E089E891E00E94B9066C
:1001D00068E071E089E891E00E94C4064091650101
:1001E0005091660160916701709168012AE030E0EA
:1001F00089E891E00E94B9066CE071E089E891E03D
:100200000E94C4064091690150916A0160916B019E
:1002100070916C012AE030E089E891E00E94B90613
:1002200060E171E089E891E00E94C40640914F01CD
:100230005091500160915101709152012AE030E0DB
:1002400089E891E00E94B9061F910F91FF90EF900D
:10025000089589E891E00E94DA06882309F476C0BF
:1002600089E891E00E94D70690935401809353014E
:100270008736910509F053C010925D0110925E011E
:1002800010925F0110926001109261011092620160
:100290001092630110926401109265011092660140
:1002A00010926701109268011092690110926A0120
:1002B00010926B0110926C0110926D0110926E0100
:1002C00010926F01109270011092710110927201E0
:1002D00010927301109274011092750110927601C0
:1002E00010927701109278011092790110927A01A0
:1002F00010927B0110927C0181E08093490184E09F
:1003000090E090938201809381010E949404609315
:100310007D0170937E0180937F0190938001809195
:100320005301909154018D36910529F40E94850066
:1003300081E080934A018091530190915401833769
:10034000910521F41092480110924A0108950E94EB
:10035000940420914401309145014091460150910F
:100360004701621B730B840B950B20912A0130917E
:100370002B0140912C0150912D012617370748077A
:10038000590708F50E949404609344017093450155
:1003900080934601909347018091420190914301DF
:1003A000892B39F481E090E09093430180934201DE
:1003B00004C0109243011092420160914201809169
:1003C00028010E94620508950E94A7010E94290148
:1003D00080914901882399F10E94940420917D0124
:1003E00030917E0140917F0150918001621B730B1F
:1003F000840B950B695E73408040904098F080912B
:1004000081019091820101979093820180938101F3
:100410000E94940460937D0170937E0180937F011C
:10042000909380018091810190918201892B39F410
:100430000E9485001092490181E0809348018091DB
:100440004801882309F4D2C10E94940420914B01F1
:1004500030914C0140914D0150914E01621B730B44
:10046000840B950B60934F01709350018093510161
:100470009093520180912E010E94AD0590935601F8
:1004800080935501809130010E94AD0590935801F1
:1004900080935701809132010E94AD0590935A01DB
:1004A00080935901809134010E94AD0590935C01C5
:1004B00080935B018091550190915601019709F05D
:1004C00058C08091360190913701892B09F051C0B5
:1004D00020915D0130915E0140915F01509160017A
:1004E0002F5F3F4F4F4F5F4F20935D0130935E0171
:1004F00040935F015093600180916D0190916E0176
:10050000A0916F01B09170010097A105B10589F527
:1005100080913E0190913F01AA2797FDA095BA2FA7
:10052000281739074A075B0720F180914F01909106
:100530005001A0915101B091520180936D019093AF
:100540006E01A0936F01B093700164E171E089E8DE
:1005500091E00E94C40640916D0150916E0160913E
:100560006F01709170012AE030E089E891E00E940B
:10057000B9068091570190915801019709F058C030
:100580008091380190913901892B09F051C0209157
:1005900061013091620140916301509164012F5FCC
:1005A0003F4F4F4F5F4F2093610130936201409363
:1005B0006301509364018091710190917201A09147
:1005C0007301B09174010097A105B10589F580917F
:1005D0003E0190913F01AA2797FDA095BA2F2817B9
:1005E00039074A075B0720F180914F019091500134
:1005F000A0915101B09152018093710190937201C9
:10060000A0937301B093740169E171E089E891E00E
:100610000E94C40640917101509172016091730172
:10062000709174012AE030E089E891E00E94B906F7
:100630008091590190915A01019709F058C0809119
:100640003A0190913B01892B09F051C0209165013D
:100650003091660140916701509168012F5F3F4FD3
:100660004F4F5F4F209365013093660140936701C0
:10067000509368018091750190917601A091770166
:10068000B09178010097A105B10589F580913E01EF
:1006900090913F01AA2797FDA095BA2F28173907F7
:1006A0004A075B0720F180914F0190915001A09182
:1006B0005101B09152018093750190937601A093FE
:1006C0007701B09378016EE171E089E891E00E94D2
:1006D000C406409175015091760160917701709147
:1006E00078012AE030E089E891E00E94B906809123
:1006F0005B0190915C01019709F058C080913C0129
:1007000090913D01892B09F051C0209169013091F0
:100710006A0140916B0150916C012F5F3F4F4F4F29
:100720005F4F2093690130936A0140936B015093AE
:100730006C018091790190917A01A0917B01B09137
:100740007C010097A105B10589F580913E0190914A
:100750003F01AA2797FDA095BA2F281739074A0706
:100760005B0720F180914F0190915001A0915101C0
:10077000B09152018093790190937A01A0937B010B
:10078000B0937C0163E271E089E891E00E94C406C5
:100790004091790150917A0160917B0170917C01C7
:1007A0002AE030E089E891E00E94B9068091550185
:1007B00090915601909337018093360180915701B3
:1007C000909158019093390180933801809159019B
:1007D00090915A0190933B0180933A0180915B0183
:1007E00090915C0190933D0180933C0180916D015B
:1007F00090916E01A0916F01B09170010097A105D9
:10080000B10569F18091710190917201A09173011C
:10081000B09174010097A105B10509F180917501AE
:1008200090917601A0917701B09178010097A10590
:10083000B105A9F08091790190917A01A0917B0195
:10084000B0917C010097A105B10549F08091480164
:10085000882339F0109248010E94900008950E9468
:100860009000089540E052EC61E070E089E891E08A
:100870000E94DD0661E0809128010E94440560E04D
:1008800080912E010E94440560E0809130010E9419
:10089000440560E0809132010E94440560E080914F
:1008A00034010E94440561E080912E010E9462059E
:1008B00061E0809130010E94620561E08091320127
:1008C0000E94620561E0809134010E9462050895F2
:1008D0000E9402050E9432040E94E401FDCF1F9293
:1008E0000F920FB60F9211248F939F93AF93BF93E4
:1008F00080918E0190918F01A0919001B091910112
:100900000196A11DB11D80938E0190938F01A0933C
:100910009001B0939101BF91AF919F918F910F90F2
:100920000FBE0F901F90189560918E0170918F01EE
:10093000809190019091910127E0660F771F881FA9
:10094000991F2A95D1F72DE730E040E050E00E9452
:100950009008CA01B9010895AF92BF92CF92DF9279
:10096000EF92FF920F931F935B016C0160918E01D8
:1009700070918F01809190019091910147E0660FF5
:10098000771F881F991F4A95D1F72DE730E040E087
:1009900050E00E94900879018A0160918E01709167
:1009A0008F01809190019091910137E0660F771F40
:1009B000881F991F3A95D1F72DE730E040E050E0CD
:1009C0000E9490082E193F09400B510B2A153B0538
:1009D0004C055D0510F31F910F91FF90EF90DF9094
:1009E000CF90BF90AF900895019759F0FC01EE0FA2
:1009F000FF1FEE0FFF1F32978FB7F8943197F1F773
:100A00008FBF0895789410928E0110928F011092EA
:100A100090011092910184B5826084BD84B581609B
:100A200084BD85B5826085BD85B5816085BDEEE6F6
:100A3000F0E0808181608083E1E8F0E08081826085
:100A40008083808181608083E0E8F0E08081816044
:100A50008083E1EBF0E0808184608083E0EBF0E074
:100A6000808181608083EAE7F0E080818460808318
:100A700080818260808380818160808380818068C2
:100A800080831092C1000895282F30E0C901855756
:100A90009F4FFC01949129583F4FF901849188237D
:100AA00081F0E82FF0E0E859FF4FE491F0E0662391
:100AB00029F4808190958923808308958081892BF2
:100AC00080830895482F50E0CA0181569F4FFC0152
:100AD0002491CA0185579F4FFC01949149585F4F5B
:100AE000FA0134913323C1F1222331F1233021F46F
:100AF000809180008F7705C0243031F48091800090
:100B00008F7D8093800018C0213019F484B58F77D1
:100B100004C0223021F484B58F7D84BD0DC0263001
:100B200021F48091B0008F7705C0273029F480919F
:100B3000B0008F7D8093B000E32FF0E0E359FF4FCA
:100B4000E491F0E0662329F48081909589238083E5
:100B500008958081892B80830895482F50E0CA0131
:100B600081569F4FFC012491CA0185579F4FFC017C
:100B7000949149585F4FFA013491332319F420E0DE
:100B800030E035C0222331F1233021F48091800000
:100B90008F7705C0243031F4809180008F7D809361
:100BA000800018C0213019F484B58F7704C022303A
:100BB00021F484B58F7D84BD0DC0263021F4809151
:100BC000B0008F7705C0273029F48091B0008F7D69
:100BD0008093B000E32FF0E0EE58FF4FE491F0E097
:100BE000808120E030E0892311F021E030E0C9016C
:100BF0000895089508950895CB01BA0130E040E0CA
:100C000050E00E94B7070895CB01BA012AE030E016
:100C100040E050E00E94B707089580E090E02AE0AD
:100C200030E040E050E00E94B7070895862F0E9410
:100C30009A070895862F0E949A0708958DE00E94D2
:100C40009A078AE00E949A0708950F931F938C01D8
:100C5000CB01BA012AE030E040E050E00E94B70743
:100C6000C8010E941E061F910F9108950F931F93B4
:100C70008C0180E090E02AE030E040E050E00E940B
:100C8000B707C8010E941E061F910F9108950F9388
:100C90001F938C01862F0E949A07C8010E941E068E
:100CA0001F910F9108950F931F938C01862F0E941F
:100CB0009A07C8010E941E061F910F910895EF9296
:100CC000FF920F931F937A018B0177FF0BC08DE288
:100CD0000E949A0710950095F094E094E11CF11C95
:100CE000011D111D2AE030E040E050E0C801B701CD
:100CF0000E94B7071F910F91FF90EF9008950F93F7
:100D00001F938C010E945F06C8010E941E061F915E
:100D10000F910895AB01662757FD6095762F0E94CD
:100D20005F0608950F931F938C01AB01662757FD53
:100D30006095762F0E945F06C8010E941E061F91D3
:100D40000F910895FA01DB012115310521F4842F5B
:100D50000E949A0708952A30310519F40E945F060F
:100D6000089530E040E050E0BF01CD010E94B70798
:100D700008950F931F938C010E94A206C8010E9440
:100D80001E061F910F910895CB010E94AA07089596
:100D90000F931F938C01CB010E94AA07C8010E94E8
:100DA0001E061F910F9108950E94530708950E94F7
:100DB000340708950E9423070895CB01BA010E94C9
:100DC000E2060895EF92FF920F931F937B018C012F
:100DD00022E030E040E050E00E94B208205C3D4B51
:100DE000404F5F4FCA01B901A80197010E94B208A4
:100DF000C901DA010197A109B109292F3A2F4B2F17
:100E0000552747FD5A950196A11DB11D2093C50098
:100E100081508093C400E1ECF0E0808180618083A8
:100E20008081886080838081806880831F910F919A
:100E3000FF90EF900895982F8091C00085FFFCCF20
:100E40009093C600089580918A0190918B018058FB
:100E50009F4F20918C0130918D01821B930B60E894
:100E600070E00E947D08089540918C0150918D01A1
:100E700080918A0190918B018417950719F42FEFC7
:100E80003FEF0FC0FA01EE56FE4F2081CA010196D6
:100E900060E870E00E947D0890938D0180938C0142
:100EA00030E0C901089580918C0190918D0190935B
:100EB0008B0180938A0108951F920F920FB60F92B3
:100EC00011242F933F934F935F936F937F938F934F
:100ED0009F93AF93BF93EF93FF934091C600E09130
:100EE0008A01F0918B01CF01019660E870E00E94C9
:100EF0007D089C0180918C0190918D012817390704
:100F000039F0EE56FE4F408330938B0120938A01D7
:100F1000FF91EF91BF91AF919F918F917F916F91D1
:100F20005F914F913F912F910F900FBE0F901F90A7
:100F300018950895982F8091C00085FFFCCF90935D
:100F4000C60008958091C00085FFFCCF8AE08093A1
:100F5000C6000895FC0107C08091C00085FFFCCF4A
:100F600031969093C60090819923B1F708952F92FE
:100F70003F924F925F926F927F928F929F92AF9229
:100F8000BF92CF92DF92EF92FF920F931F93DF9366
:100F9000CF93CDB7DEB7A0970FB6F894DEBF0FBEE4
:100FA000CDBF6B017C0129013A01611571058105F5
:100FB000910541F48091C00085FFFCCF80E38093D0
:100FC000C60049C08824992454011E010894211C9C
:100FD000311C8101080D191DC701B601A301920141
:100FE0000E949008F80160830894811C911CA11C48
:100FF000B11CC701B601A30192010E949008C9016A
:10100000DA016C017D01C114D104E104F10409F796
:101010009101280D391DBE016F5F7F4FD501C401BD
:101020000197A109B109AC014819590911C0FA0188
:10103000E20FF31FE081EA3010F4E05D01C0E95CEB
:101040008091C00085FFFCCFE093C6002150304066
:101050006217730761F7A0960FB6F894DEBF0FBE54
:10106000CDBFCF91DF911F910F91FF90EF90DF9057
:10107000CF90BF90AF909F908F907F906F905F9038
:101080004F903F902F900895EF92FF920F931F93F0
:101090007B018C0197FF0FC08091C00085FFFCCFC2
:1010A0008DE28093C60010950095F094E094E11CC9
:1010B000F11C011D111D2AE030E040E050E0C801A4
:1010C000B7010E94B7071F910F91FF90EF9008950D
:1010D00020E130E040E050E00E94B707089528E0AA
:1010E00030E040E050E00E94B707089522E030E091
:1010F00040E050E00E94B707089597FB092E0726AD
:101100000AD077FD04D049D006D000201AF470959B
:1011100061957F4F0895F6F7909581959F4F0895BB
:10112000A1E21A2EAA1BBB1BFD010DC0AA1FBB1FEB
:10113000EE1FFF1FA217B307E407F50720F0A21B5D
:10114000B30BE40BF50B661F771F881F991F1A94CA
:1011500069F760957095809590959B01AC01BD01F4
:10116000CF01089597FB092E05260ED057FD04D018
:10117000D7DF0AD0001C38F4509540953095219562
:101180003F4F4F4F5F4F0895F6F7909580957095BC
:1011900061957F4F8F4F9F4F0895AA1BBB1B51E155
:1011A00007C0AA1FBB1FA617B70710F0A61BB70BD7
:1011B000881F991F5A95A9F780959095BC01CD017C
:1011C0000895EE0FFF1F0590F491E02D0994F89417
:0211D000FFCF4F
:1011D200313A2000323A2000333A2000343A2000DB
:1011E200743A200031663A200032663A20003366B3
:1011F2003A200034663A20000D00FA000000020096
:10120200030004000500010001000100010078054F
:02121200FA00E0
:00000001FF
