:100000000C945B000C9483000C9483000C9483008C
:100010000C9483000C9483000C9483000C94830054
:100020000C9483000C9483000C9483000C94830044
:100030000C9483000C9483000C9483000C94830034
:100040000C943D040C9483000C942A070C948300B8
:100050000C9483000C9483000C9483000C94830014
:100060000C9483000C948300000024272A000025B0
:10007000282B000023262904040404040404040299
:100080000202020202030303030303010204081035
:100090002040800102040810200102040810200002
:1000A0000000070002010000030406000000000039
:1000B00000000000C90511241FBECFEFD4E0DEBF51
:1000C000CDBF11E0A0E0B1E0EEE6F1E102C00590A5
:1000D0000D92AE33B107D9F712E0AEE3B1E001C043
:1000E0001D92A431B107E1F710E0C6EBD0E004C0E7
:1000F0002297FE010E94B108C43BD107C9F70E94B4
:1001000036040C94B5080C9400000E9462046093BD
:100110004D0170934E0180934F01909350010895CB
:10012000EF92FF920F931F93E0905101F0905201D4
:1001300000915301109154018091870190918801A1
:10014000A0918901B0918A01A8019701281B390B60
:100150004A0B5B0B80913C0190913D01AA2797FDD2
:10016000A095BA2F82179307A407B50708F044C0DB
:10017000E0928701F09288010093890110938A012F
:1001800060E071E08BE891E00E94920640915F018F
:100190005091600160916101709162012AE030E04C
:1001A0008BE891E00E94870664E071E08BE891E0C3
:1001B0000E94920640916301509164016091650133
:1001C000709166012AE030E08BE891E00E9487069A
:1001D00068E071E08BE891E00E9492064091510145
:1001E0005091520160915301709154012AE030E026
:1001F0008BE891E00E9487061F910F91FF90EF908E
:1002000008958BE891E00E94A806882309F476C03F
:100210008BE891E00E94A5069093560180935501CA
:100220008736910509F053C010925F01109260016A
:1002300010926101109262011092630110926401A8
:100240001092650110926601109267011092680188
:100250001092690110926A0110926B0110926C0168
:1002600010926D0110926E0110926F011092700148
:100270001092710110927201109273011092740128
:100280001092750110927601109277011092780108
:100290001092790110927A0110927B0110927C01E8
:1002A00010927D0110927E0181E080934B0184E0E9
:1002B00090E090938401809383010E946204609394
:1002C0007F017093800180938101909382018091DE
:1002D0005501909156018D36910529F40E948500B3
:1002E00081E080934C0180915501909156018337B4
:1002F000910521F410924A0110924C0108950E9438
:10030000620420914001309141014091420150919D
:100310004301621B730B840B950B209122013091DA
:1003200023014091240150912501261737074807E2
:10033000590708F50E9462046093400170934101DF
:10034000809342019093430180913E0190913F013F
:10035000892B39F481E090E090933F0180933E0136
:1003600004C010923F0110923E0160913E018091C5
:1003700020010E94300508950E947F010E94010122
:1003800080914B01882399F10E94620420917F01A2
:10039000309180014091810150918201621B730B69
:1003A000840B950B695E73408040904098F080917B
:1003B000830190918401019790938401809383013C
:1003C0000E94620460937F01709380018093810199
:1003D000909382018091830190918401892B39F45B
:1003E0000E94850010924B0181E080934A01809128
:1003F0004A01882309F4D2C10E94620420914D0170
:1004000030914E0140914F0150915001621B730B8E
:10041000840B950B609351017093520180935301AB
:100420009093540180912A010E947B05909358017A
:100430008093570180912C010E947B0590935A0173
:100440008093590180912C010E947B0590935C015F
:1004500080935B0180912C010E947B0590935E014B
:1004600080935D018091570190915801019709F0A7
:1004700058C08091320190913301892B09F051C00D
:1004800020915F01309160014091610150916201C2
:100490002F5F3F4F4F4F5F4F20935F0130936001BD
:1004A000409361015093620180916F0190917001BE
:1004B000A0917101B09172010097A105B10589F574
:1004C00080913A0190913B01AA2797FDA095BA2F00
:1004D000281739074A075B0720F180915101909155
:1004E0005201A0915301B091540180936F019093F8
:1004F0007001A0937101B09372016CE071E08BE820
:1005000091E00E94920640916F01509170016091BC
:100510007101709172012AE030E08BE891E00E9455
:1005200087068091590190915A01019709F058C0AE
:100530008091340190913501892B09F051C02091AF
:1005400063013091640140916501509166012F5F14
:100550003F4F4F4F5F4F20936301309364014093AF
:100560006501509366018091730190917401A0918F
:100570007501B09176010097A105B10589F58091CB
:100580003A0190913B01AA2797FDA095BA2F281711
:1005900039074A075B0720F1809151019091520180
:1005A000A0915301B0915401809373019093740111
:1005B000A0937501B093760161E171E08BE891E061
:1005C0000E949206409173015091740160917501EF
:1005D000709176012AE030E08BE891E00E94870676
:1005E00080915B0190915C01019709F058C0809166
:1005F000360190913701892B09F051C02091670194
:10060000309168014091690150916A012F5F3F4F1D
:100610004F4F5F4F2093670130936801409369010A
:1006200050936A018091770190917801A0917901AE
:10063000B0917A010097A105B10589F580913A0141
:1006400090913B01AA2797FDA095BA2F281739074B
:100650004A075B0720F18091510190915201A091CE
:100660005301B09154018093770190937801A09346
:100670007901B0937A0166E171E08BE891E00E9424
:1006800092064091770150917801609179017091C3
:100690007A012AE030E08BE891E00E9487068091A1
:1006A0005D0190915E01019709F058C08091380179
:1006B00090913901892B09F051C020916B01309143
:1006C0006C0140916D0150916E012F5F3F4F4F4F74
:1006D0005F4F20936B0130936C0140936D015093F9
:1006E0006E0180917B0190917C01A0917D01B09180
:1006F0007E010097A105B10589F580913A0190919D
:100700003B01AA2797FDA095BA2F281739074A075A
:100710005B0720F18091510190915201A09153010A
:10072000B091540180937B0190937C01A0937D0153
:10073000B0937E016BE171E08BE891E00E9492063C
:1007400040917B0150917C0160917D0170917E010F
:100750002AE030E08BE891E00E9487068091570103
:100760009091580190933301809332018091590107
:1007700090915A01909335018093340180915B01EF
:1007800090915C01909337018093360180915D01D7
:1007900090915E01909339018093380180916F01AF
:1007A00090917001A0917101B09172010097A10523
:1007B000B10569F18091730190917401A091750167
:1007C000B09176010097A105B10509F180917701FB
:1007D00090917801A0917901B0917A010097A105DB
:1007E000B105A9F080917B0190917C01A0917D01E0
:1007F000B0917E010097A105B10549F080914A01B1
:10080000882339F010924A010E94900008950E94B6
:100810009000089540E052EC61E070E08BE891E0D8
:100820000E94AB0661E0809120010E94120560E009
:1008300080912A010E94120560E080912C010E94A3
:10084000120560E0809126010E94120561E080910E
:1008500026010E94300561E080912A010E94300546
:1008600061E080912C010E94300508950E94D0041F
:100870000E940A040E94BC01FDCF1F920F920FB686
:100880000F9211248F939F93AF93BF938091900108
:1008900090919101A0919201B09193010196A11DB7
:1008A000B11D8093900190939101A0939201B09318
:1008B0009301BF91AF919F918F910F900FBE0F90B9
:1008C0001F90189560919001709191018091920113
:1008D0009091930127E0660F771F881F991F2A9533
:1008E000D1F72DE730E040E050E00E945E08CA01F9
:1008F000B9010895AF92BF92CF92DF92EF92FF922B
:100900000F931F935B016C016091900170919101B5
:10091000809192019091930147E0660F771F881FA5
:10092000991F4A95D1F72DE730E040E050E00E9452
:100930005E0879018A016091900170919101809126
:1009400092019091930137E0660F771F881F991FDE
:100950003A95D1F72DE730E040E050E00E945E0884
:100960002E193F09400B510B2A153B054C055D051F
:1009700010F31F910F91FF90EF90DF90CF90BF90F9
:10098000AF900895019759F0FC01EE0FFF1FEE0F95
:10099000FF1F32978FB7F8943197F1F78FBF089503
:1009A00078941092900110929101109292011092FD
:1009B000930184B5826084BD84B5816084BD85B5B2
:1009C000826085BD85B5816085BDEEE6F0E0808101
:1009D00081608083E1E8F0E08081826080838081B3
:1009E00081608083E0E8F0E0808181608083E1EBDA
:1009F000F0E0808184608083E0EBF0E080818160C2
:100A00008083EAE7F0E08081846080838081826077
:100A10008083808181608083808180688083109260
:100A2000C1000895282F30E0C90185579F4FFC0170
:100A3000949129583F4FF9018491882381F0E82F40
:100A4000F0E0E859FF4FE491F0E0662329F480815B
:100A500090958923808308958081892B80830895D0
:100A6000482F50E0CA0181569F4FFC012491CA01D2
:100A700085579F4FFC01949149585F4FFA0134917B
:100A80003323C1F1222331F1233021F480918000FE
:100A90008F7705C0243031F4809180008F7D809362
:100AA000800018C0213019F484B58F7704C022303B
:100AB00021F484B58F7D84BD0DC0263021F4809152
:100AC000B0008F7705C0273029F48091B0008F7D6A
:100AD0008093B000E32FF0E0E359FF4FE491F0E0A2
:100AE000662329F4808190958923808308958081ED
:100AF000892B80830895482F50E0CA0181569F4F6B
:100B0000FC012491CA0185579F4FFC0194914958DB
:100B10005F4FFA013491332319F420E030E035C0FF
:100B2000222331F1233021F4809180008F7705C09A
:100B3000243031F4809180008F7D8093800018C034
:100B4000213019F484B58F7704C0223021F484B5A4
:100B50008F7D84BD0DC0263021F48091B0008F7749
:100B600005C0273029F48091B0008F7D8093B000BC
:100B7000E32FF0E0EE58FF4FE491F0E0808120E0B9
:100B800030E0892311F021E030E0C9010895089593
:100B900008950895CB01BA0130E040E050E00E9492
:100BA00085070895CB01BA012AE030E040E050E02B
:100BB0000E948507089580E090E02AE030E040E060
:100BC00050E00E9485070895862F0E9468070895C7
:100BD000862F0E94680708958DE00E9468078AE0CA
:100BE0000E94680708950F931F938C01CB01BA01EF
:100BF0002AE030E040E050E00E948507C8010E94F2
:100C0000EC051F910F9108950F931F938C0180E0C5
:100C100090E02AE030E040E050E00E948507C80103
:100C20000E94EC051F910F9108950F931F938C0163
:100C3000862F0E946807C8010E94EC051F910F9142
:100C400008950F931F938C01862F0E946807C80197
:100C50000E94EC051F910F910895EF92FF920F9360
:100C60001F937A018B0177FF0BC08DE20E9468070A
:100C700010950095F094E094E11CF11C011D111DEC
:100C80002AE030E040E050E0C801B7010E9485074B
:100C90001F910F91FF90EF9008950F931F938C0178
:100CA0000E942D06C8010E94EC051F910F91089526
:100CB000AB01662757FD6095762F0E942D0608959B
:100CC0000F931F938C01AB01662757FD6095762F1C
:100CD0000E942D06C8010E94EC051F910F910895F6
:100CE000FA01DB012115310521F4842F0E946807E8
:100CF00008952A30310519F40E942D06089530E038
:100D000040E050E0BF01CD010E94850708950F9398
:100D10001F938C010E947006C8010E94EC051F9170
:100D20000F910895CB010E94780708950F931F93A8
:100D30008C01CB010E947807C8010E94EC051F912D
:100D40000F9108950E94210708950E9402070895B7
:100D50000E94F1060895CB01BA010E94B0060895E1
:100D6000EF92FF920F931F937B018C0122E030E002
:100D700040E050E00E948008205C3D4B404F5F4FB8
:100D8000CA01B901A80197010E948008C901DA01CE
:100D90000197A109B109292F3A2F4B2F552747FD5C
:100DA0005A950196A11DB11D2093C50081508093D5
:100DB000C400E1ECF0E08081806180838081886004
:100DC00080838081806880831F910F91FF90EF90D6
:100DD0000895982F8091C00085FFFCCF9093C600A6
:100DE000089580918C0190918D0180589F4F2091A2
:100DF0008E0130918F01821B930B60E870E00E949E
:100E00004B08089540918E0150918F0180918C0183
:100E100090918D018417950719F42FEF3FEF0FC0C4
:100E2000FA01EC56FE4F2081CA01019660E870E09D
:100E30000E944B0890938F0180938E0130E0C9018E
:100E4000089580918E0190918F0190938D018093F0
:100E50008C0108951F920F920FB60F9211242F93B9
:100E60003F934F935F936F937F938F939F93AF9332
:100E7000BF93EF93FF934091C600E0918C01F091F6
:100E80008D01CF01019660E870E00E944B089C0143
:100E900080918E0190918F012817390739F0EC5617
:100EA000FE4F408330938D0120938C01FF91EF9191
:100EB000BF91AF919F918F917F916F915F914F9172
:100EC0003F912F910F900FBE0F901F90189508958E
:100ED000982F8091C00085FFFCCF9093C6000895A5
:100EE0008091C00085FFFCCF8AE08093C600089502
:100EF000FC0107C08091C00085FFFCCF3196909324
:100F0000C60090819923B1F708952F923F924F9296
:100F10005F926F927F928F929F92AF92BF92CF9289
:100F2000DF92EF92FF920F931F93DF93CF93CDB792
:100F3000DEB7A0970FB6F894DEBF0FBECDBF6B0132
:100F40007C0129013A01611571058105910541F482
:100F50008091C00085FFFCCF80E38093C60049C02C
:100F60008824992454011E010894211C311C8101FC
:100F7000080D191DC701B601A30192010E945E0868
:100F8000F80160830894811C911CA11CB11CC7014D
:100F9000B601A30192010E945E08C901DA016C0149
:100FA0007D01C114D104E104F10409F79101280D78
:100FB000391DBE016F5F7F4FD501C4010197A109A3
:100FC000B109AC014819590911C0FA01E20FF31F28
:100FD000E081EA3010F4E05D01C0E95C8091C0007E
:100FE00085FFFCCFE093C6002150304062177307A5
:100FF00061F7A0960FB6F894DEBF0FBECDBFCF91BC
:10100000DF911F910F91FF90EF90DF90CF90BF90F5
:10101000AF909F908F907F906F905F904F903F9098
:101020002F900895EF92FF920F931F937B018C01F5
:1010300097FF0FC08091C00085FFFCCF8DE28093A9
:10104000C60010950095F094E094E11CF11C011D80
:10105000111D2AE030E040E050E0C801B7010E94D5
:1010600085071F910F91FF90EF90089520E130E0E8
:1010700040E050E00E948507089528E030E040E01D
:1010800050E00E948507089522E030E040E050E003
:101090000E948507089597FB092E07260AD077FD41
:1010A00004D049D006D000201AF4709561957F4F86
:1010B0000895F6F7909581959F4F0895A1E21A2E15
:1010C000AA1BBB1BFD010DC0AA1FBB1FEE1FFF1FEC
:1010D000A217B307E407F50720F0A21BB30BE40B3C
:1010E000F50B661F771F881F991F1A9469F7609583
:1010F0007095809590959B01AC01BD01CF0108953D
:1011000097FB092E05260ED057FD04D0D7DF0AD055
:10111000001C38F450954095309521953F4F4F4F26
:101120005F4F0895F6F790958095709561957F4F84
:101130008F4F9F4F0895AA1BBB1B51E107C0AA1FE9
:10114000BB1FA617B70710F0A61BB70B881F991F68
:101150005A95A9F780959095BC01CD010895EE0FA1
:0E116000FF1F0590F491E02D0994F894FFCF45
:10116E00313A2000323A2000743A200031663A209B
:10117E000032663A200033663A200034663A200088
:10118E000D00FA0000000C00010002000300040034
:0E119E00050001000100010001007805FA00C3
:00000001FF
