:100000000C945B000C9483000C9483000C9483008C
:100010000C9483000C94C4000C9483000C947D0118
:100020000C9483000C9483000C9483000C94830044
:100030000C9483000C9483000C9483000C94830034
:100040000C9455030C9483000C9403060C948300C9
:100050000C9483000C9483000C9483000C94830014
:100060000C9483000C948300000024272A000025B0
:10007000282B000023262904040404040404040299
:100080000202020202030303030303010204081035
:100090002040800102040810200102040810200002
:1000A0000000070002010000030406000000000039
:1000B00000000000880511241FBECFEFD4E0DEBF92
:1000C000CDBF11E0A0E0B1E0EEE4F6E102C00590A2
:1000D0000D92AA37B107D9F712E0AAE7B1E001C043
:1000E0001D92AF3AB107E1F710E0C6EBD0E004C0D3
:1000F0002297FE010E94EB0AC43BD107C9F70E9478
:100100004A030C94260B0C94000010928001089571
:1001100084E0809368008CE380936D000895809163
:10012000F201882381F010920802109209021092C5
:100130000A0210920B0210920C0210920D02109201
:100140000E0210920F021092F2010895EBEBF1E013
:10015000119281E0E23FF807D9F70895E4E8F1E071
:10016000119281E0EB3BF807D9F7089582E0809384
:10017000B00095E09093B1009AEF9093B300809314
:1001800070001092B20008951F920F920FB60F9256
:1001900011242F933F934F935F936F937F938F938C
:1001A0009F93AF93BF93EF93FF9382E00E9421044C
:1001B0008093690183E00E94210480936A0184E0B6
:1001C0000E94210480936B0185E00E9421048093AA
:1001D0006C0186E00E942104682F80936D0150918C
:1001E0006901552311F090E006C090E080917501FF
:1001F000813009F491E09093040240916A01442314
:1002000011F090E006C090E080917601813009F411
:1002100091E09093050230916B01332311F090E04F
:1002200006C090E080917701813009F491E09093CD
:10023000060220916C01222311F090E006C090E0AC
:1002400080917801813009F491E090930702662350
:1002500011F090E006C090E080917901813009F4BE
:1002600091E09093F20150937501409376013093A1
:100270007701209378016093790181E08093800178
:10028000FF91EF91BF91AF919F918F917F916F916E
:100290005F914F913F912F910F900FBE0F901F9044
:1002A000189582E00E9421048093690183E00E94F6
:1002B000210480936A0184E00E94210480936B01F1
:1002C00085E00E94210480936C0186E00E94210455
:1002D00080936D01209169012093750120916A013D
:1002E0002093760120916B012093770120916C017E
:1002F000209378018093790108951F920F920FB691
:100300000F9211240F931F932F933F934F935F935B
:100310006F937F938F939F93AF93BF93EF93FF93CD
:10032000CF93DF93CDB7DEB72197DEBFCDBFF89473
:1003300080910502880F20910602220F220F282BA0
:1003400080910402282B80910702880F880F880F64
:10035000822B109204021092050210920602109253
:10036000070219828F5999279F938F9380E091E01C
:100370009F938F938E010F5F1F4F1F930F930E94C8
:100380006C07B80180917001909171010E9426075D
:10039000E0917001F0917101DF010D900020E9F70B
:1003A0001197AE1BBF0B8DB79EB706960FB6F8948C
:1003B0009EBF0FBE8DBFA733B1053CF063E071E077
:1003C00086E292E00E946D0505C0D5971CF081E0A1
:1003D0008093740178942196F894DEBFCDBFDF91AD
:1003E000CF91FF91EF91BF91AF919F918F917F91AD
:1003F0006F915F914F913F912F911F910F910F90AE
:100400000FBE0F901F901895F894E4E8F1E0119258
:1004100081E0EB3BF807D9F7EBEBF1E0119281E0DB
:10042000E23FF807D9F740E052EC61E070E086E285
:1004300092E00E94820563E271E086E292E00E940F
:100440006D050E94B60084E0809368008CE3809381
:100450006D0061E0809163010E94030461E089E026
:100460000E94030460E082E00E94030460E083E0F5
:100470000E94030460E084E00E94030460E085E0E1
:100480000E94030460E086E00E94030461E086E0CD
:100490000E946D040E94510162E371E086E292E0E5
:1004A0000E946D0578940895EF92FF920F931F9329
:1004B0000E947A037B018C0180917C0190917D01E7
:1004C000A0917E01B0917F01A8019701281B390BF3
:1004D0004A0B5B0B8091650190916601A0916701C9
:1004E000B091680182179307A407B507FCF4E09266
:1004F0007C01F0927D0100937E0110937F01809139
:100500007A0190917B01892B39F481E090E09093FE
:100510007B0180937A0104C010927B0110927A01D2
:1005200060917A01809163010E946D041F910F9187
:10053000FF90EF90089586E292E00E947E05882366
:1005400099F186E292E00E947B05873619F566E50F
:1005500071E086E292E00E946D05F8940E947A03B1
:100560006093FC017093FD018093FE019093FF0165
:100570007894109208021092090210920A021092C6
:100580000B0210920C0210920D0210920E021092A9
:100590000F0208958D3621F481E08093FB010895C8
:1005A000833711F41092FB0108950F931F930E945B
:1005B00054020E949B020E948F0080918001882338
:1005C00011F01092800180917401813009F05FC0B8
:1005D0006CE571E080917001909171010E94260795
:1005E00010927401EBEBF1E0119281E0E23FF80729
:1005F000D9F76091700170917101809172019091B1
:1006000073010E943107E4E8F1E0119291E0EB3BC5
:10061000F907D9F7F8940E947A032091FC013091F0
:10062000FD014091FE015091FF01621B730B840B91
:10063000950B609318027093190280931A0290939D
:100640001B0278940CE112E02AE030E0A8010E943D
:1006500038071F930F938EE591E09F938F938091BE
:100660007001909171019F938F930E946C0760912C
:1006700072017091730186E292E00E946D058DB760
:100680009EB706960FB6F8949EBF0FBE8DBF1F9102
:100690000F910895CFEFD4E0DEBFCDBF0E94C1031C
:1006A0000E9404020E94D502FDCF1F920F920FB646
:1006B0000F9211248F939F93AF93BF9380912B023E
:1006C00090912C02A0912D02B0912E020196A11DB5
:1006D000B11D80932B0290932C02A0932D02B09316
:1006E0002E02BF91AF919F918F910F900FBE0F90EF
:1006F0001F90189560912B0270912C0280912D0211
:1007000090912E0227E0660F771F881F991F2A9568
:10071000D1F72DE730E040E050E00E94980ACA018E
:10072000B9010895AF92BF92CF92DF92EF92FF92FC
:100730000F931F935B016C010E947A037B018C0174
:100740000E947A036E197F09800B910B6A157B0555
:100750008C059D05A8F31F910F91FF90EF90DF90FE
:10076000CF90BF90AF900895019751F0880F991FD7
:10077000880F991F02972FB7F8940197F1F72FBFB1
:100780000895789410922B0210922C0210922D0250
:1007900010922E0284B5826084BD84B5816084BDD0
:1007A00085B5826085BD85B5816085BDEEE6F0E0EA
:1007B000808181608083E1E8F0E0808182608083D5
:1007C000808181608083E0E8F0E0808181608083C7
:1007D000E1EBF0E0808184608083E0EBF0E08081F9
:1007E00081608083EAE7F0E080818460808380819B
:1007F0008260808380818160808380818068808343
:100800001092C1000895282F3327C90185579F4FA3
:10081000FC01949129583F4FF9018491882381F07C
:10082000E82FFF27E859FF4FE491FF27662329F4BB
:10083000808190958923808308958081892B80838E
:100840000895482F5527CA0181569F4FFC012491D6
:10085000CA0185579F4FFC01949149585F4FFA0197
:100860003491332319F480E090E00895222331F18C
:10087000233021F4809180008F7705C0243031F43B
:10088000809180008F7D8093800018C0213019F402
:1008900084B58F7704C0223021F484B58F7D84BD68
:1008A0000DC0263021F48091B0008F7705C027302D
:1008B00029F48091B0008F7D8093B000E32FFF2753
:1008C000EE58FF4FE491FF27808120E030E089233C
:1008D00011F021E030E0C9010895482F5527CA01E1
:1008E00081569F4FFC012491CA0185579F4FFC01FF
:1008F000949149585F4FFA0134913323C1F1222377
:1009000031F1233021F4809180008F7705C02430AD
:1009100031F4809180008F7D8093800018C0213059
:1009200019F484B58F7704C0223021F484B58F7D0B
:1009300084BD0DC0263021F48091B0008F7705C0B2
:10094000273029F48091B0008F7D8093B000E32F91
:10095000FF27E359FF4FE491FF27662329F48081A5
:1009600090958923808308958081892B80830895C1
:1009700008950895CB01BA013327442755270E94D3
:10098000490608952AE00E94BA040895AB0166273B
:1009900077270E94C2040895862F0E944106089579
:1009A000862F0E94410608950F931F938C016DE0DE
:1009B0000E94D0046AE0C8010E94D0041F910F91E8
:1009C00008950F931F938C010E94C204C8010E94D6
:1009D000D4041F910F9108950F931F938C010E94CF
:1009E000C604C8010E94D4041F910F9108950F936B
:1009F0001F938C010E94CC04C8010E94D4041F9153
:100A00000F9108950F931F938C010E94D004C80189
:100A10000E94D4041F910F910895EF92FF920F93BB
:100A20001F93CF93DF93EC017A018B0177FF0BC00B
:100A30006DE20E94D00410950095F094E094E11CC2
:100A4000F11C011D111D2AE0B801A701CE010E9471
:100A5000BA04DF91CF911F910F91FF90EF9008950D
:100A60000F931F938C010E940D05C8010E94D404AE
:100A70001F910F9108952115310521F4642F0E94D3
:100A8000D00408952A30310519F40E940D05089507
:100A90000E94BA0408950F931F938C010E943B0596
:100AA000C8010E94D4041F910F910895AB016627DD
:100AB00057FD6095762F0E940D0508950F931F93A3
:100AC0008C010E945605C8010E94D4041F910F9109
:100AD0000895CB010E94190708950F931F938C016D
:100AE0000E946905C8010E94D4041F910F910895C6
:100AF0000E94FA0508950E94DB0508950E94CA0528
:100B000099270895CB01BA010E9489050895089597
:100B10000895EF92FF920F931F937B018C0122E0C7
:100B200030E040E050E00E94BA0A205C3D4B404F6C
:100B30005F4FCA01B901A80197010E94BA0A21506A
:100B4000304040405040BB2757FDBA95A52F942F09
:100B5000832F2F5F3F4F4F4F5F4F8093C500215032
:100B60002093C400E1ECF0E080818061808380818B
:100B7000886080838081806880831F910F91FF90BF
:100B8000EF900895982F8091C00085FFFCCF90933F
:100B9000C6000895809127029091280280589F4FA7
:100BA0002091290230912A02821B930B60E870E0A9
:100BB0000E94850A08954091290250912A0280914D
:100BC0002702909128028417950719F48FEF9FEF61
:100BD0000895FA01E15DFD4F2081CA01019660E8A8
:100BE00070E00E94850A90932A0280932902822F46
:100BF000992708958091290290912A0290932802C2
:100C00008093270208951F920F920FB60F9211241E
:100C10002F933F934F935F936F937F938F939F9304
:100C2000AF93BF93EF93FF934091C600E0912702EB
:100C3000F0912802CF01019660E870E00E94850AD9
:100C40009C018091290290912A022817390739F0D6
:100C5000E15DFD4F40833093280220932702FF91EE
:100C6000EF91BF91AF919F918F917F916F915F9124
:100C70004F913F912F910F900FBE0F901F9018959D
:100C80000895982F8091C00085FFFCCF9093C600F7
:100C900008952F923F924F925F926F927F928F9220
:100CA0009F92AF92BF92CF92DF92EF92FF920F93FB
:100CB0001F93CF93DF93CDB7DEB7A0970FB6F8940D
:100CC000DEBF0FBECDBF6B017C0129013A0161156A
:100CD00071058105910541F48091C00085FFFCCF2D
:100CE00080E38093C6004BC08824992454011E01E0
:100CF0000894211C311C8101080D191DC701B60182
:100D0000A30192010E94980AF80160830894811C53
:100D1000911CA11CB11CC701B601A30192010E9444
:100D2000980A69017A01211531054105510519F724
:100D3000089481089108A108B108F101E80DF91D96
:100D40000894811C911CA11CB11C14C0089481083A
:100D50009108A108B10880818A3018F4982F905D1D
:100D600002C0982F995C8091C00085FFFCCF9093C2
:100D7000C600319781149104A104B10439F7A096FB
:100D80000FB6F894DEBF0FBECDBFDF91CF911F919C
:100D90000F91FF90EF90DF90CF90BF90AF909F901A
:100DA0008F907F906F905F904F903F902F9008951D
:100DB00020E130E040E050E00E944906089528E03C
:100DC00030E040E050E00E944906089522E030E023
:100DD00040E050E00E94490608958091C00085FFE0
:100DE000FCCF8AE08093C6000895EF92FF920F93A4
:100DF0001F937B018C0197FF0FC08091C00085FF7E
:100E0000FCCF8DE28093C60010950095F094E0949D
:100E1000E11CF11C011D111D2AE030E040E050E012
:100E2000C801B7010E9449061F910F91FF90EF90F2
:100E30000895FC0107C08091C00085FFFCCF31966A
:100E40009093C60090819923B1F70895FB01DC01CE
:100E50000D900020E9F7119701900D920020E1F725
:100E60000895FB01DC0101900D920020E1F7089547
:100E7000FA01CF93FF93EF93223044F1253234F5FA
:100E8000C22FE894CA3049F497FB3EF490958095C0
:100E9000709561957F4F8F4F9F4F2C2F332744279D
:100EA0005527FF93EF930E94980AEF91FF91605DA1
:100EB0006A330CF0695D6193B901CA0160507040FA
:100EC0008040904051F716F4CDE2C19310828F918B
:100ED0009F91CF910C94480AA0E1B0E0E2E7F7E0DF
:100EE0000C94FD0A0F89188D86E08E831C830B837A
:100EF0008FEF9FE798878F83AE01455E5F4F5A83E0
:100F00004983698D7A8DCE0103960E9491072985C8
:100F10003A85020F131FF8011082E4E060960C94EA
:100F2000190BA7E1B0E0E7E9F7E00C94EF0A882499
:100F3000992454012C017C8B6B8B3A01FC011782A4
:100F40001682838181FD03C08FEF9FEF7EC2CC2488
:100F5000DD249E012F5F3F4F3F8B2E8B65C2C0FE6D
:100F600048C2832D80538A30D8F430E3331641F4DD
:100F70008D85882329F4C3FC03C0E0E0F1E073C051
:100F80008AE0FD85F802C00111248053830D8D870E
:100F900087FF02C02FE72D87C3FC40C22D843EC2CD
:100FA000960128703070C3FE05C08D85882311F42A
:100FB00091E09D87E7E6E3156CF1F5E63F160CF04E
:100FC00068C083E5381609F489C08315BCF09BE23C
:100FD000391609F442C093154CF0E0E23E1609F4CC
:100FE00040C0F3E23F1609F0FCC143C02DE23216C7
:100FF000E9F13EE2331609F0F4C140C083E6381649
:1010000009F44DC083150CF481C098E5391609F038
:10101000E8C120C0E0E73E1609F4A2C0E3155CF089
:10102000FCE63F1689F12FE6321689F039E63316D1
:1010300009F0D7C16BC085E7381609F499C098E765
:10104000391641F0E3E73E1609F0CBC130C0F8E0B5
:10105000F88B8EC020E1288B8BC080E190E0C82AFD
:10106000D92AE0E2F0E0CE2ADF2AD8C120E830E039
:101070000DC080E490E0C82AD92AD0C1E8E0F0E0B1
:10108000CE2ADF2A1D86CAC124E030E0C22AD32A34
:10109000C5C13FE3832E2A9423E6322E30C1F301EB
:1010A00080802A9422E030E0620E731E28C1F30192
:1010B000A081B1814D01232B49F0FD856F2F77274A
:1010C00067FD7095CD010E943D0A18C0FD01019099
:1010D0000020E9F73197EA1BE88B11C0F30180810A
:1010E00091814C01232B41F0FD856F2F772767FD00
:1010F00070950E94320A02C00E94290A888B22E061
:1011000030E0620E731E3889231AF9C0C2FE08C08F
:10111000F30180819181A281B38124E030E009C094
:10112000F30180819181AA2797FDA095BA2F22E033
:1011300030E0620E731E4C015D01B7FF0CC082E00F
:1011400090E0C82AD92AB094A09490948094811CED
:10115000911CA11CB11CEFEBFFEFCE22DF2221C0BE
:1011600020E430E0C22AD32A98E7392E30E1388BC8
:10117000C2FE08C0F30180819181A281B38124E085
:1011800030E007C0F30180819181AA27BB2722E0CC
:1011900030E0620E731E4C015D018FEC9FEFC822A0
:1011A000D92285017401FE013196FF87EE87F88907
:1011B0008F2E9924AA24BB24232D21522D8BC801C4
:1011C000B701A50194010E94980A6A301CF03D897C
:1011D000630F01C0605DEE85FF856193FF87EE8739
:1011E000C801B701A50194010E94980A79018A01FA
:1011F000211531054105510511F788249924540121
:101200004E85FE894F1B842EC60182739070892BF8
:1012100009F02A94C6FE07C02889203111F482E023
:1012200001C081E0281AC3FE12C08D85282F332704
:1012300027FD3095842F9927821793072CF0E7EF2D
:10124000FFEFCE22DF2203C0FD85F41BFD87860160
:1012500008701070C3FE03C02D85221A01C0241A25
:10126000C60180789170892B31F00AC0B20180E20A
:1012700090E00E94580A2A94822D8F5F1816B4F3CA
:10128000C1FE04C0B2018DE290E00BC0C4FE04C0F8
:10129000B2018BE290E005C0C5FE05C0B20180E25C
:1012A00090E00E94580AC6FE0FC0B20180E390E0B1
:1012B0000E94580A3889303139F4B201832D9927B8
:1012C00087FD90950E94580AD0FC06C00AC0B20162
:1012D00080E390E00E94580A2A94822D8F5F1816AE
:1012E000B4F3012B31F40BC0B20180E390E00E9413
:1012F000580A8D8581508D878F5F1816ACF3F601E3
:10130000E078F070FA8BE98BC7FE06C00AC0B20124
:1013100080E290E00E94580A2A94822D8F5F18166E
:10132000B4F3F3E63F1641F4B201882D992787FD07
:1013300090950E94580A45C023E73216B1F4640123
:101340007401188909C0F70181917F01B2019927C1
:1013500087FD90950E94580A1150A8F74601F88918
:101360008F0E911C2FEF288B2CC033E5331619F00C
:101370000E851F851FC064018401F88808C0F8012C
:101380008491B20199270E94580A0F5F1F4FFA9467
:10139000FFEFFF16A1F746012889820E911CF88BFA
:1013A00010C0F80182918F01B201992787FD9095B5
:1013B0000E94580A2E893F890217130791F71F8749
:1013C0000E8789899A89892B31F426C0B20180E27F
:1013D00090E00E94580A2A94822D8F5F1816B4F369
:1013E0001BC0B201832D992787FD90950E94580A52
:1013F00013C095E2391641F4EAE0E88B22241D86F9
:1014000081E0C82ED12C0AC0B201832D992787FD17
:1014100090950E94580A02C0CC24DD242B893C8977
:101420002F5F3F4F3C8B2B8BF201838183FF04C0E6
:10143000EB89FC89349003C0EB89FC893080332030
:1014400009F08DCDF20186819781E2E167960C94D7
:101450000B0BFC0105900020E9F7809590958E0F0D
:101460009F1F0895FC010590615070400110D8F74E
:10147000809590958E0F9F1F0895FC0161507040DC
:1014800001900110D8F7809590958E0F9F1F0895B9
:10149000DC01FC01672F71917723E1F7329704C0DB
:1014A0007C916D9370836291AE17BF07C8F3089566
:1014B0000F931F93CF93DF938C01EB018B819927BF
:1014C00081FF1BC082FF0DC02E813F818C819D81D9
:1014D0002817390764F4E881F9810193F983E883D7
:1014E00006C0E885F985802F0995892B31F48E8116
:1014F0009F8101969F838E8302C00FEF1FEFC8016B
:10150000DF91CF911F910F91089597FB092E072628
:101510000AD077FD04D049D006D000201AF4709587
:1015200061957F4F0895F6F7909581959F4F0895A7
:10153000A1E21A2EAA1BBB1BFD010DC0AA1FBB1FD7
:10154000EE1FFF1FA217B307E407F50720F0A21B49
:10155000B30BE40BF50B661F771F881F991F1A94B6
:1015600069F760957095809590959B01AC01BD01E0
:10157000CF01089597FB092E05260ED057FD04D004
:10158000D7DF0AD0001C38F450954095309521954E
:101590003F4F4F4F5F4F0895F6F7909580957095A8
:1015A00061957F4F8F4F9F4F0895AA1BBB1B51E141
:1015B00007C0AA1FBB1FA617B70710F0A61BB70BC3
:1015C000881F991F5A95A9F780959095BC01CD0168
:1015D0000895EE0FFF1F0590F491E02D09942F92CE
:1015E0003F924F925F926F927F928F929F92AF92B3
:1015F000BF92CF92DF92EF92FF920F931F93CF9300
:10160000DF93CDB7DEB7CA1BDB0B0FB6F894DEBF96
:101610000FBECDBF09942A88398848885F846E84BC
:101620007D848C849B84AA84B984C884DF80EE8006
:10163000FD800C811B81AA81B981CE0FD11D0FB60F
:0E164000F894DEBF0FBECDBFED010895FFCFC1
:10164E00256300427566666572204F766572727507
:10165E006E20647572696E67204750494F20536340
:10166E00616E005365747570207374617274696E67
:10167E006700536574757020436F6D706C6574658B
:10168E002C205374617274696E6720496E74657292
:10169E007275707473006741434B0A002300212555
:1016AE007340000D00FA00000001010101018201EA
:0A16BE008401BB01010101010101DB
:00000001FF
